{
  "_format": "hh3-artifact-1",
  "contractName": "WitOracleRadonRequestFactoryModalsDefault",
  "sourceName": "contracts/core/trustless/WitOracleRadonRequestFactoryModalsDefault.sol",
  "abi": [
    {
      "inputs": [
        {
          "internalType": "address",
          "name": "_witOracle",
          "type": "address"
        }
      ],
      "stateMutability": "nonpayable",
      "type": "constructor"
    },
    {
      "inputs": [],
      "name": "InvalidInitialization",
      "type": "error"
    },
    {
      "inputs": [],
      "name": "NotInitializing",
      "type": "error"
    },
    {
      "anonymous": false,
      "inputs": [
        {
          "indexed": true,
          "internalType": "address",
          "name": "by",
          "type": "address"
        },
        {
          "indexed": true,
          "internalType": "address",
          "name": "master",
          "type": "address"
        },
        {
          "indexed": true,
          "internalType": "address",
          "name": "clone",
          "type": "address"
        }
      ],
      "name": "Cloned",
      "type": "event"
    },
    {
      "anonymous": false,
      "inputs": [
        {
          "indexed": false,
          "internalType": "uint64",
          "name": "version",
          "type": "uint64"
        }
      ],
      "name": "Initialized",
      "type": "event"
    },
    {
      "inputs": [],
      "name": "base",
      "outputs": [
        {
          "internalType": "address",
          "name": "",
          "type": "address"
        }
      ],
      "stateMutability": "view",
      "type": "function"
    },
    {
      "inputs": [
        {
          "internalType": "bytes32",
          "name": "_commonRetrievalHash",
          "type": "bytes32"
        },
        {
          "internalType": "bytes15",
          "name": "_crowdAttestationTallyHash",
          "type": "bytes15"
        }
      ],
      "name": "buildRadonRequestModal",
      "outputs": [
        {
          "internalType": "contract IWitOracleRadonRequestModal",
          "name": "",
          "type": "address"
        }
      ],
      "stateMutability": "nonpayable",
      "type": "function"
    },
    {
      "inputs": [],
      "name": "class",
      "outputs": [
        {
          "internalType": "string",
          "name": "",
          "type": "string"
        }
      ],
      "stateMutability": "view",
      "type": "function"
    },
    {
      "inputs": [],
      "name": "cloned",
      "outputs": [
        {
          "internalType": "bool",
          "name": "",
          "type": "bool"
        }
      ],
      "stateMutability": "view",
      "type": "function"
    },
    {
      "inputs": [
        {
          "internalType": "bytes32",
          "name": "_commonRetrievalHash",
          "type": "bytes32"
        },
        {
          "internalType": "bytes15",
          "name": "_crowdAttestationTallyHash",
          "type": "bytes15"
        }
      ],
      "name": "determineAddress",
      "outputs": [
        {
          "internalType": "address",
          "name": "",
          "type": "address"
        }
      ],
      "stateMutability": "view",
      "type": "function"
    },
    {
      "inputs": [],
      "name": "getCrowdAttestationTally",
      "outputs": [
        {
          "components": [
            {
              "internalType": "enum Witnet.RadonReduceOpcodes",
              "name": "opcode",
              "type": "uint8"
            },
            {
              "components": [
                {
                  "internalType": "enum Witnet.RadonFilterOpcodes",
                  "name": "opcode",
                  "type": "uint8"
                },
                {
                  "internalType": "bytes",
                  "name": "cborArgs",
                  "type": "bytes"
                }
              ],
              "internalType": "struct Witnet.RadonFilter[]",
              "name": "filters",
              "type": "tuple[]"
            }
          ],
          "internalType": "struct Witnet.RadonReducer",
          "name": "",
          "type": "tuple"
        }
      ],
      "stateMutability": "view",
      "type": "function"
    },
    {
      "inputs": [],
      "name": "getDataResultType",
      "outputs": [
        {
          "internalType": "enum Witnet.RadonDataTypes",
          "name": "",
          "type": "uint8"
        }
      ],
      "stateMutability": "view",
      "type": "function"
    },
    {
      "inputs": [
        {
          "internalType": "string",
          "name": "url",
          "type": "string"
        }
      ],
      "name": "getDataSourceArgsCount",
      "outputs": [
        {
          "internalType": "uint8",
          "name": "",
          "type": "uint8"
        }
      ],
      "stateMutability": "view",
      "type": "function"
    },
    {
      "inputs": [],
      "name": "getDataSourcesAggregator",
      "outputs": [
        {
          "components": [
            {
              "internalType": "enum Witnet.RadonReduceOpcodes",
              "name": "opcode",
              "type": "uint8"
            },
            {
              "components": [
                {
                  "internalType": "enum Witnet.RadonFilterOpcodes",
                  "name": "opcode",
                  "type": "uint8"
                },
                {
                  "internalType": "bytes",
                  "name": "cborArgs",
                  "type": "bytes"
                }
              ],
              "internalType": "struct Witnet.RadonFilter[]",
              "name": "filters",
              "type": "tuple[]"
            }
          ],
          "internalType": "struct Witnet.RadonReducer",
          "name": "",
          "type": "tuple"
        }
      ],
      "stateMutability": "view",
      "type": "function"
    },
    {
      "inputs": [],
      "name": "getRadonModalRetrieval",
      "outputs": [
        {
          "components": [
            {
              "internalType": "uint8",
              "name": "argsCount",
              "type": "uint8"
            },
            {
              "internalType": "enum Witnet.RadonRetrievalMethods",
              "name": "method",
              "type": "uint8"
            },
            {
              "internalType": "enum Witnet.RadonDataTypes",
              "name": "dataType",
              "type": "uint8"
            },
            {
              "internalType": "string",
              "name": "url",
              "type": "string"
            },
            {
              "internalType": "string",
              "name": "body",
              "type": "string"
            },
            {
              "internalType": "string[2][]",
              "name": "headers",
              "type": "string[2][]"
            },
            {
              "internalType": "bytes",
              "name": "radonScript",
              "type": "bytes"
            }
          ],
          "internalType": "struct Witnet.RadonRetrieval",
          "name": "",
          "type": "tuple"
        }
      ],
      "stateMutability": "view",
      "type": "function"
    },
    {
      "inputs": [
        {
          "internalType": "bytes32",
          "name": "_commonRetrievalHash",
          "type": "bytes32"
        },
        {
          "internalType": "bytes15",
          "name": "_crowdAttestationTallyHash",
          "type": "bytes15"
        }
      ],
      "name": "initialize",
      "outputs": [
        {
          "internalType": "contract IWitOracleRadonRequestModal",
          "name": "",
          "type": "address"
        }
      ],
      "stateMutability": "nonpayable",
      "type": "function"
    },
    {
      "inputs": [],
      "name": "initialized",
      "outputs": [
        {
          "internalType": "bool",
          "name": "",
          "type": "bool"
        }
      ],
      "stateMutability": "view",
      "type": "function"
    },
    {
      "inputs": [],
      "name": "specs",
      "outputs": [
        {
          "internalType": "bytes4",
          "name": "",
          "type": "bytes4"
        }
      ],
      "stateMutability": "view",
      "type": "function"
    },
    {
      "inputs": [
        {
          "internalType": "string[]",
          "name": "modalArgs",
          "type": "string[]"
        },
        {
          "internalType": "string[]",
          "name": "modalUrls",
          "type": "string[]"
        }
      ],
      "name": "verifyRadonRequest",
      "outputs": [
        {
          "internalType": "Witnet.RadonHash",
          "name": "",
          "type": "bytes32"
        }
      ],
      "stateMutability": "nonpayable",
      "type": "function"
    },
    {
      "inputs": [],
      "name": "witOracle",
      "outputs": [
        {
          "internalType": "address",
          "name": "",
          "type": "address"
        }
      ],
      "stateMutability": "view",
      "type": "function"
    }
  ],
  "bytecode": "0x61010060405230608052348015610014575f5ffd5b50604051612309380380612309833981016040819052610033916102a9565b806100916001600160a01b0382161580159061005857505f826001600160a01b03163b115b60408051808201909152601581527f696e6578697374656e74205769742f4f7261636c65000000000000000000000060208201526101d1565b6001600160a01b03811660a081905260408051637b10399960e01b81529051637b103999916004808201926020929091908290030181865afa1580156100d9573d5f5f3e3d5ffd5b505050506040513d601f19601f820116820180604052508101906100fd91906102a9565b6001600160a01b031660c08190526040805180820182526002815281515f8082526020828101909452637f412e23938301919061015c565b604080518082019091525f8152606060208201528152602001906001900390816101355790505b508152506040518263ffffffff1660e01b815260040161017c919061030d565b6020604051808303815f875af1158015610198573d5f5f3e3d5ffd5b505050506040513d601f19601f820116820180604052508101906101bc91906103bf565b6001600160801b03191660e052506104289050565b816101df576101df816101e3565b5050565b6101eb61022c565b816040516020016101fd9291906103ed565b60408051601f198184030181529082905262461bcd60e51b825261022391600401610416565b60405180910390fd5b60606102385f54151590565b61025a576040518060600160405260298152806020016122e060299139905090565b5060408051808201909152601b81527f495769744f7261636c655261646f6e526571756573744d6f64616c0000000000602082015290565b6001600160a01b03811681146102a6575f5ffd5b50565b5f602082840312156102b9575f5ffd5b81516102c481610292565b9392505050565b634e487b7160e01b5f52602160045260245ffd5b5f81518084528060208401602086015e5f602082860101526020601f19601f83011685010191505092915050565b602081525f606082018351600c8110610328576103286102cb565b80602085015250602084015160408085015281815180845260808601915060808160051b87010193506020830192505f5b818110156103b357868503607f1901835283518051600a811061037e5761037e6102cb565b80875250602081015190506040602087015261039d60408701826102df565b9550506020938401939290920191600101610359565b50929695505050505050565b5f602082840312156103cf575f5ffd5b5051919050565b5f81518060208401855e5f93019283525090919050565b5f6103f882856103d6565b6101d160f51b815261040d60028201856103d6565b95945050505050565b602081525f6102c460208301846102df565b60805160a05160c05160e051611deb6104f55f395f81816104250152610e6601525f81816103240152818161044c0152818161053d015281816105de0152818161075f0152818161087e0152818161095301528181610d180152610e2f01525f61011701525f81816101a8015281816101f8015281816102c3015281816103cf015281816106db01528181610827015281816108fc015281816109d001528181610a6e01528181610bc001528181610cbe015281816110a00152818161112601526111d40152611deb5ff3fe608060405234801561000f575f5ffd5b50600436106100f0575f3560e01c80637bb725d311610093578063adb7c3f711610063578063adb7c3f71461023b578063bff852fa1461025c578063ebb9155614610271578063f0e271bc14610284575f5ffd5b80637bb725d3146101cc5780637f2b1d77146101e1578063a04daef0146101f6578063a646ccc114610228575f5ffd5b8063158ef93e116100ce578063158ef93e1461015957806319c7ecfc1461016e5780636dbca663146101815780637104ddb2146101a6575f5ffd5b80630f0adf5b146100f45780631014d3751461011257806313152e8914610151575b5f5ffd5b6100fc6102a5565b60405161010991906112cc565b60405180910390f35b6101397f000000000000000000000000000000000000000000000000000000000000000081565b6040516001600160a01b039091168152602001610109565b6100fc6103b1565b5f5415155b6040519015158152602001610109565b61013961017c36600461137e565b610483565b61019461018f3660046113b8565b6106d0565b60405160ff9091168152602001610109565b7f0000000000000000000000000000000000000000000000000000000000000000610139565b6101d46107de565b60405161010991906114d1565b6101e96108f1565b6040516101099190611582565b7f00000000000000000000000000000000000000000000000000000000000000006001600160a01b031630141561015e565b61013961023636600461137e565b6109c4565b610243610b2f565b6040516001600160e01b03199091168152602001610109565b610264610b4e565b6040516101099190611590565b61013961027f36600461137e565b610bb4565b6102976102923660046115e9565b610cb3565b604051908152602001610109565b604080518082019091525f8152606060208201526001600160a01b037f000000000000000000000000000000000000000000000000000000000000000016300361030a5760405162461bcd60e51b815260040161030190611653565b60405180910390fd5b600154604051630d9e7e1960e21b81526001600160a01b037f00000000000000000000000000000000000000000000000000000000000000001691633679f8649161036b9160801b906004016001600160801b031991909116815260200190565b5f60405180830381865afa158015610385573d5f5f3e3d5ffd5b505050506040513d5f823e601f3d908101601f191682016040526103ac91908101906117ab565b905090565b604080518082019091525f8152606060208201526001600160a01b037f000000000000000000000000000000000000000000000000000000000000000016300361040d5760405162461bcd60e51b815260040161030190611653565b604051630d9e7e1960e21b81526001600160801b03197f00000000000000000000000000000000000000000000000000000000000000001660048201527f00000000000000000000000000000000000000000000000000000000000000006001600160a01b031690633679f8649060240161036b565b5f5f61048d610edd565b805490915060ff600160401b82041615906001600160401b03165f811580156104b35750825b90505f826001600160401b031660011480156104ce5750303b155b9050811580156104dc575080155b156104fa5760405163f92ee8a960e01b815260040160405180910390fd5b845467ffffffffffffffff19166001178555831561052457845460ff60401b1916600160401b1785555b60405163b4ab01a560e01b8152600481018990526001907f00000000000000000000000000000000000000000000000000000000000000006001600160a01b03169063b4ab01a590602401602060405180830381865afa15801561058a573d5f5f3e3d5ffd5b505050506040513d601f19601f820116820180604052508101906105ae9190611914565b60ff1610156105bf576105bf61192d565b604051631114f43760e11b81526001600160881b0319881660048201527f00000000000000000000000000000000000000000000000000000000000000006001600160a01b031690632229e86e90602401602060405180830381865afa15801561062b573d5f5f3e3d5ffd5b505050506040513d601f19601f8201168201806040525081019061064f9190611941565b505f889055600180546001600160801b031916608089901c6fffffffffffffffffffffffffffffff001617905530955083156106c557845460ff60401b19168555604051600181527fc7f505b2f371ae2175ee4913f4499e1f2633a7b5936321eed1cdaeb6115181d29060200160405180910390a15b505050505092915050565b5f6001600160a01b037f00000000000000000000000000000000000000000000000000000000000000001630036107195760405162461bcd60e51b815260040161030190611653565b6107d5610746848460405160200161073292919061198f565b604051602081830303815290604052610f05565b5f5460405163b4ab01a560e01b815260048101919091527f00000000000000000000000000000000000000000000000000000000000000006001600160a01b03169063b4ab01a590602401602060405180830381865afa1580156107ac573d5f5f3e3d5ffd5b505050506040513d601f19601f820116820180604052508101906107d09190611914565b611076565b90505b92915050565b61081d6040805160e081019091525f808252602082019081526020015f8152602001606081526020016060815260200160608152602001606081525090565b6001600160a01b037f00000000000000000000000000000000000000000000000000000000000000001630036108655760405162461bcd60e51b815260040161030190611653565b5f54604051639dd4875760e01b815260048101919091527f00000000000000000000000000000000000000000000000000000000000000006001600160a01b031690639dd48757906024015f60405180830381865afa1580156108ca573d5f5f3e3d5ffd5b505050506040513d5f823e601f3d908101601f191682016040526103ac9190810190611aab565b5f6001600160a01b037f000000000000000000000000000000000000000000000000000000000000000016300361093a5760405162461bcd60e51b815260040161030190611653565b5f54604051635072a99b60e11b815260048101919091527f00000000000000000000000000000000000000000000000000000000000000006001600160a01b03169063a0e5533690602401602060405180830381865afa1580156109a0573d5f5f3e3d5ffd5b505050506040513d601f19601f820116820180604052508101906103ac9190611bc6565b5f306001600160a01b037f00000000000000000000000000000000000000000000000000000000000000001614610a375760405162461bcd60e51b8152602060048201526017602482015276436c6f6e61626c653a206e6f74206f6e20636c6f6e657360481b6044820152606401610301565b6001600160f81b031930610a4b8585611092565b60408051733d602d80600a3d3981f3363d3d373d3d3d363d7360601b60208201527f000000000000000000000000000000000000000000000000000000000000000060601b6001600160601b03191660348201526e5af43d82803e903d91602b57fd5bf360881b60488201528151808203603701815260579091019091528051602091820120604051610b1095949392016001600160f81b031994909416845260609290921b6001600160601b03191660018401526015830152603582015260550190565b60408051601f1981840301815291905280516020909101209392505050565b5f8054610b425750634dffd99760e01b90565b50632572737760e21b90565b6060610b5a5f54151590565b610b7c57604051806060016040526029815280602001611d8d60299139905090565b5060408051808201909152601b81527f495769744f7261636c655261646f6e526571756573744d6f64616c0000000000602082015290565b5f306001600160a01b037f00000000000000000000000000000000000000000000000000000000000000001614610c275760405162461bcd60e51b8152602060048201526017602482015276436c6f6e61626c653a206e6f74206f6e20636c6f6e657360481b6044820152606401610301565b610c39610c348484611092565b611102565b604051630671fb3f60e21b8152600481018590526001600160881b0319841660248201526001600160a01b0391909116906319c7ecfc906044016020604051808303815f875af1158015610c8f573d5f5f3e3d5ffd5b505050506040513d601f19601f820116820180604052508101906107d59190611bdf565b5f6001600160a01b037f0000000000000000000000000000000000000000000000000000000000000000163003610cfc5760405162461bcd60e51b815260040161030190611653565b5f805460405163b4ab01a560e01b8152600481018290529091907f00000000000000000000000000000000000000000000000000000000000000006001600160a01b03169063b4ab01a590602401602060405180830381865afa158015610d65573d5f5f3e3d5ffd5b505050506040513d601f19601f82011682018060405250810190610d899190611914565b90505f5b84811015610e1457610e0c87610dda610dd4898986818110610db157610db1611c05565b9050602002810190610dc39190611c19565b60405160200161073292919061198f565b85611076565b60ff16146040518060400160405280601081526020016f6d69736d61746368696e67206172677360801b815250611238565b600101610d8d565b50600154604051632632c13d60e21b81526001600160a01b037f000000000000000000000000000000000000000000000000000000000000000016916398cb04f491610e929186918c918c918c918c917f00000000000000000000000000000000000000000000000000000000000000009160801b90600401611ce3565b6020604051808303815f875af1158015610eae573d5f5f3e3d5ffd5b505050506040513d601f19601f82011682018060405250810190610ed29190611d3e565b979650505050505050565b5f807ff0c57e16840df040f15088dc2f81fe391c3923bec73e23a9662efc9c229c6a006107d8565b5f600382511015610f1757505f919050565b81515f90600119015b8082101561106f57601760fa1b6001600160f81b031916848381518110610f4957610f49611c05565b01602001516001600160f81b031916148015610f955750601760fa1b6001600160f81b031916848360020181518110610f8457610f84611c05565b01602001516001600160f81b031916145b8015610fd25750600360fc1b6001600160f81b031916848360010181518110610fc057610fc0611c05565b01602001516001600160f81b03191610155b801561100f5750603960f81b6001600160f81b031916848360010181518110610ffd57610ffd611c05565b01602001516001600160f81b03191611155b15611064575f600360fc1b60f81c85846001018151811061103257611032611c05565b602001015160f81c60f81b60f81c0360010190508360ff168160ff161115611058578093505b60038301925050610f20565b600190910190610f20565b5050919050565b5f8160ff168360ff16101561108b57816107d5565b5090919050565b6040516001600160601b03197f000000000000000000000000000000000000000000000000000000000000000060601b166020820152603481018390526001600160881b0319821660548201525f9060630160405160208183030381529060405280519060200120905092915050565b5f5f611168604051733d602d80600a3d3981f3363d3d373d3d3d363d7360601b81527f000000000000000000000000000000000000000000000000000000000000000060601b60148201526e5af43d82803e903d91602b57fd5bf360881b602882015290565b9050826037825ff591506001600160a01b0382166111c85760405162461bcd60e51b815260206004820152601860248201527f436c6f6e61626c653a2043524541544532206661696c656400000000000000006044820152606401610301565b6001600160a01b0382167f00000000000000000000000000000000000000000000000000000000000000006001600160a01b0316336001600160a01b03167ff376596be5039d6b2fb36fead4c8a370eae426e790a869be8db074ab608cc24860405160405180910390a450919050565b81611246576112468161124a565b5050565b611252610b4e565b81604051602001611264929190611d6c565b60408051601f198184030181529082905262461bcd60e51b825261030191600401611590565b634e487b7160e01b5f52602160045260245ffd5b5f81518084528060208401602086015e5f602082860101526020601f19601f83011685010191505092915050565b602081525f606082018351600c81106112e7576112e761128a565b80602085015250602084015160408085015281815180845260808601915060808160051b87010193506020830192505f5b8181101561137257868503607f1901835283518051600a811061133d5761133d61128a565b80875250602081015190506040602087015261135c604087018261129e565b9550506020938401939290920191600101611318565b50929695505050505050565b5f5f6040838503121561138f575f5ffd5b8235915060208301356001600160881b0319811681146113ad575f5ffd5b809150509250929050565b5f5f602083850312156113c9575f5ffd5b82356001600160401b038111156113de575f5ffd5b8301601f810185136113ee575f5ffd5b80356001600160401b03811115611403575f5ffd5b856020828401011115611414575f5ffd5b6020919091019590945092505050565b600581106114345761143461128a565b9052565b601481106114345761143461128a565b5f82825180855260208501945060208160051b830101602085015f5b838110156114c557848303601f19018852815183604081015f5b60028110156114ac57868203835261149782855161129e565b6020948501949390930192915060010161147e565b5060209a8b019a90955093909301925050600101611464565b50909695505050505050565b6020815260ff82511660208201525f60208301516114f26040840182611424565b5060408301516115056060840182611438565b50606083015160e0608084015261152061010084018261129e565b90506080840151601f198483030160a085015261153d828261129e565b91505060a0840151601f198483030160c085015261155b8282611448565b91505060c0840151601f198483030160e0850152611579828261129e565b95945050505050565b602081016107d88284611438565b602081525f6107d5602083018461129e565b5f5f83601f8401126115b2575f5ffd5b5081356001600160401b038111156115c8575f5ffd5b6020830191508360208260051b85010111156115e2575f5ffd5b9250929050565b5f5f5f5f604085870312156115fc575f5ffd5b84356001600160401b03811115611611575f5ffd5b61161d878288016115a2565b90955093505060208501356001600160401b0381111561163b575f5ffd5b611647878288016115a2565b95989497509550505050565b6020808252601d908201527f436c6f6e61626c653a206e6f7420612064656c65676174652063616c6c000000604082015260600190565b634e487b7160e01b5f52604160045260245ffd5b604080519081016001600160401b03811182821017156116c0576116c061168a565b60405290565b60405160e081016001600160401b03811182821017156116c0576116c061168a565b604051601f8201601f191681016001600160401b03811182821017156117105761171061168a565b604052919050565b5f6001600160401b038211156117305761173061168a565b5060051b60200190565b5f82601f830112611749575f5ffd5b8151602083015f5f6001600160401b038411156117685761176861168a565b50601f8301601f191660200161177d816116e8565b915050828152858383011115611791575f5ffd5b8282602083015e5f92810160200192909252509392505050565b5f602082840312156117bb575f5ffd5b81516001600160401b038111156117d0575f5ffd5b8201604081850312156117e1575f5ffd5b6117e961169e565b8151600c81106117f7575f5ffd5b815260208201516001600160401b03811115611811575f5ffd5b80830192505084601f830112611825575f5ffd5b815161183861183382611718565b6116e8565b8082825260208201915060208360051b860101925087831115611859575f5ffd5b602085015b838110156118ee5780516001600160401b0381111561187b575f5ffd5b86016040818b03601f19011215611890575f5ffd5b61189861169e565b6020820151600a81106118a9575f5ffd5b815260408201516001600160401b038111156118c3575f5ffd5b6118d28c60208386010161173a565b602083015250808552505060208301925060208101905061185e565b506020840152509095945050505050565b805160ff8116811461190f575f5ffd5b919050565b5f60208284031215611924575f5ffd5b6107d5826118ff565b634e487b7160e01b5f52600160045260245ffd5b5f60208284031215611951575f5ffd5b81518015158114611960575f5ffd5b9392505050565b81835281816020850137505f828201602090810191909152601f909101601f19169091010190565b602081525f6119a2602083018486611967565b949350505050565b80516005811061190f575f5ffd5b80516014811061190f575f5ffd5b5f82601f8301126119d5575f5ffd5b81516119e361183382611718565b8082825260208201915060208360051b860101925085831115611a04575f5ffd5b602085015b83811015611aa15780516001600160401b03811115611a26575f5ffd5b8601603f81018813611a36575f5ffd5b611a3e61169e565b80606083018a811115611a4f575f5ffd5b602084015b81811015611a8f5780516001600160401b03811115611a71575f5ffd5b611a808d60208389010161173a565b85525060209384019301611a54565b50508552505060209283019201611a09565b5095945050505050565b5f60208284031215611abb575f5ffd5b81516001600160401b03811115611ad0575f5ffd5b820160e08185031215611ae1575f5ffd5b611ae96116c6565b611af2826118ff565b8152611b00602083016119aa565b6020820152611b11604083016119b8565b604082015260608201516001600160401b03811115611b2e575f5ffd5b611b3a8682850161173a565b60608301525060808201516001600160401b03811115611b58575f5ffd5b611b648682850161173a565b60808301525060a08201516001600160401b03811115611b82575f5ffd5b611b8e868285016119c6565b60a08301525060c08201516001600160401b03811115611bac575f5ffd5b611bb88682850161173a565b60c083015250949350505050565b5f60208284031215611bd6575f5ffd5b6107d5826119b8565b5f60208284031215611bef575f5ffd5b81516001600160a01b0381168114611960575f5ffd5b634e487b7160e01b5f52603260045260245ffd5b5f5f8335601e19843603018112611c2e575f5ffd5b8301803591506001600160401b03821115611c47575f5ffd5b6020019150368190038213156115e2575f5ffd5b5f8383855260208501945060208460051b820101835f5b868110156114c557838303601f19018852813536879003601e19018112611c97575f5ffd5b86016020810190356001600160401b03811115611cb2575f5ffd5b803603821315611cc0575f5ffd5b611ccb858284611967565b60209a8b019a90955093909301925050600101611c72565b87815260a060208201525f611cfc60a08301888a611c5b565b8281036040840152611d0f818789611c5b565b9150506001600160801b0319841660608301526001600160801b03198316608083015298975050505050505050565b5f60208284031215611d4e575f5ffd5b5051919050565b5f81518060208401855e5f93019283525090919050565b5f611d778285611d55565b6101d160f51b81526115796002820185611d5556fe5769744f7261636c655261646f6e52657175657374466163746f72794d6f64616c7344656661756c74a26469706673582212207b60114911319c3f2273baf8440737a8c306f71949e46a05672b8f75d2131cc364736f6c634300081e00335769744f7261636c655261646f6e52657175657374466163746f72794d6f64616c7344656661756c74",
  "immutableReferences": {
    "15651": [
      {
        "length": 32,
        "start": 279
      }
    ],
    "15654": [
      {
        "length": 32,
        "start": 726
      },
      {
        "length": 32,
        "start": 986
      },
      {
        "length": 32,
        "start": 1227
      },
      {
        "length": 32,
        "start": 1388
      },
      {
        "length": 32,
        "start": 1737
      },
      {
        "length": 32,
        "start": 1988
      },
      {
        "length": 32,
        "start": 2165
      },
      {
        "length": 32,
        "start": 2988
      },
      {
        "length": 32,
        "start": 3267
      }
    ],
    "15656": [
      {
        "length": 32,
        "start": 947
      },
      {
        "length": 32,
        "start": 3322
      }
    ],
    "44625": [
      {
        "length": 32,
        "start": 387
      },
      {
        "length": 32,
        "start": 2289
      },
      {
        "length": 32,
        "start": 2419
      },
      {
        "length": 32,
        "start": 3892
      },
      {
        "length": 32,
        "start": 4063
      },
      {
        "length": 32,
        "start": 4237
      }
    ]
  },
  "source": "// SPDX-License-Identifier: MIT\r\n\r\npragma solidity >=0.8.0 <0.9.0;\r\n\r\nimport \"../base/WitOracleRadonRequestFactoryModals.sol\";\r\n\r\n/// @title Factory contract for building IWitOracleRadonRequestModal contracts as light-weight proxies.\r\n/// @author The Witnet Foundation\r\ncontract WitOracleRadonRequestFactoryModalsDefault\r\n    is \r\n        WitOracleRadonRequestFactoryModals\r\n{\r\n    function class() virtual override public view returns (string memory) {\r\n        return (\r\n            initialized() \r\n                ? type(IWitOracleRadonRequestModal).name  \r\n                : type(WitOracleRadonRequestFactoryModalsDefault).name\r\n        );\r\n    }\r\n\r\n    constructor(address _witOracle)\r\n        WitOracleRadonRequestFactoryModals(_witOracle)\r\n    {}\r\n}\r\n",
  "sourcePath": "C:\\Users\\guill\\github\\guidiaz\\witnet-solidity-bridge\\contracts\\core\\trustless\\WitOracleRadonRequestFactoryModalsDefault.sol",
  "compiler": {
    "name": "solc",
    "version": "0.8.30+commit.73712a01.Emscripten.clang"
  },
  "schemaVersion": "3.4.16",
  "updatedAt": "2025-10-10T09:44:15.847Z",
  "networkType": "ethereum",
  "devdoc": {
    "author": "The Witnet Foundation",
    "errors": {
      "InvalidInitialization()": [
        {
          "details": "The contract is already initialized."
        }
      ],
      "NotInitializing()": [
        {
          "details": "The contract is not initializing."
        }
      ]
    },
    "events": {
      "Initialized(uint64)": {
        "details": "Triggered when the contract has been initialized or reinitialized."
      }
    },
    "kind": "dev",
    "methods": {},
    "title": "Factory contract for building IWitOracleRadonRequestModal contracts as light-weight proxies.",
    "version": 1
  },
  "userdoc": {
    "kind": "user",
    "methods": {
      "class()": {
        "notice": "Returns the name of the actual contract implementing the logic of this Witnet appliance."
      },
      "cloned()": {
        "notice": "Tells whether this contract is a clone of `self()`"
      },
      "getCrowdAttestationTally()": {
        "notice": "=============================================================================================================== --- IWitOracleRadonRequestModal -------------------------------------------------------------------------------"
      },
      "initialized()": {
        "notice": "Tells whether a WitOracleRequest or a WitOracleRequestTemplate has been properly initialized."
      },
      "self()": {
        "notice": "Contract address to which clones will be re-directed."
      },
      "specs()": {
        "notice": "Returns the ERC-165 id of the minimal functionality expected for this appliance."
      },
      "witOracle()": {
        "notice": "Reference to the Witnet Request Board that all templates built out from this factory will refer to."
      }
    },
    "version": 1
  }
}