{
  "contractName": "WitOracleRadonRequestFactoryModalsDefault",
  "abi": [
    {
      "inputs": [
        {
          "internalType": "address",
          "name": "_witOracle",
          "type": "address"
        }
      ],
      "stateMutability": "nonpayable",
      "type": "constructor"
    },
    {
      "inputs": [],
      "name": "InvalidInitialization",
      "type": "error"
    },
    {
      "inputs": [],
      "name": "NotInitializing",
      "type": "error"
    },
    {
      "anonymous": false,
      "inputs": [
        {
          "indexed": true,
          "internalType": "address",
          "name": "by",
          "type": "address"
        },
        {
          "indexed": true,
          "internalType": "address",
          "name": "master",
          "type": "address"
        },
        {
          "indexed": true,
          "internalType": "address",
          "name": "clone",
          "type": "address"
        }
      ],
      "name": "Cloned",
      "type": "event"
    },
    {
      "anonymous": false,
      "inputs": [
        {
          "indexed": false,
          "internalType": "uint64",
          "name": "version",
          "type": "uint64"
        }
      ],
      "name": "Initialized",
      "type": "event"
    },
    {
      "inputs": [],
      "name": "base",
      "outputs": [
        {
          "internalType": "address",
          "name": "",
          "type": "address"
        }
      ],
      "stateMutability": "view",
      "type": "function"
    },
    {
      "inputs": [
        {
          "internalType": "string[]",
          "name": "modalArgs",
          "type": "string[]"
        },
        {
          "internalType": "string[]",
          "name": "modalUrls",
          "type": "string[]"
        }
      ],
      "name": "buildRadonRequest",
      "outputs": [
        {
          "internalType": "Witnet.RadonHash",
          "name": "",
          "type": "bytes32"
        }
      ],
      "stateMutability": "nonpayable",
      "type": "function"
    },
    {
      "inputs": [
        {
          "internalType": "bytes32",
          "name": "_commonRetrievalHash",
          "type": "bytes32"
        },
        {
          "internalType": "bytes15",
          "name": "_crowdAttestationTallyHash",
          "type": "bytes15"
        }
      ],
      "name": "buildRadonRequestModalFactory",
      "outputs": [
        {
          "internalType": "contract IWitOracleRadonRequestModalFactory",
          "name": "",
          "type": "address"
        }
      ],
      "stateMutability": "nonpayable",
      "type": "function"
    },
    {
      "inputs": [],
      "name": "cloned",
      "outputs": [
        {
          "internalType": "bool",
          "name": "",
          "type": "bool"
        }
      ],
      "stateMutability": "view",
      "type": "function"
    },
    {
      "inputs": [
        {
          "internalType": "bytes32",
          "name": "_commonRetrievalHash",
          "type": "bytes32"
        },
        {
          "internalType": "bytes15",
          "name": "_crowdAttestationTallyHash",
          "type": "bytes15"
        }
      ],
      "name": "determineAddress",
      "outputs": [
        {
          "internalType": "address",
          "name": "",
          "type": "address"
        }
      ],
      "stateMutability": "view",
      "type": "function"
    },
    {
      "inputs": [],
      "name": "getCrowdAttestationTally",
      "outputs": [
        {
          "components": [
            {
              "internalType": "enum Witnet.RadonReducerMethods",
              "name": "method",
              "type": "uint8"
            },
            {
              "components": [
                {
                  "internalType": "enum Witnet.RadonFilterMethods",
                  "name": "method",
                  "type": "uint8"
                },
                {
                  "internalType": "bytes",
                  "name": "cborArgs",
                  "type": "bytes"
                }
              ],
              "internalType": "struct Witnet.RadonFilter[]",
              "name": "filters",
              "type": "tuple[]"
            }
          ],
          "internalType": "struct Witnet.RadonReducer",
          "name": "",
          "type": "tuple"
        }
      ],
      "stateMutability": "view",
      "type": "function"
    },
    {
      "inputs": [],
      "name": "getDataResultType",
      "outputs": [
        {
          "internalType": "enum Witnet.RadonDataTypes",
          "name": "",
          "type": "uint8"
        }
      ],
      "stateMutability": "view",
      "type": "function"
    },
    {
      "inputs": [
        {
          "internalType": "string",
          "name": "url",
          "type": "string"
        }
      ],
      "name": "getDataSourceArgsCount",
      "outputs": [
        {
          "internalType": "uint8",
          "name": "",
          "type": "uint8"
        }
      ],
      "stateMutability": "view",
      "type": "function"
    },
    {
      "inputs": [],
      "name": "getDataSourceRequest",
      "outputs": [
        {
          "components": [
            {
              "internalType": "enum Witnet.RadonRetrievalMethods",
              "name": "method",
              "type": "uint8"
            },
            {
              "internalType": "string",
              "name": "body",
              "type": "string"
            },
            {
              "internalType": "string[2][]",
              "name": "headers",
              "type": "string[2][]"
            },
            {
              "internalType": "bytes",
              "name": "script",
              "type": "bytes"
            }
          ],
          "internalType": "struct Witnet.DataSourceRequest",
          "name": "",
          "type": "tuple"
        }
      ],
      "stateMutability": "view",
      "type": "function"
    },
    {
      "inputs": [
        {
          "internalType": "bytes32",
          "name": "_commonRetrievalHash",
          "type": "bytes32"
        },
        {
          "internalType": "bytes15",
          "name": "_crowdAttestationTallyHash",
          "type": "bytes15"
        }
      ],
      "name": "initialize",
      "outputs": [
        {
          "internalType": "contract IWitOracleRadonRequestModalFactory",
          "name": "",
          "type": "address"
        }
      ],
      "stateMutability": "nonpayable",
      "type": "function"
    },
    {
      "inputs": [],
      "name": "initialized",
      "outputs": [
        {
          "internalType": "bool",
          "name": "",
          "type": "bool"
        }
      ],
      "stateMutability": "view",
      "type": "function"
    },
    {
      "inputs": [],
      "name": "specs",
      "outputs": [
        {
          "internalType": "bytes4",
          "name": "",
          "type": "bytes4"
        }
      ],
      "stateMutability": "view",
      "type": "function"
    },
    {
      "inputs": [],
      "name": "witOracle",
      "outputs": [
        {
          "internalType": "address",
          "name": "",
          "type": "address"
        }
      ],
      "stateMutability": "view",
      "type": "function"
    },
    {
      "inputs": [],
      "name": "class",
      "outputs": [
        {
          "internalType": "string",
          "name": "",
          "type": "string"
        }
      ],
      "stateMutability": "view",
      "type": "function"
    }
  ],
  "bytecode": "0x61010060405230608052348015610014575f5ffd5b506040516120cf3803806120cf8339810160408190526100339161028f565b806100916001600160a01b0382161580159061005857505f826001600160a01b03163b115b60408051808201909152601581527f696e6578697374656e74205769742f4f7261636c65000000000000000000000060208201526101d1565b6001600160a01b03811660a081905260408051637b10399960e01b81529051637b103999916004808201926020929091908290030181865afa1580156100d9573d5f5f3e3d5ffd5b505050506040513d601f19601f820116820180604052508101906100fd919061028f565b6001600160a01b031660c08190526040805180820182526002815281515f8082526020828101909452637f412e23938301919061015c565b604080518082019091525f8152606060208201528152602001906001900390816101355790505b508152506040518263ffffffff1660e01b815260040161017c91906102f3565b6020604051808303815f875af1158015610198573d5f5f3e3d5ffd5b505050506040513d601f19601f820116820180604052508101906101bc91906103a5565b6001600160801b03191660e0525061040e9050565b816101df576101df816101e3565b5050565b6101eb61022c565b816040516020016101fd9291906103d3565b60408051601f198184030181529082905262461bcd60e51b8252610223916004016103fc565b60405180910390fd5b60606102385f54151590565b61025a5760405180606001604052602981528060200161208460299139905090565b6040518060600160405260228152806020016120ad60229139905090565b6001600160a01b038116811461028c575f5ffd5b50565b5f6020828403121561029f575f5ffd5b81516102aa81610278565b9392505050565b634e487b7160e01b5f52602160045260245ffd5b5f81518084528060208401602086015e5f602082860101526020601f19601f83011685010191505092915050565b602081525f606082018351600c811061030e5761030e6102b1565b80602085015250602084015160408085015281815180845260808601915060808160051b87010193506020830192505f5b8181101561039957868503607f1901835283518051600a8110610364576103646102b1565b80875250602081015190506040602087015261038360408701826102c5565b955050602093840193929092019160010161033f565b50929695505050505050565b5f602082840312156103b5575f5ffd5b5051919050565b5f81518060208401855e5f93019283525090919050565b5f6103de82856103bc565b6101d160f51b81526103f360028201856103bc565b95945050505050565b602081525f6102aa60208301846102c5565b60805160a05160c05160e051611bef6104955f395f61093601525f81816102c301528181610421015281816104c2015281816106d6015281816107d4015281816108ff01528181610a040152610ab801525f61010c01525f818161019801528181610b3401528181610bb601528181610cef01528181610d9a0152610e480152611bef5ff3fe608060405234801561000f575f5ffd5b50600436106100e5575f3560e01c8063666e2c1911610088578063a04daef011610063578063a04daef014610217578063a646ccc11461021f578063adb7c3f714610232578063bff852fa14610253575f5ffd5b8063666e2c19146101bc5780636dbca663146101dd5780637f2b1d7714610202575f5ffd5b806319c7ecfc116100c357806319c7ecfc1461015b57806333749bc11461016e5780634c337d4e146101815780635001f3b514610196575f5ffd5b80630f0adf5b146100e95780631014d37514610107578063158ef93e14610146575b5f5ffd5b6100f1610268565b6040516100fe91906110cd565b60405180910390f35b61012e7f000000000000000000000000000000000000000000000000000000000000000081565b6040516001600160a01b0390911681526020016100fe565b5f5415155b60405190151581526020016100fe565b61012e61016936600461117f565b610350565b61012e61017c36600461117f565b6105b4565b61018961066d565b6040516100fe91906111b9565b7f000000000000000000000000000000000000000000000000000000000000000061012e565b6101cf6101ca3660046112ee565b610793565b6040519081526020016100fe565b6101f06101eb366004611358565b6109ad565b60405160ff90911681526020016100fe565b61020a610a7a565b6040516100fe91906113c4565b61014b610b29565b61012e61022d36600461117f565b610b59565b61023a610c77565b6040516001600160e01b031990911681526020016100fe565b61025b610c95565b6040516100fe91906113de565b604080518082019091525f815260606020820152610284610b29565b6102a95760405162461bcd60e51b81526004016102a0906113f0565b60405180910390fd5b600154604051630d9e7e1960e21b81526001600160a01b037f00000000000000000000000000000000000000000000000000000000000000001691633679f8649161030a9160801b906004016001600160801b031991909116815260200190565b5f60405180830381865afa158015610324573d5f5f3e3d5ffd5b505050506040513d5f823e601f3d908101601f1916820160405261034b9190810190611548565b905090565b7ff0c57e16840df040f15088dc2f81fe391c3923bec73e23a9662efc9c229c6a0080545f9190600160401b810460ff1615906001600160401b031683811580156103975750825b90505f826001600160401b031660011480156103b25750303b155b9050811580156103c0575080155b156103de5760405163f92ee8a960e01b815260040160405180910390fd5b845467ffffffffffffffff19166001178555831561040857845460ff60401b1916600160401b1785555b60405163b4ab01a560e01b8152600481018990526001907f00000000000000000000000000000000000000000000000000000000000000006001600160a01b03169063b4ab01a590602401602060405180830381865afa15801561046e573d5f5f3e3d5ffd5b505050506040513d601f19601f8201168201806040525081019061049291906116b1565b60ff1610156104a3576104a36116ca565b604051631114f43760e11b81526001600160881b0319881660048201527f00000000000000000000000000000000000000000000000000000000000000006001600160a01b031690632229e86e90602401602060405180830381865afa15801561050f573d5f5f3e3d5ffd5b505050506040513d601f19601f8201168201806040525081019061053391906116de565b505f889055600180546001600160801b031916608089901c6fffffffffffffffffffffffffffffff001617905530955083156105a957845460ff60401b19168555604051600181527fc7f505b2f371ae2175ee4913f4499e1f2633a7b5936321eed1cdaeb6115181d29060200160405180910390a15b505050505092915050565b5f6105bd610b29565b156105da5760405162461bcd60e51b81526004016102a0906116fd565b6105ec6105e78484610ce1565b610d51565b604051630671fb3f60e21b8152600481018590526001600160881b0319841660248201526001600160a01b0391909116906319c7ecfc906044016020604051808303815f875af1158015610642573d5f5f3e3d5ffd5b505050506040513d601f19601f820116820180604052508101906106669190611734565b9392505050565b6106986040805160808101909152805f81526020016060815260200160608152602001606081525090565b6106a0610b29565b6106bc5760405162461bcd60e51b81526004016102a0906113f0565b5f8054604051639dd4875760e01b815260048101919091527f00000000000000000000000000000000000000000000000000000000000000006001600160a01b031690639dd48757906024015f60405180830381865afa158015610722573d5f5f3e3d5ffd5b505050506040513d5f823e601f3d908101601f19168201604052610749919081019061185b565b905060405180608001604052808260200151600481111561076c5761076c61108b565b8152602001826080015181526020018260a0015181526020018260c0015181525091505090565b5f61079c610b29565b6107b85760405162461bcd60e51b81526004016102a0906113f0565b5f805460405163b4ab01a560e01b8152600481018290529091907f00000000000000000000000000000000000000000000000000000000000000006001600160a01b03169063b4ab01a590602401602060405180830381865afa158015610821573d5f5f3e3d5ffd5b505050506040513d601f19601f8201168201806040525081019061084591906116b1565b90505f5b848110156108e4576108dc876108aa6108a489898681811061086d5761086d611976565b905060200281019061087f919061198a565b6040516020016108909291906119f4565b604051602081830303815290604052610eac565b8561101d565b60ff16146040518060400160405280601081526020016f6d69736d61746368696e67206172677360801b815250611039565b600101610849565b506001546040516303e9120960e21b81526001600160a01b037f00000000000000000000000000000000000000000000000000000000000000001691630fa44824916109629186918c918c918c918c917f00000000000000000000000000000000000000000000000000000000000000009160801b90600401611aa3565b6020604051808303815f875af115801561097e573d5f5f3e3d5ffd5b505050506040513d601f19601f820116820180604052508101906109a29190611afe565b979650505050505050565b5f6109b6610b29565b6109d25760405162461bcd60e51b81526004016102a0906113f0565b6106666109eb84846040516020016108909291906119f4565b5f5460405163b4ab01a560e01b815260048101919091527f00000000000000000000000000000000000000000000000000000000000000006001600160a01b03169063b4ab01a590602401602060405180830381865afa158015610a51573d5f5f3e3d5ffd5b505050506040513d601f19601f82011682018060405250810190610a7591906116b1565b61101d565b5f610a83610b29565b610a9f5760405162461bcd60e51b81526004016102a0906113f0565b5f54604051635072a99b60e11b815260048101919091527f00000000000000000000000000000000000000000000000000000000000000006001600160a01b03169063a0e5533690602401602060405180830381865afa158015610b05573d5f5f3e3d5ffd5b505050506040513d601f19601f8201168201806040525081019061034b9190611b15565b306001600160a01b037f000000000000000000000000000000000000000000000000000000000000000016141590565b5f610b62610b29565b15610b7f5760405162461bcd60e51b81526004016102a0906116fd565b6001600160f81b031930610b938585610ce1565b60408051733d602d80600a3d3981f3363d3d373d3d3d363d7360601b60208201527f000000000000000000000000000000000000000000000000000000000000000060601b6001600160601b03191660348201526e5af43d82803e903d91602b57fd5bf360881b60488201528151808203603701815260579091019091528051602091820120604051610c5895949392016001600160f81b031994909416845260609290921b6001600160601b03191660018401526015830152603582015260550190565b60408051601f1981840301815291905280516020909101209392505050565b5f8054610c8957506295325760e81b90565b506327d4e66d60e01b90565b6060610ca15f54151590565b610cc357604051806060016040526029815280602001611b6f60299139905090565b604051806060016040526022815280602001611b9860229139905090565b6040516001600160601b03197f000000000000000000000000000000000000000000000000000000000000000060601b166020820152603481018390526001600160881b0319821660548201525f9060630160405160208183030381529060405280519060200120905092915050565b5f610d5a610b29565b15610d775760405162461bcd60e51b81526004016102a0906116fd565b5f610ddc604051733d602d80600a3d3981f3363d3d373d3d3d363d7360601b81527f000000000000000000000000000000000000000000000000000000000000000060601b60148201526e5af43d82803e903d91602b57fd5bf360881b602882015290565b9050826037825ff591506001600160a01b038216610e3c5760405162461bcd60e51b815260206004820152601860248201527f436c6f6e61626c653a2043524541544532206661696c6564000000000000000060448201526064016102a0565b6001600160a01b0382167f00000000000000000000000000000000000000000000000000000000000000006001600160a01b0316336001600160a01b03167ff376596be5039d6b2fb36fead4c8a370eae426e790a869be8db074ab608cc24860405160405180910390a450919050565b5f600382511015610ebe57505f919050565b81515f90600119015b8082101561101657601760fa1b6001600160f81b031916848381518110610ef057610ef0611976565b01602001516001600160f81b031916148015610f3c5750601760fa1b6001600160f81b031916848360020181518110610f2b57610f2b611976565b01602001516001600160f81b031916145b8015610f795750600360fc1b6001600160f81b031916848360010181518110610f6757610f67611976565b01602001516001600160f81b03191610155b8015610fb65750603960f81b6001600160f81b031916848360010181518110610fa457610fa4611976565b01602001516001600160f81b03191611155b1561100b575f600360fc1b60f81c858460010181518110610fd957610fd9611976565b602001015160f81c60f81b60f81c0360010190508360ff168160ff161115610fff578093505b60038301925050610ec7565b600190910190610ec7565b5050919050565b5f8160ff168360ff1610156110325781610666565b5090919050565b81611047576110478161104b565b5050565b611053610c95565b81604051602001611065929190611b45565b60408051601f198184030181529082905262461bcd60e51b82526102a0916004016113de565b634e487b7160e01b5f52602160045260245ffd5b5f81518084528060208401602086015e5f602082860101526020601f19601f83011685010191505092915050565b602081525f606082018351600c81106110e8576110e861108b565b80602085015250602084015160408085015281815180845260808601915060808160051b87010193506020830192505f5b8181101561117357868503607f1901835283518051600a811061113e5761113e61108b565b80875250602081015190506040602087015261115d604087018261109f565b9550506020938401939290920191600101611119565b50929695505050505050565b5f5f60408385031215611190575f5ffd5b8235915060208301356001600160881b0319811681146111ae575f5ffd5b809150509250929050565b602081525f8251600581106111d0576111d061108b565b806020840152506020830151608060408401526111f060a084018261109f565b6040850151848203601f19016060860152805180835291925060209081019181840191600582901b8501015f5b8281101561127d57858203601f19018452845182604081015f5b600281101561126557858203835261125082855161109f565b60209485019493909301929150600101611237565b5060209788019796909601959350505060010161121d565b506060880151878203601f19016080890152945061129b818661109f565b98975050505050505050565b5f5f83601f8401126112b7575f5ffd5b5081356001600160401b038111156112cd575f5ffd5b6020830191508360208260051b85010111156112e7575f5ffd5b9250929050565b5f5f5f5f60408587031215611301575f5ffd5b84356001600160401b03811115611316575f5ffd5b611322878288016112a7565b90955093505060208501356001600160401b03811115611340575f5ffd5b61134c878288016112a7565b95989497509550505050565b5f5f60208385031215611369575f5ffd5b82356001600160401b0381111561137e575f5ffd5b8301601f8101851361138e575f5ffd5b80356001600160401b038111156113a3575f5ffd5b8560208284010111156113b4575f5ffd5b6020919091019590945092505050565b60208101601483106113d8576113d861108b565b91905290565b602081525f610666602083018461109f565b60208082526018908201527f436c6f6e61626c653a206f6e6c79206f6e20636c6f6e65730000000000000000604082015260600190565b634e487b7160e01b5f52604160045260245ffd5b604080519081016001600160401b038111828210171561145d5761145d611427565b60405290565b60405160e081016001600160401b038111828210171561145d5761145d611427565b604051601f8201601f191681016001600160401b03811182821017156114ad576114ad611427565b604052919050565b5f6001600160401b038211156114cd576114cd611427565b5060051b60200190565b5f82601f8301126114e6575f5ffd5b8151602083015f5f6001600160401b0384111561150557611505611427565b50601f8301601f191660200161151a81611485565b91505082815285838301111561152e575f5ffd5b8282602083015e5f92810160200192909252509392505050565b5f60208284031215611558575f5ffd5b81516001600160401b0381111561156d575f5ffd5b82016040818503121561157e575f5ffd5b61158661143b565b8151600c8110611594575f5ffd5b815260208201516001600160401b038111156115ae575f5ffd5b80830192505084601f8301126115c2575f5ffd5b81516115d56115d0826114b5565b611485565b8082825260208201915060208360051b8601019250878311156115f6575f5ffd5b602085015b8381101561168b5780516001600160401b03811115611618575f5ffd5b86016040818b03601f1901121561162d575f5ffd5b61163561143b565b6020820151600a8110611646575f5ffd5b815260408201516001600160401b03811115611660575f5ffd5b61166f8c6020838601016114d7565b60208301525080855250506020830192506020810190506115fb565b506020840152509095945050505050565b805160ff811681146116ac575f5ffd5b919050565b5f602082840312156116c1575f5ffd5b6106668261169c565b634e487b7160e01b5f52600160045260245ffd5b5f602082840312156116ee575f5ffd5b81518015158114610666575f5ffd5b60208082526017908201527f436c6f6e61626c653a206e6f74206f6e20636c6f6e6573000000000000000000604082015260600190565b5f60208284031215611744575f5ffd5b81516001600160a01b0381168114610666575f5ffd5b8051600581106116ac575f5ffd5b8051601481106116ac575f5ffd5b5f82601f830112611785575f5ffd5b81516117936115d0826114b5565b8082825260208201915060208360051b8601019250858311156117b4575f5ffd5b602085015b838110156118515780516001600160401b038111156117d6575f5ffd5b8601603f810188136117e6575f5ffd5b6117ee61143b565b80606083018a8111156117ff575f5ffd5b602084015b8181101561183f5780516001600160401b03811115611821575f5ffd5b6118308d6020838901016114d7565b85525060209384019301611804565b505085525050602092830192016117b9565b5095945050505050565b5f6020828403121561186b575f5ffd5b81516001600160401b03811115611880575f5ffd5b820160e08185031215611891575f5ffd5b611899611463565b6118a28261169c565b81526118b06020830161175a565b60208201526118c160408301611768565b604082015260608201516001600160401b038111156118de575f5ffd5b6118ea868285016114d7565b60608301525060808201516001600160401b03811115611908575f5ffd5b611914868285016114d7565b60808301525060a08201516001600160401b03811115611932575f5ffd5b61193e86828501611776565b60a08301525060c08201516001600160401b0381111561195c575f5ffd5b611968868285016114d7565b60c083015250949350505050565b634e487b7160e01b5f52603260045260245ffd5b5f5f8335601e1984360301811261199f575f5ffd5b8301803591506001600160401b038211156119b8575f5ffd5b6020019150368190038213156112e7575f5ffd5b81835281816020850137505f828201602090810191909152601f909101601f19169091010190565b602081525f611a076020830184866119cc565b949350505050565b5f8383855260208501945060208460051b820101835f5b86811015611a9757838303601f19018852813536879003601e19018112611a4b575f5ffd5b86016020810190356001600160401b03811115611a66575f5ffd5b803603821315611a74575f5ffd5b611a7f8582846119cc565b60209a8b019a90955093909301925050600101611a26565b50909695505050505050565b87815260a060208201525f611abc60a08301888a611a0f565b8281036040840152611acf818789611a0f565b9150506001600160801b0319841660608301526001600160801b03198316608083015298975050505050505050565b5f60208284031215611b0e575f5ffd5b5051919050565b5f60208284031215611b25575f5ffd5b61066682611768565b5f81518060208401855e5f93019283525090919050565b5f611b508285611b2e565b6101d160f51b8152611b656002820185611b2e565b9594505050505056fe5769744f7261636c655261646f6e52657175657374466163746f72794d6f64616c7344656661756c74495769744f7261636c655261646f6e526571756573744d6f64616c466163746f7279a2646970667358221220507ab5698a628e51387d79fbedce169347b88c60c494c8866166e089330bce3464736f6c634300081e00335769744f7261636c655261646f6e52657175657374466163746f72794d6f64616c7344656661756c74495769744f7261636c655261646f6e526571756573744d6f64616c466163746f7279",
  "immutableReferences": {
    "16709": [
      {
        "length": 32,
        "start": 268
      }
    ],
    "16712": [
      {
        "length": 32,
        "start": 707
      },
      {
        "length": 32,
        "start": 1057
      },
      {
        "length": 32,
        "start": 1218
      },
      {
        "length": 32,
        "start": 1750
      },
      {
        "length": 32,
        "start": 2004
      },
      {
        "length": 32,
        "start": 2303
      },
      {
        "length": 32,
        "start": 2564
      },
      {
        "length": 32,
        "start": 2744
      }
    ],
    "16714": [
      {
        "length": 32,
        "start": 2358
      }
    ],
    "47536": [
      {
        "length": 32,
        "start": 408
      },
      {
        "length": 32,
        "start": 2868
      },
      {
        "length": 32,
        "start": 2998
      },
      {
        "length": 32,
        "start": 3311
      },
      {
        "length": 32,
        "start": 3482
      },
      {
        "length": 32,
        "start": 3656
      }
    ]
  },
  "source": "// SPDX-License-Identifier: MIT\r\n\r\npragma solidity >=0.8.0 <0.9.0;\r\n\r\nimport \"../base/WitOracleRadonRequestFactoryModals.sol\";\r\n\r\n/// @title Factory contract for building IWitOracleRadonRequestModal contracts as light-weight proxies.\r\n/// @author The Witnet Foundation\r\ncontract WitOracleRadonRequestFactoryModalsDefault\r\n    is \r\n        WitOracleRadonRequestFactoryModals\r\n{\r\n    function class() virtual override public view returns (string memory) {\r\n        return (\r\n            initialized() \r\n                ? type(IWitOracleRadonRequestModalFactory).name  \r\n                : type(WitOracleRadonRequestFactoryModalsDefault).name\r\n        );\r\n    }\r\n\r\n    constructor(address _witOracle)\r\n        WitOracleRadonRequestFactoryModals(_witOracle)\r\n    {}\r\n}\r\n",
  "compiler": {
    "name": "solc",
    "version": "0.8.30+commit.73712a01.Emscripten.clang"
  },
  "schemaVersion": "3.4.16",
  "updatedAt": "2025-12-11T08:13:15.543Z",
  "devdoc": {
    "author": "The Witnet Foundation",
    "errors": {
      "InvalidInitialization()": [
        {
          "details": "The contract is already initialized."
        }
      ],
      "NotInitializing()": [
        {
          "details": "The contract is not initializing."
        }
      ]
    },
    "events": {
      "Initialized(uint64)": {
        "details": "Triggered when the contract has been initialized or reinitialized."
      }
    },
    "kind": "dev",
    "methods": {
      "buildRadonRequest(string[],string[])": {
        "details": "Reverts if the ranks of passed array don't fulfill the actual number of required parameters."
      }
    },
    "title": "Factory contract for building IWitOracleRadonRequestModal contracts as light-weight proxies.",
    "version": 1
  },
  "userdoc": {
    "kind": "user",
    "methods": {
      "buildRadonRequest(string[],string[])": {
        "notice": "Build a new Radon Request by repeating the factory's data source request as many times as the number of provided `modalUrls`, replacing on each resulting data source the specified `modalArgs` parameters, and the factory's  crowd-attestation Radon Reducer. The returned identifier will be accepted as a valid RAD hash on the witOracle() contract from now on. "
      },
      "class()": {
        "notice": "Returns the name of the actual contract implementing the logic of this Witnet appliance."
      },
      "cloned()": {
        "notice": "Tells whether this contract is a clone of `self()`"
      },
      "getCrowdAttestationTally()": {
        "notice": "Returns the Radon Reducer applied upon tally of values revealed by witnessing nodes in Witnet."
      },
      "getDataResultType()": {
        "notice": "Returns the expected data type upon sucessfull resolution of Radon Request built out of this factory."
      },
      "getDataSourceArgsCount(string)": {
        "notice": "Returns the number of expected parameters of the underlying Data Source Request."
      },
      "getDataSourceRequest()": {
        "notice": "Returns the underlying Data Source Request used by this factory to build new Radon Requests."
      },
      "initialized()": {
        "notice": "Tells whether a WitOracleRequest or a WitOracleRequestTemplate has been properly initialized."
      },
      "specs()": {
        "notice": "Returns the ERC-165 id of the minimal functionality expected for this appliance."
      },
      "witOracle()": {
        "notice": "Reference to the Witnet Request Board that all templates built out from this factory will refer to."
      }
    },
    "version": 1
  }
}