{
  "contractName": "WitOracleRadonRequestFactoryTemplatesDefault",
  "abi": [
    {
      "inputs": [
        {
          "internalType": "address",
          "name": "_witOracle",
          "type": "address"
        }
      ],
      "stateMutability": "nonpayable",
      "type": "constructor"
    },
    {
      "inputs": [],
      "name": "InvalidInitialization",
      "type": "error"
    },
    {
      "inputs": [],
      "name": "NotInitializing",
      "type": "error"
    },
    {
      "anonymous": false,
      "inputs": [
        {
          "indexed": true,
          "internalType": "address",
          "name": "by",
          "type": "address"
        },
        {
          "indexed": true,
          "internalType": "address",
          "name": "master",
          "type": "address"
        },
        {
          "indexed": true,
          "internalType": "address",
          "name": "clone",
          "type": "address"
        }
      ],
      "name": "Cloned",
      "type": "event"
    },
    {
      "anonymous": false,
      "inputs": [
        {
          "indexed": false,
          "internalType": "uint64",
          "name": "version",
          "type": "uint64"
        }
      ],
      "name": "Initialized",
      "type": "event"
    },
    {
      "inputs": [],
      "name": "base",
      "outputs": [
        {
          "internalType": "address",
          "name": "",
          "type": "address"
        }
      ],
      "stateMutability": "view",
      "type": "function"
    },
    {
      "inputs": [
        {
          "internalType": "string[][]",
          "name": "templateArgs",
          "type": "string[][]"
        }
      ],
      "name": "buildRadonRequest",
      "outputs": [
        {
          "internalType": "Witnet.RadonHash",
          "name": "",
          "type": "bytes32"
        }
      ],
      "stateMutability": "nonpayable",
      "type": "function"
    },
    {
      "inputs": [
        {
          "internalType": "bytes32[]",
          "name": "_dataRetrieveHashes",
          "type": "bytes32[]"
        },
        {
          "internalType": "bytes15",
          "name": "_dataSourcesAggregatorHash",
          "type": "bytes15"
        },
        {
          "internalType": "bytes15",
          "name": "_crowdAttestationTallyHash",
          "type": "bytes15"
        }
      ],
      "name": "buildRadonRequestTemplateFactory",
      "outputs": [
        {
          "internalType": "contract IWitOracleRadonRequestTemplateFactory",
          "name": "",
          "type": "address"
        }
      ],
      "stateMutability": "nonpayable",
      "type": "function"
    },
    {
      "inputs": [],
      "name": "cloned",
      "outputs": [
        {
          "internalType": "bool",
          "name": "",
          "type": "bool"
        }
      ],
      "stateMutability": "view",
      "type": "function"
    },
    {
      "inputs": [
        {
          "internalType": "bytes32[]",
          "name": "_dataRetrieveHashes",
          "type": "bytes32[]"
        },
        {
          "internalType": "bytes15",
          "name": "_dataSourcesAggregatorHash",
          "type": "bytes15"
        },
        {
          "internalType": "bytes15",
          "name": "_crowdAttestationTallyHash",
          "type": "bytes15"
        }
      ],
      "name": "determineAddress",
      "outputs": [
        {
          "internalType": "address",
          "name": "",
          "type": "address"
        }
      ],
      "stateMutability": "view",
      "type": "function"
    },
    {
      "inputs": [],
      "name": "getArgsCount",
      "outputs": [
        {
          "internalType": "uint8[]",
          "name": "",
          "type": "uint8[]"
        }
      ],
      "stateMutability": "view",
      "type": "function"
    },
    {
      "inputs": [],
      "name": "getCrowdAttestationTally",
      "outputs": [
        {
          "components": [
            {
              "internalType": "enum Witnet.RadonReducerMethods",
              "name": "method",
              "type": "uint8"
            },
            {
              "components": [
                {
                  "internalType": "enum Witnet.RadonFilterMethods",
                  "name": "method",
                  "type": "uint8"
                },
                {
                  "internalType": "bytes",
                  "name": "cborArgs",
                  "type": "bytes"
                }
              ],
              "internalType": "struct Witnet.RadonFilter[]",
              "name": "filters",
              "type": "tuple[]"
            }
          ],
          "internalType": "struct Witnet.RadonReducer",
          "name": "",
          "type": "tuple"
        }
      ],
      "stateMutability": "view",
      "type": "function"
    },
    {
      "inputs": [],
      "name": "getDataResultType",
      "outputs": [
        {
          "internalType": "enum Witnet.RadonDataTypes",
          "name": "",
          "type": "uint8"
        }
      ],
      "stateMutability": "view",
      "type": "function"
    },
    {
      "inputs": [],
      "name": "getDataSources",
      "outputs": [
        {
          "components": [
            {
              "internalType": "string",
              "name": "url",
              "type": "string"
            },
            {
              "components": [
                {
                  "internalType": "enum Witnet.RadonRetrievalMethods",
                  "name": "method",
                  "type": "uint8"
                },
                {
                  "internalType": "string",
                  "name": "body",
                  "type": "string"
                },
                {
                  "internalType": "string[2][]",
                  "name": "headers",
                  "type": "string[2][]"
                },
                {
                  "internalType": "bytes",
                  "name": "script",
                  "type": "bytes"
                }
              ],
              "internalType": "struct Witnet.DataSourceRequest",
              "name": "request",
              "type": "tuple"
            }
          ],
          "internalType": "struct Witnet.DataSource[]",
          "name": "_dataSources",
          "type": "tuple[]"
        }
      ],
      "stateMutability": "view",
      "type": "function"
    },
    {
      "inputs": [],
      "name": "getDataSourcesAggregator",
      "outputs": [
        {
          "components": [
            {
              "internalType": "enum Witnet.RadonReducerMethods",
              "name": "method",
              "type": "uint8"
            },
            {
              "components": [
                {
                  "internalType": "enum Witnet.RadonFilterMethods",
                  "name": "method",
                  "type": "uint8"
                },
                {
                  "internalType": "bytes",
                  "name": "cborArgs",
                  "type": "bytes"
                }
              ],
              "internalType": "struct Witnet.RadonFilter[]",
              "name": "filters",
              "type": "tuple[]"
            }
          ],
          "internalType": "struct Witnet.RadonReducer",
          "name": "",
          "type": "tuple"
        }
      ],
      "stateMutability": "view",
      "type": "function"
    },
    {
      "inputs": [
        {
          "internalType": "bytes32[]",
          "name": "_dataRetrieveHashes",
          "type": "bytes32[]"
        },
        {
          "internalType": "bytes15",
          "name": "_dataSourcesAggregatorHash",
          "type": "bytes15"
        },
        {
          "internalType": "bytes15",
          "name": "_crowdAttestationTallyHash",
          "type": "bytes15"
        }
      ],
      "name": "initialize",
      "outputs": [
        {
          "internalType": "contract IWitOracleRadonRequestTemplateFactory",
          "name": "",
          "type": "address"
        }
      ],
      "stateMutability": "nonpayable",
      "type": "function"
    },
    {
      "inputs": [],
      "name": "initialized",
      "outputs": [
        {
          "internalType": "bool",
          "name": "",
          "type": "bool"
        }
      ],
      "stateMutability": "view",
      "type": "function"
    },
    {
      "inputs": [],
      "name": "specs",
      "outputs": [
        {
          "internalType": "bytes4",
          "name": "",
          "type": "bytes4"
        }
      ],
      "stateMutability": "view",
      "type": "function"
    },
    {
      "inputs": [],
      "name": "witOracle",
      "outputs": [
        {
          "internalType": "address",
          "name": "",
          "type": "address"
        }
      ],
      "stateMutability": "view",
      "type": "function"
    },
    {
      "inputs": [],
      "name": "class",
      "outputs": [
        {
          "internalType": "string",
          "name": "",
          "type": "string"
        }
      ],
      "stateMutability": "view",
      "type": "function"
    }
  ],
  "bytecode": "0x60e060405230608052348015610013575f5ffd5b506040516121fc3803806121fc833981016040819052610032916101cf565b806100906001600160a01b0382161580159061005757505f826001600160a01b03163b115b60408051808201909152601581527f696e6578697374656e74205769742f4f7261636c6500000000000000000000006020820152610110565b6001600160a01b03811660a081905260408051637b10399960e01b81529051637b103999916004808201926020929091908290030181865afa1580156100d8573d5f5f3e3d5ffd5b505050506040513d601f19601f820116820180604052508101906100fc91906101cf565b6001600160a01b031660c052506102669050565b8161011e5761011e81610122565b5050565b61012a61016b565b8160405160200161013c929190610208565b60408051601f198184030181529082905262461bcd60e51b825261016291600401610231565b60405180910390fd5b6060610178600254151590565b61019a5760405180606001604052602c8152806020016121ab602c9139905090565b6040518060600160405260258152806020016121d760259139905090565b6001600160a01b03811681146101cc575f5ffd5b50565b5f602082840312156101df575f5ffd5b81516101ea816101b8565b9392505050565b5f81518060208401855e5f93019283525090919050565b5f61021382856101f1565b6101d160f51b815261022860028201856101f1565b95945050505050565b602081525f82518060208401528060208501604085015e5f604082850101526040601f19601f83011684010191505092915050565b60805160a05160c051611ec06102eb5f395f81816102e101528181610412015281816104a3015281816105240152818161062f015281816106db0152818161092b01528181610a450152610dbe01525f61011701525f81816101cd01528181610beb01528181610ce701528181610fb80152818161105801526111060152611ec05ff3fe608060405234801561000f575f5ffd5b50600436106100f0575f3560e01c80634bc837d311610093578063a04daef011610063578063a04daef014610219578063adb7c3f714610221578063bc04eba814610242578063bff852fa14610257575f5ffd5b80634bc837d3146101b85780635001f3b5146101cb5780635613166e146101f15780637f2b1d7714610204575f5ffd5b806313152e89116100ce57806313152e891461016457806313620d8f1461016c578063158ef93e14610181578063240b482c14610197575f5ffd5b80630f0adf5b146100f45780631014d3751461011257806311f46c7614610151575b5f5ffd5b6100fc61026c565b6040516101099190611247565b60405180910390f35b6101397f000000000000000000000000000000000000000000000000000000000000000081565b6040516001600160a01b039091168152602001610109565b61013961015f36600461135c565b610352565b6100fc6108d9565b610174610972565b60405161010991906113bc565b60025415155b6040519015158152602001610109565b6101aa6101a5366004611401565b610a06565b604051908152602001610109565b6101396101c636600461135c565b610ad8565b7f0000000000000000000000000000000000000000000000000000000000000000610139565b6101396101ff36600461135c565b610b8c565b61020c610cae565b604051610109919061143f565b610187610cdc565b610229610d0c565b6040516001600160e01b03199091168152602001610109565b61024a610d34565b6040516101099190611459565b61025f610eee565b60405161010991906115ab565b604080518082019091525f815260606020820152610288610cdc565b6102ad5760405162461bcd60e51b81526004016102a4906115bd565b60405180910390fd5b600354604051630d9e7e1960e21b8152600160801b90910460801b6001600160801b03191660048201526001600160a01b037f00000000000000000000000000000000000000000000000000000000000000001690633679f864906024015b5f60405180830381865afa158015610326573d5f5f3e3d5ffd5b505050506040513d5f823e601f3d908101601f1916820160405261034d9190810190611715565b905090565b5f5f61035c610f3b565b805490915060ff600160401b82041615906001600160401b03165f811580156103825750825b90505f826001600160401b0316600114801561039d5750303b155b9050811580156103ab575080155b156103c95760405163f92ee8a960e01b815260040160405180910390fd5b845467ffffffffffffffff1916600117855583156103f357845460ff60401b1916600160401b1785555b604051631114f43760e11b81526001600160881b0319891660048201527f00000000000000000000000000000000000000000000000000000000000000006001600160a01b031690632229e86e90602401602060405180830381865afa15801561045f573d5f5f3e3d5ffd5b505050506040513d601f19601f820116820180604052508101906104839190611869565b50604051631114f43760e11b81526001600160881b0319881660048201527f00000000000000000000000000000000000000000000000000000000000000006001600160a01b031690632229e86e90602401602060405180830381865afa1580156104f0573d5f5f3e3d5ffd5b505050506040513d601f19601f820116820180604052508101906105149190611869565b505f80805b8b8110156107e5575f7f00000000000000000000000000000000000000000000000000000000000000006001600160a01b031663b4ab01a58f8f858181106105635761056361188f565b905060200201356040518263ffffffff1660e01b815260040161058891815260200190565b602060405180830381865afa1580156105a3573d5f5f3e3d5ffd5b505050506040513d601f19601f820116820180604052508101906105c791906118b3565b6001805480820182555f91909152602081047fb10e2d527612073b26eecdfd717e6a320cf44b4afac2b0732d9fcbe2b7fa0cf601805460ff808516601f9094166101000a84810291021990911617905590915061062490856118cc565b9350815f036106d9577f00000000000000000000000000000000000000000000000000000000000000006001600160a01b031663a0e553368f8f5f81811061066e5761066e61188f565b905060200201356040518263ffffffff1660e01b815260040161069391815260200190565b602060405180830381865afa1580156106ae573d5f5f3e3d5ffd5b505050506040513d601f19601f820116820180604052508101906106d291906118f9565b92506107dc565b7f00000000000000000000000000000000000000000000000000000000000000006001600160a01b031663a0e553368f8f8581811061071a5761071a61188f565b905060200201356040518263ffffffff1660e01b815260040161073f91815260200190565b602060405180830381865afa15801561075a573d5f5f3e3d5ffd5b505050506040513d601f19601f8201168201806040525081019061077e91906118f9565b601381111561078f5761078f611205565b8360138111156107a1576107a1611205565b146107dc576107dc604051806040016040528060158152602001746d69737479706564206461746120736f757263657360581b815250610f63565b50600101610519565b5061082960018310156040518060400160405280601c81526020017f756e706172616d65746572697a6564206461746120736f757263657300000000815250610fa3565b61083560028d8d61116a565b50608089811c6fffffffffffffffffffffffffffffff00908116600160801b02918c901c16176003555f805482919060ff1916600183601381111561087c5761087c611205565b0217905550309750505083156108cc57845460ff60401b19168555604051600181527fc7f505b2f371ae2175ee4913f4499e1f2633a7b5936321eed1cdaeb6115181d29060200160405180910390a15b5050505050949350505050565b604080518082019091525f8152606060208201526108f5610cdc565b6109115760405162461bcd60e51b81526004016102a4906115bd565b600354604051630d9e7e1960e21b81526001600160a01b037f00000000000000000000000000000000000000000000000000000000000000001691633679f8649161030c9160801b906004016001600160801b031991909116815260200190565b606061097c610cdc565b6109985760405162461bcd60e51b81526004016102a4906115bd565b60018054604080516020808402820181019092528281529291908301828280156109fc57602002820191905f5260205f20905f905b825461010083900a900460ff168152602060019283018181049485019490930390920291018084116109cd5790505b5050505050905090565b5f610a0f610cdc565b610a2b5760405162461bcd60e51b81526004016102a4906115bd565b6003546040516321177c7b60e21b81526001600160a01b037f0000000000000000000000000000000000000000000000000000000000000000169163845df1ec91610a8f9160029188918891608082811b92600160801b9004901b906004016119ce565b6020604051808303815f875af1158015610aab573d5f5f3e3d5ffd5b505050506040513d601f19601f82011682018060405250810190610acf9190611ada565b90505b92915050565b5f610ae1610cdc565b15610afe5760405162461bcd60e51b81526004016102a490611af1565b610b12610b0d86868686610fb5565b61100f565b6001600160a01b03166311f46c76868686866040518563ffffffff1660e01b8152600401610b439493929190611b28565b6020604051808303815f875af1158015610b5f573d5f5f3e3d5ffd5b505050506040513d601f19601f82011682018060405250810190610b839190611b76565b95945050505050565b5f610b95610cdc565b15610bb25760405162461bcd60e51b81526004016102a490611af1565b6001600160f81b031930610bc887878787610fb5565b60408051733d602d80600a3d3981f3363d3d373d3d3d363d7360601b60208201527f000000000000000000000000000000000000000000000000000000000000000060601b6001600160601b03191660348201526e5af43d82803e903d91602b57fd5bf360881b60488201528151808203603701815260579091019091528051602091820120604051610c8d95949392016001600160f81b031994909416845260609290921b6001600160601b03191660018401526015830152603582015260550190565b60408051601f19818403018152919052805160209091012095945050505050565b5f610cb7610cdc565b610cd35760405162461bcd60e51b81526004016102a4906115bd565b505f5460ff1690565b306001600160a01b037f000000000000000000000000000000000000000000000000000000000000000016141590565b5f610d18600254151590565b610d285750631ddb21bd60e01b90565b5063f84d91db60e01b90565b6060610d3e610cdc565b610d5a5760405162461bcd60e51b81526004016102a4906115bd565b6002546001600160401b03811115610d7457610d746115f4565b604051908082528060200260200182016040528015610dad57816020015b610d9a6111af565b815260200190600190039081610d925790505b5090505f5b8151811015610eea575f7f00000000000000000000000000000000000000000000000000000000000000006001600160a01b0316639dd487575f6002018481548110610e0057610e0061188f565b905f5260205f2001546040518263ffffffff1660e01b8152600401610e2791815260200190565b5f60405180830381865afa158015610e41573d5f5f3e3d5ffd5b505050506040513d5f823e601f3d908101601f19168201604052610e689190810190611c8f565b9050604051806040016040528082606001518152602001604051806080016040528084602001516004811115610ea057610ea0611205565b8152602001846080015181526020018460a0015181526020018460c00151815250815250838381518110610ed657610ed661188f565b602090810291909101015250600101610db2565b5090565b6060610efb600254151590565b610f1d5760405180606001604052602c815280602001611e3a602c9139905090565b604051806060016040526025815280602001611e6660259139905090565b5f807ff0c57e16840df040f15088dc2f81fe391c3923bec73e23a9662efc9c229c6a00610ad2565b610f6b610eee565b81604051602001610f7d929190611dc1565b60408051601f198184030181529082905262461bcd60e51b82526102a4916004016115ab565b81610fb157610fb181610f63565b5050565b5f7f000000000000000000000000000000000000000000000000000000000000000085858585604051602001610fef959493929190611de1565b604051602081830303815290604052805190602001209050949350505050565b5f611018610cdc565b156110355760405162461bcd60e51b81526004016102a490611af1565b5f61109a604051733d602d80600a3d3981f3363d3d373d3d3d363d7360601b81527f000000000000000000000000000000000000000000000000000000000000000060601b60148201526e5af43d82803e903d91602b57fd5bf360881b602882015290565b9050826037825ff591506001600160a01b0382166110fa5760405162461bcd60e51b815260206004820152601860248201527f436c6f6e61626c653a2043524541544532206661696c6564000000000000000060448201526064016102a4565b6001600160a01b0382167f00000000000000000000000000000000000000000000000000000000000000006001600160a01b0316336001600160a01b03167ff376596be5039d6b2fb36fead4c8a370eae426e790a869be8db074ab608cc24860405160405180910390a450919050565b828054828255905f5260205f209081019282156111a3579160200282015b828111156111a3578235825591602001919060010190611188565b50610eea9291506111f1565b6040518060400160405280606081526020016111ec6040805160808101909152805f81526020016060815260200160608152602001606081525090565b905290565b5b80821115610eea575f81556001016111f2565b634e487b7160e01b5f52602160045260245ffd5b5f81518084528060208401602086015e5f602082860101526020601f19601f83011685010191505092915050565b602081525f606082018351600c811061126257611262611205565b80602085015250602084015160408085015281815180845260808601915060808160051b87010193506020830192505f5b818110156112ed57868503607f1901835283518051600a81106112b8576112b8611205565b8087525060208101519050604060208701526112d76040870182611219565b9550506020938401939290920191600101611293565b50929695505050505050565b5f5f83601f840112611309575f5ffd5b5081356001600160401b0381111561131f575f5ffd5b6020830191508360208260051b8501011115611339575f5ffd5b9250929050565b80356001600160881b031981168114611357575f5ffd5b919050565b5f5f5f5f6060858703121561136f575f5ffd5b84356001600160401b03811115611384575f5ffd5b611390878288016112f9565b90955093506113a3905060208601611340565b91506113b160408601611340565b905092959194509250565b602080825282518282018190525f918401906040840190835b818110156113f657835160ff168352602093840193909201916001016113d5565b509095945050505050565b5f5f60208385031215611412575f5ffd5b82356001600160401b03811115611427575f5ffd5b611433858286016112f9565b90969095509350505050565b602081016014831061145357611453611205565b91905290565b5f602082016020835280845180835260408501915060408160051b8601019250602086015f5b828110156112ed57603f1987860301845281518051604087526114a56040880182611219565b90506020820151915086810360208801528151600581106114c8576114c8611205565b808252506020820151608060208301526114e56080830182611219565b90506040830151828203604084015281815180845260208401915060208160051b8501016020840193505f5b8281101561157157858203601f19018452845182604081015f5b6002811015611559578582038352611544828551611219565b6020948501949390930192915060010161152b565b50602097880197969096019593505050600101611511565b5060608701519650858103606087015261158b8188611219565b9b505050505050505060208201915060208401935060018101905061147f565b602081525f610acf6020830184611219565b60208082526018908201527f436c6f6e61626c653a206f6e6c79206f6e20636c6f6e65730000000000000000604082015260600190565b634e487b7160e01b5f52604160045260245ffd5b604080519081016001600160401b038111828210171561162a5761162a6115f4565b60405290565b60405160e081016001600160401b038111828210171561162a5761162a6115f4565b604051601f8201601f191681016001600160401b038111828210171561167a5761167a6115f4565b604052919050565b5f6001600160401b0382111561169a5761169a6115f4565b5060051b60200190565b5f82601f8301126116b3575f5ffd5b8151602083015f5f6001600160401b038411156116d2576116d26115f4565b50601f8301601f19166020016116e781611652565b9150508281528583830111156116fb575f5ffd5b8282602083015e5f92810160200192909252509392505050565b5f60208284031215611725575f5ffd5b81516001600160401b0381111561173a575f5ffd5b82016040818503121561174b575f5ffd5b611753611608565b8151600c8110611761575f5ffd5b815260208201516001600160401b0381111561177b575f5ffd5b80830192505084601f83011261178f575f5ffd5b81516117a261179d82611682565b611652565b8082825260208201915060208360051b8601019250878311156117c3575f5ffd5b602085015b838110156118585780516001600160401b038111156117e5575f5ffd5b86016040818b03601f190112156117fa575f5ffd5b611802611608565b6020820151600a8110611813575f5ffd5b815260408201516001600160401b0381111561182d575f5ffd5b61183c8c6020838601016116a4565b60208301525080855250506020830192506020810190506117c8565b506020840152509095945050505050565b5f60208284031215611879575f5ffd5b81518015158114611888575f5ffd5b9392505050565b634e487b7160e01b5f52603260045260245ffd5b805160ff81168114611357575f5ffd5b5f602082840312156118c3575f5ffd5b610acf826118a3565b80820180821115610ad257634e487b7160e01b5f52601160045260245ffd5b805160148110611357575f5ffd5b5f60208284031215611909575f5ffd5b610acf826118eb565b81835281816020850137505f828201602090810191909152601f909101601f19169091010190565b5f8383855260208501945060208460051b820101835f5b868110156119c257838303601f19018852813536879003601e19018112611976575f5ffd5b86016020810190356001600160401b03811115611991575f5ffd5b80360382131561199f575f5ffd5b6119aa858284611912565b60209a8b019a90955093909301925050600101611951565b50909695505050505050565b608080825286549082018190525f87815260208120909160a0840190835b81811015611a0a5783548352600193840193602090930192016119ec565b5050838103602085015280915086815260208101915060208760051b820101885f601e198b3603015b8a821015611aa357848403601f190186528235818112611a51575f5ffd5b8c016020810190356001600160401b03811115611a6c575f5ffd5b8060051b3603821315611a7d575f5ffd5b611a8886828461193a565b95505050602083019250602086019550600182019150611a33565b5050506001600160801b0319871660408601529250611ac0915050565b6001600160801b0319831660608301529695505050505050565b5f60208284031215611aea575f5ffd5b5051919050565b60208082526017908201527f436c6f6e61626c653a206e6f74206f6e20636c6f6e6573000000000000000000604082015260600190565b606080825281018490525f6001600160fb1b03851115611b46575f5ffd5b8460051b808760808501376001600160881b03199485166020840152929093166040820152016080019392505050565b5f60208284031215611b86575f5ffd5b81516001600160a01b0381168114611888575f5ffd5b805160058110611357575f5ffd5b5f82601f830112611bb9575f5ffd5b8151611bc761179d82611682565b8082825260208201915060208360051b860101925085831115611be8575f5ffd5b602085015b83811015611c855780516001600160401b03811115611c0a575f5ffd5b8601603f81018813611c1a575f5ffd5b611c22611608565b80606083018a811115611c33575f5ffd5b602084015b81811015611c735780516001600160401b03811115611c55575f5ffd5b611c648d6020838901016116a4565b85525060209384019301611c38565b50508552505060209283019201611bed565b5095945050505050565b5f60208284031215611c9f575f5ffd5b81516001600160401b03811115611cb4575f5ffd5b820160e08185031215611cc5575f5ffd5b611ccd611630565b611cd6826118a3565b8152611ce460208301611b9c565b6020820152611cf5604083016118eb565b604082015260608201516001600160401b03811115611d12575f5ffd5b611d1e868285016116a4565b60608301525060808201516001600160401b03811115611d3c575f5ffd5b611d48868285016116a4565b60808301525060a08201516001600160401b03811115611d66575f5ffd5b611d7286828501611baa565b60a08301525060c08201516001600160401b03811115611d90575f5ffd5b611d9c868285016116a4565b60c083015250949350505050565b5f81518060208401855e5f93019283525090919050565b5f611dcc8285611daa565b6101d160f51b8152610b836002820185611daa565b606086901b6001600160601b03191681525f6001600160fb1b03851115611e06575f5ffd5b8460051b808760148501376001600160881b0319948516601493909101928301525091166023820152603201939250505056fe5769744f7261636c655261646f6e52657175657374466163746f727954656d706c6174657344656661756c74495769744f7261636c655261646f6e5265717565737454656d706c617465466163746f7279a26469706673582212202b5b26b1e15d4a576761ccc088d6f7189619629f5657b0f349b292f4033e241864736f6c634300081e00335769744f7261636c655261646f6e52657175657374466163746f727954656d706c6174657344656661756c74495769744f7261636c655261646f6e5265717565737454656d706c617465466163746f7279",
  "immutableReferences": {
    "17160": [
      {
        "length": 32,
        "start": 279
      }
    ],
    "17163": [
      {
        "length": 32,
        "start": 737
      },
      {
        "length": 32,
        "start": 1042
      },
      {
        "length": 32,
        "start": 1187
      },
      {
        "length": 32,
        "start": 1316
      },
      {
        "length": 32,
        "start": 1583
      },
      {
        "length": 32,
        "start": 1755
      },
      {
        "length": 32,
        "start": 2347
      },
      {
        "length": 32,
        "start": 2629
      },
      {
        "length": 32,
        "start": 3518
      }
    ],
    "47536": [
      {
        "length": 32,
        "start": 461
      },
      {
        "length": 32,
        "start": 3051
      },
      {
        "length": 32,
        "start": 3303
      },
      {
        "length": 32,
        "start": 4024
      },
      {
        "length": 32,
        "start": 4184
      },
      {
        "length": 32,
        "start": 4358
      }
    ]
  },
  "source": "// SPDX-License-Identifier: MIT\r\n\r\npragma solidity >=0.8.0 <0.9.0;\r\n\r\nimport \"../base/WitOracleRadonRequestFactoryTemplates.sol\";\r\n\r\n/// @title Factory contract for building IWitOracleRadonRequestTemplate contracts as light-weight proxies.\r\n/// @author The Witnet Foundation\r\ncontract WitOracleRadonRequestFactoryTemplatesDefault\r\n    is \r\n        WitOracleRadonRequestFactoryTemplates\r\n{\r\n    function class() virtual override public view  returns (string memory) {\r\n        return (\r\n            initialized() \r\n                ? type(IWitOracleRadonRequestTemplateFactory).name  \r\n                : type(WitOracleRadonRequestFactoryTemplatesDefault).name\r\n        );\r\n    }\r\n\r\n    constructor(address _witOracle)\r\n        WitOracleRadonRequestFactoryTemplates(_witOracle)\r\n    {}\r\n}\r\n",
  "compiler": {
    "name": "solc",
    "version": "0.8.30+commit.73712a01.Emscripten.clang"
  },
  "schemaVersion": "3.4.16",
  "updatedAt": "2025-12-11T08:13:15.557Z",
  "devdoc": {
    "author": "The Witnet Foundation",
    "errors": {
      "InvalidInitialization()": [
        {
          "details": "The contract is already initialized."
        }
      ],
      "NotInitializing()": [
        {
          "details": "The contract is not initializing."
        }
      ]
    },
    "events": {
      "Initialized(uint64)": {
        "details": "Triggered when the contract has been initialized or reinitialized."
      }
    },
    "kind": "dev",
    "methods": {
      "buildRadonRequest(string[][])": {
        "details": "Reverts if the ranks of passed array don't fulfill the actual number of required parameters."
      }
    },
    "title": "Factory contract for building IWitOracleRadonRequestTemplate contracts as light-weight proxies.",
    "version": 1
  },
  "userdoc": {
    "kind": "user",
    "methods": {
      "buildRadonRequest(string[][])": {
        "notice": "Build a new Radon Request by replacing the `templateArgs` into the factory's data sources, and the factory's aggregate and tally Radon Reducers. The returned identifier will be accepted as a valid RAD hash on the witOracle() contract from now on. "
      },
      "class()": {
        "notice": "Returns the name of the actual contract implementing the logic of this Witnet appliance."
      },
      "cloned()": {
        "notice": "Tells whether this contract is a clone of `self()`"
      },
      "getArgsCount()": {
        "notice": "Returns an array containing the number of arguments expected for each data source."
      },
      "getCrowdAttestationTally()": {
        "notice": "Returns the Radon Reducer applied upon tally of values revealed by witnessing nodes in Witnet."
      },
      "getDataResultType()": {
        "notice": "Returns the expected data type upon sucessfull resolution of Radon Request built out of this factory."
      },
      "getDataSources()": {
        "notice": "Returns the underlying Data Sources used by this factory to build new Radon Requests."
      },
      "getDataSourcesAggregator()": {
        "notice": "Returns the Radon Reducer applied to data collected from each data source upon each query resolution. "
      },
      "initialized()": {
        "notice": "Tells whether a WitOracleRequest or a WitOracleRequestTemplate has been properly initialized."
      },
      "specs()": {
        "notice": "Returns the ERC-165 id of the minimal functionality expected for this appliance."
      },
      "witOracle()": {
        "notice": "The Wit/Oracle core address where the Radon Requests built out of this factory will be bound to. "
      }
    },
    "version": 1
  }
}