{
  "_format": "hh3-artifact-1",
  "contractName": "WitOracleRadonRequestFactoryTemplatesDefault",
  "sourceName": "contracts/core/trustless/WitOracleRadonRequestFactoryTemplatesDefault.sol",
  "abi": [
    {
      "inputs": [
        {
          "internalType": "address",
          "name": "_witOracle",
          "type": "address"
        }
      ],
      "stateMutability": "nonpayable",
      "type": "constructor"
    },
    {
      "inputs": [],
      "name": "InvalidInitialization",
      "type": "error"
    },
    {
      "inputs": [],
      "name": "NotInitializing",
      "type": "error"
    },
    {
      "anonymous": false,
      "inputs": [
        {
          "indexed": true,
          "internalType": "address",
          "name": "by",
          "type": "address"
        },
        {
          "indexed": true,
          "internalType": "address",
          "name": "master",
          "type": "address"
        },
        {
          "indexed": true,
          "internalType": "address",
          "name": "clone",
          "type": "address"
        }
      ],
      "name": "Cloned",
      "type": "event"
    },
    {
      "anonymous": false,
      "inputs": [
        {
          "indexed": false,
          "internalType": "uint64",
          "name": "version",
          "type": "uint64"
        }
      ],
      "name": "Initialized",
      "type": "event"
    },
    {
      "inputs": [],
      "name": "base",
      "outputs": [
        {
          "internalType": "address",
          "name": "",
          "type": "address"
        }
      ],
      "stateMutability": "view",
      "type": "function"
    },
    {
      "inputs": [
        {
          "internalType": "bytes32[]",
          "name": "_dataRetrieveHashes",
          "type": "bytes32[]"
        },
        {
          "internalType": "bytes15",
          "name": "_dataSourcesAggregatorHash",
          "type": "bytes15"
        },
        {
          "internalType": "bytes15",
          "name": "_crowdAttestationTallyHash",
          "type": "bytes15"
        }
      ],
      "name": "buildRadonRequestTemplate",
      "outputs": [
        {
          "internalType": "contract IWitOracleRadonRequestTemplate",
          "name": "",
          "type": "address"
        }
      ],
      "stateMutability": "nonpayable",
      "type": "function"
    },
    {
      "inputs": [],
      "name": "class",
      "outputs": [
        {
          "internalType": "string",
          "name": "",
          "type": "string"
        }
      ],
      "stateMutability": "view",
      "type": "function"
    },
    {
      "inputs": [],
      "name": "cloned",
      "outputs": [
        {
          "internalType": "bool",
          "name": "",
          "type": "bool"
        }
      ],
      "stateMutability": "view",
      "type": "function"
    },
    {
      "inputs": [
        {
          "internalType": "bytes32[]",
          "name": "_dataRetrieveHashes",
          "type": "bytes32[]"
        },
        {
          "internalType": "bytes15",
          "name": "_dataSourcesAggregatorHash",
          "type": "bytes15"
        },
        {
          "internalType": "bytes15",
          "name": "_crowdAttestationTallyHash",
          "type": "bytes15"
        }
      ],
      "name": "determineAddress",
      "outputs": [
        {
          "internalType": "address",
          "name": "",
          "type": "address"
        }
      ],
      "stateMutability": "view",
      "type": "function"
    },
    {
      "inputs": [],
      "name": "getArgsCount",
      "outputs": [
        {
          "internalType": "uint8[]",
          "name": "",
          "type": "uint8[]"
        }
      ],
      "stateMutability": "view",
      "type": "function"
    },
    {
      "inputs": [],
      "name": "getCrowdAttestationTally",
      "outputs": [
        {
          "components": [
            {
              "internalType": "enum Witnet.RadonReduceOpcodes",
              "name": "opcode",
              "type": "uint8"
            },
            {
              "components": [
                {
                  "internalType": "enum Witnet.RadonFilterOpcodes",
                  "name": "opcode",
                  "type": "uint8"
                },
                {
                  "internalType": "bytes",
                  "name": "cborArgs",
                  "type": "bytes"
                }
              ],
              "internalType": "struct Witnet.RadonFilter[]",
              "name": "filters",
              "type": "tuple[]"
            }
          ],
          "internalType": "struct Witnet.RadonReducer",
          "name": "",
          "type": "tuple"
        }
      ],
      "stateMutability": "view",
      "type": "function"
    },
    {
      "inputs": [],
      "name": "getDataResultType",
      "outputs": [
        {
          "internalType": "enum Witnet.RadonDataTypes",
          "name": "",
          "type": "uint8"
        }
      ],
      "stateMutability": "view",
      "type": "function"
    },
    {
      "inputs": [],
      "name": "getDataSources",
      "outputs": [
        {
          "components": [
            {
              "internalType": "uint8",
              "name": "argsCount",
              "type": "uint8"
            },
            {
              "internalType": "enum Witnet.RadonRetrievalMethods",
              "name": "method",
              "type": "uint8"
            },
            {
              "internalType": "enum Witnet.RadonDataTypes",
              "name": "dataType",
              "type": "uint8"
            },
            {
              "internalType": "string",
              "name": "url",
              "type": "string"
            },
            {
              "internalType": "string",
              "name": "body",
              "type": "string"
            },
            {
              "internalType": "string[2][]",
              "name": "headers",
              "type": "string[2][]"
            },
            {
              "internalType": "bytes",
              "name": "radonScript",
              "type": "bytes"
            }
          ],
          "internalType": "struct Witnet.RadonRetrieval[]",
          "name": "_dataSources",
          "type": "tuple[]"
        }
      ],
      "stateMutability": "view",
      "type": "function"
    },
    {
      "inputs": [],
      "name": "getDataSourcesAggregator",
      "outputs": [
        {
          "components": [
            {
              "internalType": "enum Witnet.RadonReduceOpcodes",
              "name": "opcode",
              "type": "uint8"
            },
            {
              "components": [
                {
                  "internalType": "enum Witnet.RadonFilterOpcodes",
                  "name": "opcode",
                  "type": "uint8"
                },
                {
                  "internalType": "bytes",
                  "name": "cborArgs",
                  "type": "bytes"
                }
              ],
              "internalType": "struct Witnet.RadonFilter[]",
              "name": "filters",
              "type": "tuple[]"
            }
          ],
          "internalType": "struct Witnet.RadonReducer",
          "name": "",
          "type": "tuple"
        }
      ],
      "stateMutability": "view",
      "type": "function"
    },
    {
      "inputs": [
        {
          "internalType": "bytes32[]",
          "name": "_dataRetrieveHashes",
          "type": "bytes32[]"
        },
        {
          "internalType": "bytes15",
          "name": "_dataSourcesAggregatorHash",
          "type": "bytes15"
        },
        {
          "internalType": "bytes15",
          "name": "_crowdAttestationTallyHash",
          "type": "bytes15"
        }
      ],
      "name": "initialize",
      "outputs": [
        {
          "internalType": "contract IWitOracleRadonRequestTemplate",
          "name": "",
          "type": "address"
        }
      ],
      "stateMutability": "nonpayable",
      "type": "function"
    },
    {
      "inputs": [],
      "name": "initialized",
      "outputs": [
        {
          "internalType": "bool",
          "name": "",
          "type": "bool"
        }
      ],
      "stateMutability": "view",
      "type": "function"
    },
    {
      "inputs": [],
      "name": "specs",
      "outputs": [
        {
          "internalType": "bytes4",
          "name": "",
          "type": "bytes4"
        }
      ],
      "stateMutability": "view",
      "type": "function"
    },
    {
      "inputs": [
        {
          "internalType": "string[][]",
          "name": "args",
          "type": "string[][]"
        }
      ],
      "name": "verifyRadonRequest",
      "outputs": [
        {
          "internalType": "Witnet.RadonHash",
          "name": "",
          "type": "bytes32"
        }
      ],
      "stateMutability": "nonpayable",
      "type": "function"
    },
    {
      "inputs": [],
      "name": "witOracle",
      "outputs": [
        {
          "internalType": "address",
          "name": "",
          "type": "address"
        }
      ],
      "stateMutability": "view",
      "type": "function"
    }
  ],
  "bytecode": "0x60e060405230608052348015610013575f5ffd5b506040516122e83803806122e8833981016040819052610032916101e9565b806100906001600160a01b0382161580159061005757505f826001600160a01b03163b115b60408051808201909152601581527f696e6578697374656e74205769742f4f7261636c6500000000000000000000006020820152610110565b6001600160a01b03811660a081905260408051637b10399960e01b81529051637b103999916004808201926020929091908290030181865afa1580156100d8573d5f5f3e3d5ffd5b505050506040513d601f19601f820116820180604052508101906100fc91906101e9565b6001600160a01b031660c052506102809050565b8161011e5761011e81610122565b5050565b61012a61016b565b8160405160200161013c929190610222565b60408051601f198184030181529082905262461bcd60e51b82526101629160040161024b565b60405180910390fd5b6060610178600254151590565b61019a5760405180606001604052602c8152806020016122bc602c9139905090565b5060408051808201909152601e81527f495769744f7261636c655261646f6e5265717565737454656d706c6174650000602082015290565b6001600160a01b03811681146101e6575f5ffd5b50565b5f602082840312156101f9575f5ffd5b8151610204816101d2565b9392505050565b5f81518060208401855e5f93019283525090919050565b5f61022d828561020b565b6101d160f51b8152610242600282018561020b565b95945050505050565b602081525f82518060208401528060208501604085015e5f604082850101526040601f19601f83011684010191505092915050565b60805160a05160c051611f7f61033d5f395f818161032f01528181610460015281816104f1015281816105720152818161067d015281816107290152818161099d01528181610d690152610e9f01525f61011701525f81816101ac015281816101e7015281816102b401528181610945015281816109f001528181610aa801528181610b4801528181610c1601528181610c9101528181610e4701528181610fa5015281816111170152818161119201526112400152611f7f5ff3fe608060405234801561000f575f5ffd5b50600436106100f0575f3560e01c80637104ddb211610093578063bc04eba811610063578063bc04eba814610238578063bf7a0bd31461024d578063bff852fa1461026e578063dccf450a14610283575f5ffd5b80637104ddb2146101aa5780637f2b1d77146101d0578063a04daef0146101e5578063adb7c3f714610217575f5ffd5b806313152e89116100ce57806313152e891461016457806313620d8f1461016c578063158ef93e146101815780635613166e14610197575f5ffd5b80630f0adf5b146100f45780631014d3751461011257806311f46c7614610151575b5f5ffd5b6100fc610296565b604051610109919061133a565b60405180910390f35b6101397f000000000000000000000000000000000000000000000000000000000000000081565b6040516001600160a01b039091168152602001610109565b61013961015f36600461144f565b6103a0565b6100fc610927565b6101746109e4565b60405161010991906114af565b60025415155b6040519015158152602001610109565b6101396101a536600461144f565b610a9c565b7f0000000000000000000000000000000000000000000000000000000000000000610139565b6101d8610c0b565b6040516101099190611508565b7f00000000000000000000000000000000000000000000000000000000000000006001600160a01b0316301415610187565b61021f610c5d565b6040516001600160e01b03199091168152602001610109565b610240610c85565b60405161010991906115af565b61026061025b366004611694565b610e3c565b604051908152602001610109565b610276610f32565b60405161010991906116d2565b61013961029136600461144f565b610f99565b604080518082019091525f8152606060208201526001600160a01b037f00000000000000000000000000000000000000000000000000000000000000001630036102fb5760405162461bcd60e51b81526004016102f2906116e4565b60405180910390fd5b600354604051630d9e7e1960e21b8152600160801b90910460801b6001600160801b03191660048201526001600160a01b037f00000000000000000000000000000000000000000000000000000000000000001690633679f864906024015b5f60405180830381865afa158015610374573d5f5f3e3d5ffd5b505050506040513d5f823e601f3d908101601f1916820160405261039b919081019061183c565b905090565b5f5f6103aa61109a565b805490915060ff600160401b82041615906001600160401b03165f811580156103d05750825b90505f826001600160401b031660011480156103eb5750303b155b9050811580156103f9575080155b156104175760405163f92ee8a960e01b815260040160405180910390fd5b845467ffffffffffffffff19166001178555831561044157845460ff60401b1916600160401b1785555b604051631114f43760e11b81526001600160881b0319891660048201527f00000000000000000000000000000000000000000000000000000000000000006001600160a01b031690632229e86e90602401602060405180830381865afa1580156104ad573d5f5f3e3d5ffd5b505050506040513d601f19601f820116820180604052508101906104d19190611990565b50604051631114f43760e11b81526001600160881b0319881660048201527f00000000000000000000000000000000000000000000000000000000000000006001600160a01b031690632229e86e90602401602060405180830381865afa15801561053e573d5f5f3e3d5ffd5b505050506040513d601f19601f820116820180604052508101906105629190611990565b505f80805b8b811015610833575f7f00000000000000000000000000000000000000000000000000000000000000006001600160a01b031663b4ab01a58f8f858181106105b1576105b16119b6565b905060200201356040518263ffffffff1660e01b81526004016105d691815260200190565b602060405180830381865afa1580156105f1573d5f5f3e3d5ffd5b505050506040513d601f19601f8201168201806040525081019061061591906119da565b6001805480820182555f91909152602081047fb10e2d527612073b26eecdfd717e6a320cf44b4afac2b0732d9fcbe2b7fa0cf601805460ff808516601f9094166101000a84810291021990911617905590915061067290856119f3565b9350815f03610727577f00000000000000000000000000000000000000000000000000000000000000006001600160a01b031663a0e553368f8f5f8181106106bc576106bc6119b6565b905060200201356040518263ffffffff1660e01b81526004016106e191815260200190565b602060405180830381865afa1580156106fc573d5f5f3e3d5ffd5b505050506040513d601f19601f820116820180604052508101906107209190611a20565b925061082a565b7f00000000000000000000000000000000000000000000000000000000000000006001600160a01b031663a0e553368f8f85818110610768576107686119b6565b905060200201356040518263ffffffff1660e01b815260040161078d91815260200190565b602060405180830381865afa1580156107a8573d5f5f3e3d5ffd5b505050506040513d601f19601f820116820180604052508101906107cc9190611a20565b60138111156107dd576107dd6112f8565b8360138111156107ef576107ef6112f8565b1461082a5761082a604051806040016040528060158152602001746d69737479706564206461746120736f757263657360581b8152506110c2565b50600101610567565b5061087760018310156040518060400160405280601c81526020017f756e706172616d65746572697a6564206461746120736f757263657300000000815250611102565b61088360028d8d6112a4565b50608089811c6fffffffffffffffffffffffffffffff00908116600160801b02918c901c16176003555f805482919060ff191660018360138111156108ca576108ca6112f8565b02179055503097505050831561091a57845460ff60401b19168555604051600181527fc7f505b2f371ae2175ee4913f4499e1f2633a7b5936321eed1cdaeb6115181d29060200160405180910390a15b5050505050949350505050565b604080518082019091525f8152606060208201526001600160a01b037f00000000000000000000000000000000000000000000000000000000000000001630036109835760405162461bcd60e51b81526004016102f2906116e4565b600354604051630d9e7e1960e21b81526001600160a01b037f00000000000000000000000000000000000000000000000000000000000000001691633679f8649161035a9160801b906004016001600160801b031991909116815260200190565b60606001600160a01b037f0000000000000000000000000000000000000000000000000000000000000000163003610a2e5760405162461bcd60e51b81526004016102f2906116e4565b6001805460408051602080840282018101909252828152929190830182828015610a9257602002820191905f5260205f20905f905b825461010083900a900460ff16815260206001928301818104948501949093039092029101808411610a635790505b5050505050905090565b5f306001600160a01b037f00000000000000000000000000000000000000000000000000000000000000001614610b0f5760405162461bcd60e51b8152602060048201526017602482015276436c6f6e61626c653a206e6f74206f6e20636c6f6e657360481b60448201526064016102f2565b6001600160f81b031930610b2587878787611114565b60408051733d602d80600a3d3981f3363d3d373d3d3d363d7360601b60208201527f000000000000000000000000000000000000000000000000000000000000000060601b6001600160601b03191660348201526e5af43d82803e903d91602b57fd5bf360881b60488201528151808203603701815260579091019091528051602091820120604051610bea95949392016001600160f81b031994909416845260609290921b6001600160601b03191660018401526015830152603582015260550190565b60408051601f19818403018152919052805160209091012095945050505050565b5f6001600160a01b037f0000000000000000000000000000000000000000000000000000000000000000163003610c545760405162461bcd60e51b81526004016102f2906116e4565b505f5460ff1690565b5f610c69600254151590565b610c7957506322b714d960e21b90565b506318cf348960e21b90565b60606001600160a01b037f0000000000000000000000000000000000000000000000000000000000000000163003610ccf5760405162461bcd60e51b81526004016102f2906116e4565b6002546001600160401b03811115610ce957610ce961171b565b604051908082528060200260200182016040528015610d5957816020015b610d466040805160e081019091525f808252602082019081526020015f8152602001606081526020016060815260200160608152602001606081525090565b815260200190600190039081610d075790505b5090505f5b8151811015610e38577f00000000000000000000000000000000000000000000000000000000000000006001600160a01b0316639dd487575f6002018381548110610dab57610dab6119b6565b905f5260205f2001546040518263ffffffff1660e01b8152600401610dd291815260200190565b5f60405180830381865afa158015610dec573d5f5f3e3d5ffd5b505050506040513d5f823e601f3d908101601f19168201604052610e139190810190611b2c565b828281518110610e2557610e256119b6565b6020908102919091010152600101610d5e565b5090565b5f6001600160a01b037f0000000000000000000000000000000000000000000000000000000000000000163003610e855760405162461bcd60e51b81526004016102f2906116e4565b60035460405163dbc218ef60e01b81526001600160a01b037f0000000000000000000000000000000000000000000000000000000000000000169163dbc218ef91610ee99160029188918891608082811b92600160801b9004901b90600401611cf7565b6020604051808303815f875af1158015610f05573d5f5f3e3d5ffd5b505050506040513d601f19601f82011682018060405250810190610f299190611e03565b90505b92915050565b6060610f3f600254151590565b610f615760405180606001604052602c815280602001611f1e602c9139905090565b5060408051808201909152601e81527f495769744f7261636c655261646f6e5265717565737454656d706c6174650000602082015290565b5f306001600160a01b037f0000000000000000000000000000000000000000000000000000000000000000161461100c5760405162461bcd60e51b8152602060048201526017602482015276436c6f6e61626c653a206e6f74206f6e20636c6f6e657360481b60448201526064016102f2565b61102061101b86868686611114565b61116e565b6001600160a01b03166311f46c76868686866040518563ffffffff1660e01b81526004016110519493929190611e1a565b6020604051808303815f875af115801561106d573d5f5f3e3d5ffd5b505050506040513d601f19601f820116820180604052508101906110919190611e68565b95945050505050565b5f807ff0c57e16840df040f15088dc2f81fe391c3923bec73e23a9662efc9c229c6a00610f2c565b6110ca610f32565b816040516020016110dc929190611ea5565b60408051601f198184030181529082905262461bcd60e51b82526102f2916004016116d2565b8161111057611110816110c2565b5050565b5f7f00000000000000000000000000000000000000000000000000000000000000008585858560405160200161114e959493929190611ec5565b604051602081830303815290604052805190602001209050949350505050565b5f5f6111d4604051733d602d80600a3d3981f3363d3d373d3d3d363d7360601b81527f000000000000000000000000000000000000000000000000000000000000000060601b60148201526e5af43d82803e903d91602b57fd5bf360881b602882015290565b9050826037825ff591506001600160a01b0382166112345760405162461bcd60e51b815260206004820152601860248201527f436c6f6e61626c653a2043524541544532206661696c6564000000000000000060448201526064016102f2565b6001600160a01b0382167f00000000000000000000000000000000000000000000000000000000000000006001600160a01b0316336001600160a01b03167ff376596be5039d6b2fb36fead4c8a370eae426e790a869be8db074ab608cc24860405160405180910390a450919050565b828054828255905f5260205f209081019282156112dd579160200282015b828111156112dd5782358255916020019190600101906112c2565b50610e389291505b80821115610e38575f81556001016112e5565b634e487b7160e01b5f52602160045260245ffd5b5f81518084528060208401602086015e5f602082860101526020601f19601f83011685010191505092915050565b602081525f606082018351600c8110611355576113556112f8565b80602085015250602084015160408085015281815180845260808601915060808160051b87010193506020830192505f5b818110156113e057868503607f1901835283518051600a81106113ab576113ab6112f8565b8087525060208101519050604060208701526113ca604087018261130c565b9550506020938401939290920191600101611386565b50929695505050505050565b5f5f83601f8401126113fc575f5ffd5b5081356001600160401b03811115611412575f5ffd5b6020830191508360208260051b850101111561142c575f5ffd5b9250929050565b80356001600160881b03198116811461144a575f5ffd5b919050565b5f5f5f5f60608587031215611462575f5ffd5b84356001600160401b03811115611477575f5ffd5b611483878288016113ec565b9095509350611496905060208601611433565b91506114a460408601611433565b905092959194509250565b602080825282518282018190525f918401906040840190835b818110156114e957835160ff168352602093840193909201916001016114c8565b509095945050505050565b60148110611504576115046112f8565b9052565b60208101610f2c82846114f4565b60058110611504576115046112f8565b5f82825180855260208501945060208160051b830101602085015f5b838110156115a357848303601f19018852815183604081015f5b600281101561158a57868203835261157582855161130c565b6020948501949390930192915060010161155c565b5060209a8b019a90955093909301925050600101611542565b50909695505050505050565b5f602082016020835280845180835260408501915060408160051b8601019250602086015f5b828110156113e057603f19878603018452815160ff815116865260208101516116016020880182611516565b50604081015161161460408801826114f4565b50606081015160e0606088015261162e60e088018261130c565b905060808201518782036080890152611647828261130c565b91505060a082015187820360a08901526116618282611526565b91505060c0820151915086810360c088015261167d818361130c565b9650505060209384019391909101906001016115d5565b5f5f602083850312156116a5575f5ffd5b82356001600160401b038111156116ba575f5ffd5b6116c6858286016113ec565b90969095509350505050565b602081525f610f29602083018461130c565b6020808252601d908201527f436c6f6e61626c653a206e6f7420612064656c65676174652063616c6c000000604082015260600190565b634e487b7160e01b5f52604160045260245ffd5b604080519081016001600160401b03811182821017156117515761175161171b565b60405290565b60405160e081016001600160401b03811182821017156117515761175161171b565b604051601f8201601f191681016001600160401b03811182821017156117a1576117a161171b565b604052919050565b5f6001600160401b038211156117c1576117c161171b565b5060051b60200190565b5f82601f8301126117da575f5ffd5b8151602083015f5f6001600160401b038411156117f9576117f961171b565b50601f8301601f191660200161180e81611779565b915050828152858383011115611822575f5ffd5b8282602083015e5f92810160200192909252509392505050565b5f6020828403121561184c575f5ffd5b81516001600160401b03811115611861575f5ffd5b820160408185031215611872575f5ffd5b61187a61172f565b8151600c8110611888575f5ffd5b815260208201516001600160401b038111156118a2575f5ffd5b80830192505084601f8301126118b6575f5ffd5b81516118c96118c4826117a9565b611779565b8082825260208201915060208360051b8601019250878311156118ea575f5ffd5b602085015b8381101561197f5780516001600160401b0381111561190c575f5ffd5b86016040818b03601f19011215611921575f5ffd5b61192961172f565b6020820151600a811061193a575f5ffd5b815260408201516001600160401b03811115611954575f5ffd5b6119638c6020838601016117cb565b60208301525080855250506020830192506020810190506118ef565b506020840152509095945050505050565b5f602082840312156119a0575f5ffd5b815180151581146119af575f5ffd5b9392505050565b634e487b7160e01b5f52603260045260245ffd5b805160ff8116811461144a575f5ffd5b5f602082840312156119ea575f5ffd5b610f29826119ca565b80820180821115610f2c57634e487b7160e01b5f52601160045260245ffd5b80516014811061144a575f5ffd5b5f60208284031215611a30575f5ffd5b610f2982611a12565b80516005811061144a575f5ffd5b5f82601f830112611a56575f5ffd5b8151611a646118c4826117a9565b8082825260208201915060208360051b860101925085831115611a85575f5ffd5b602085015b83811015611b225780516001600160401b03811115611aa7575f5ffd5b8601603f81018813611ab7575f5ffd5b611abf61172f565b80606083018a811115611ad0575f5ffd5b602084015b81811015611b105780516001600160401b03811115611af2575f5ffd5b611b018d6020838901016117cb565b85525060209384019301611ad5565b50508552505060209283019201611a8a565b5095945050505050565b5f60208284031215611b3c575f5ffd5b81516001600160401b03811115611b51575f5ffd5b820160e08185031215611b62575f5ffd5b611b6a611757565b611b73826119ca565b8152611b8160208301611a39565b6020820152611b9260408301611a12565b604082015260608201516001600160401b03811115611baf575f5ffd5b611bbb868285016117cb565b60608301525060808201516001600160401b03811115611bd9575f5ffd5b611be5868285016117cb565b60808301525060a08201516001600160401b03811115611c03575f5ffd5b611c0f86828501611a47565b60a08301525060c08201516001600160401b03811115611c2d575f5ffd5b611c39868285016117cb565b60c083015250949350505050565b81835281816020850137505f828201602090810191909152601f909101601f19169091010190565b5f8383855260208501945060208460051b820101835f5b868110156115a357838303601f19018852813536879003601e19018112611cab575f5ffd5b86016020810190356001600160401b03811115611cc6575f5ffd5b803603821315611cd4575f5ffd5b611cdf858284611c47565b60209a8b019a90955093909301925050600101611c86565b608080825286549082018190525f87815260208120909160a0840190835b81811015611d33578354835260019384019360209093019201611d15565b5050838103602085015280915086815260208101915060208760051b820101885f601e198b3603015b8a821015611dcc57848403601f190186528235818112611d7a575f5ffd5b8c016020810190356001600160401b03811115611d95575f5ffd5b8060051b3603821315611da6575f5ffd5b611db1868284611c6f565b95505050602083019250602086019550600182019150611d5c565b5050506001600160801b0319871660408601529250611de9915050565b6001600160801b0319831660608301529695505050505050565b5f60208284031215611e13575f5ffd5b5051919050565b606080825281018490525f6001600160fb1b03851115611e38575f5ffd5b8460051b808760808501376001600160881b03199485166020840152929093166040820152016080019392505050565b5f60208284031215611e78575f5ffd5b81516001600160a01b03811681146119af575f5ffd5b5f81518060208401855e5f93019283525090919050565b5f611eb08285611e8e565b6101d160f51b81526110916002820185611e8e565b606086901b6001600160601b03191681525f6001600160fb1b03851115611eea575f5ffd5b8460051b808760148501376001600160881b0319948516601493909101928301525091166023820152603201939250505056fe5769744f7261636c655261646f6e52657175657374466163746f727954656d706c6174657344656661756c74a264697066735822122019422b4d3da9cee37d6f23b4d44fdc9faa3bc66f11edf3011bc6a9cc298c927a64736f6c634300081e00335769744f7261636c655261646f6e52657175657374466163746f727954656d706c6174657344656661756c74",
  "immutableReferences": {
    "16096": [
      {
        "length": 32,
        "start": 279
      }
    ],
    "16099": [
      {
        "length": 32,
        "start": 737
      },
      {
        "length": 32,
        "start": 1042
      },
      {
        "length": 32,
        "start": 1187
      },
      {
        "length": 32,
        "start": 1316
      },
      {
        "length": 32,
        "start": 1583
      },
      {
        "length": 32,
        "start": 1755
      },
      {
        "length": 32,
        "start": 2347
      },
      {
        "length": 32,
        "start": 3182
      },
      {
        "length": 32,
        "start": 3456
      }
    ],
    "44625": [
      {
        "length": 32,
        "start": 409
      },
      {
        "length": 32,
        "start": 2661
      },
      {
        "length": 32,
        "start": 2913
      },
      {
        "length": 32,
        "start": 4011
      },
      {
        "length": 32,
        "start": 4171
      },
      {
        "length": 32,
        "start": 4345
      }
    ]
  },
  "source": "// SPDX-License-Identifier: MIT\r\n\r\npragma solidity >=0.8.0 <0.9.0;\r\n\r\nimport \"../base/WitOracleRadonRequestFactoryTemplates.sol\";\r\n\r\n/// @title Factory contract for building IWitOracleRadonRequestTemplate contracts as light-weight proxies.\r\n/// @author The Witnet Foundation\r\ncontract WitOracleRadonRequestFactoryTemplatesDefault\r\n    is \r\n        WitOracleRadonRequestFactoryTemplates\r\n{\r\n    function class() virtual override public view  returns (string memory) {\r\n        return (\r\n            initialized() \r\n                ? type(IWitOracleRadonRequestTemplate).name  \r\n                : type(WitOracleRadonRequestFactoryTemplatesDefault).name\r\n        );\r\n    }\r\n\r\n    constructor(address _witOracle)\r\n        WitOracleRadonRequestFactoryTemplates(_witOracle)\r\n    {}\r\n}\r\n",
  "sourcePath": "C:\\Users\\guill\\github\\guidiaz\\witnet-solidity-bridge\\contracts\\core\\trustless\\WitOracleRadonRequestFactoryTemplatesDefault.sol",
  "compiler": {
    "name": "solc",
    "version": "0.8.30+commit.73712a01.Emscripten.clang"
  },
  "schemaVersion": "3.4.16",
  "updatedAt": "2025-10-10T09:44:15.870Z",
  "networkType": "ethereum",
  "devdoc": {
    "author": "The Witnet Foundation",
    "errors": {
      "InvalidInitialization()": [
        {
          "details": "The contract is already initialized."
        }
      ],
      "NotInitializing()": [
        {
          "details": "The contract is not initializing."
        }
      ]
    },
    "events": {
      "Initialized(uint64)": {
        "details": "Triggered when the contract has been initialized or reinitialized."
      }
    },
    "kind": "dev",
    "methods": {
      "verifyRadonRequest(string[][])": {
        "details": "This method requires less gas than buildWitOracleRequest(string[][]), and it's usually preferred when data requests built out of this templateare intended to be used just once in lifetime.    "
      }
    },
    "title": "Factory contract for building IWitOracleRadonRequestTemplate contracts as light-weight proxies.",
    "version": 1
  },
  "userdoc": {
    "kind": "user",
    "methods": {
      "class()": {
        "notice": "Returns the name of the actual contract implementing the logic of this Witnet appliance."
      },
      "cloned()": {
        "notice": "Tells whether this contract is a clone of `self()`"
      },
      "getArgsCount()": {
        "notice": "=============================================================================================================== --- IWitOracleRadonRequestTemplate -------------------------------------------------------------------------------"
      },
      "initialized()": {
        "notice": "Tells whether a WitOracleRequest or a WitOracleRequestTemplate has been properly initialized."
      },
      "self()": {
        "notice": "Contract address to which clones will be re-directed."
      },
      "specs()": {
        "notice": "Returns the ERC-165 id of the minimal functionality expected for this appliance."
      },
      "verifyRadonRequest(string[][])": {
        "notice": "Verifies into the bounded WitOracle's registry the actual bytecode  and RAD hash of the Witnet-compliant Radon Request that gets provably  made out of the data sources, aggregate and tally Radon Reducers that  compose this WitOracleRequestTemplate. While no WitOracleRequest instance is  actually constructed, the returned value will be accepted as a valid RAD hash on the witOracle() contract from now on.  Reverts if: - the ranks of passed array don't match either the number of this    template's data sources, or the number of required parameters by    each one of those."
      },
      "witOracle()": {
        "notice": "Reference to the Witnet Request Board that all templates built out from this factory will refer to."
      }
    },
    "version": 1
  }
}