{
  "contractName": "WitnetProxy",
  "abi": [
    {
      "inputs": [],
      "stateMutability": "nonpayable",
      "type": "constructor"
    },
    {
      "anonymous": false,
      "inputs": [
        {
          "indexed": true,
          "internalType": "address",
          "name": "implementation",
          "type": "address"
        }
      ],
      "name": "Upgraded",
      "type": "event"
    },
    {
      "stateMutability": "payable",
      "type": "fallback",
      "payable": true
    },
    {
      "stateMutability": "payable",
      "type": "receive",
      "payable": true
    },
    {
      "inputs": [],
      "name": "implementation",
      "outputs": [
        {
          "internalType": "address",
          "name": "",
          "type": "address"
        }
      ],
      "stateMutability": "view",
      "type": "function",
      "constant": true
    },
    {
      "inputs": [
        {
          "internalType": "address",
          "name": "_newImplementation",
          "type": "address"
        },
        {
          "internalType": "bytes",
          "name": "_initData",
          "type": "bytes"
        }
      ],
      "name": "upgradeTo",
      "outputs": [
        {
          "internalType": "bool",
          "name": "",
          "type": "bool"
        }
      ],
      "stateMutability": "nonpayable",
      "type": "function"
    }
  ],
  "bytecode": "0x608060405234801561001057600080fd5b50610912806100206000396000f3fe60806040526004361061002d5760003560e01c80635c60da1b146100655780636fbc15e91461009757610034565b3661003457005b600061003e6100c7565b905060405136600082376000803683855af43d806000843e818015610061578184f35b8184fd5b34801561007157600080fd5b5061007a6100c7565b6040516001600160a01b0390911681526020015b60405180910390f35b3480156100a357600080fd5b506100b76100b2366004610757565b6100f5565b604051901515815260200161008e565b7f360894a13ba1a3210667c828492db98dca3e2076cc3735a920a3ca505d382bbc546001600160a01b031690565b60006001600160a01b0383166101525760405162461bcd60e51b815260206004820181905260248201527f5769746e657450726f78793a206e756c6c20696d706c656d656e746174696f6e60448201526064015b60405180910390fd5b600061015c6100c7565b90506001600160a01b0381161561053857806001600160a01b0316846001600160a01b0316036101ce5760405162461bcd60e51b815260206004820152601f60248201527f5769746e657450726f78793a206e6f7468696e6720746f2075706772616465006044820152606401610149565b806001600160a01b0316635479d9406040518163ffffffff1660e01b8152600401602060405180830381865afa925050508015610228575060408051601f3d908101601f1916820190925261022591810190610827565b60015b6102875760405162461bcd60e51b815260206004820152602a60248201527f5769746e657450726f78793a20756e61626c6520746f20636865636b207570676044820152697261646162696c69747960b01b6064820152608401610149565b806102d45760405162461bcd60e51b815260206004820152601b60248201527f5769746e657450726f78793a206e6f742075706772616461626c6500000000006044820152606401610149565b5060405133602482015260009081906001600160a01b0384169060440160408051601f198184030181529181526020820180516001600160e01b03166335ac4b0560e11b179052516103269190610874565b600060405180830381855af49150503d8060008114610361576040519150601f19603f3d011682016040523d82523d6000602084013e610366565b606091505b5091509150816103b85760405162461bcd60e51b815260206004820152601a60248201527f5769746e657450726f78793a206e6f7420636f6d706c69616e740000000000006044820152606401610149565b808060200190518101906103cc9190610827565b6104185760405162461bcd60e51b815260206004820152601b60248201527f5769746e657450726f78793a206e6f7420617574686f72697a656400000000006044820152606401610149565b856001600160a01b03166352d1902d6040518163ffffffff1660e01b8152600401602060405180830381865afa158015610456573d6000803e3d6000fd5b505050506040513d601f19601f8201168201806040525081019061047a9190610890565b836001600160a01b03166352d1902d6040518163ffffffff1660e01b8152600401602060405180830381865afa1580156104b8573d6000803e3d6000fd5b505050506040513d601f19601f820116820180604052508101906104dc9190610890565b146105355760405162461bcd60e51b8152602060048201526024808201527f5769746e657450726f78793a2070726f786961626c655555494473206d69736d6044820152630c2e8c6d60e31b6064820152608401610149565b50505b6000846001600160a01b03168460405160240161055591906108a9565b60408051601f198184030181529181526020820180516001600160e01b031663439fab9160e01b1790525161058a9190610874565b600060405180830381855af49150503d80600081146105c5576040519150601f19603f3d011682016040523d82523d6000602084013e6105ca565b606091505b50509050806106255760405162461bcd60e51b815260206004820152602160248201527f5769746e657450726f78793a20756e61626c6520746f20696e697469616c697a6044820152606560f81b6064820152608401610149565b7f360894a13ba1a3210667c828492db98dca3e2076cc3735a920a3ca505d382bbc80546001600160a01b0319166001600160a01b0387169081179091556040517fbc7cd75a20ee27fd9adebab32041f755214dbc6bffa90cc0225b39da2e5c2d3b90600090a2846001600160a01b0316635479d9406040518163ffffffff1660e01b8152600401602060405180830381865afa9250505080156106e5575060408051601f3d908101601f191682019092526106e291810190610827565b60015b6107315760405162461bcd60e51b815260206004820152601a60248201527f5769746e657450726f78793a206e6f7420636f6d706c69616e740000000000006044820152606401610149565b925061073b915050565b92915050565b634e487b7160e01b600052604160045260246000fd5b6000806040838503121561076a57600080fd5b82356001600160a01b038116811461078157600080fd5b9150602083013567ffffffffffffffff8082111561079e57600080fd5b818501915085601f8301126107b257600080fd5b8135818111156107c4576107c4610741565b604051601f8201601f19908116603f011681019083821181831017156107ec576107ec610741565b8160405282815288602084870101111561080557600080fd5b8260208601602083013760006020848301015280955050505050509250929050565b60006020828403121561083957600080fd5b8151801515811461084957600080fd5b9392505050565b60005b8381101561086b578181015183820152602001610853565b50506000910152565b60008251610886818460208701610850565b9190910192915050565b6000602082840312156108a257600080fd5b5051919050565b60208152600082518060208401526108c8816040850160208701610850565b601f01601f1916919091016040019291505056fea26469706673582212200771bc4bad015c089efb2351eb3266c8aad36c8daccf86bbf3421605ef5fc23c64736f6c63430008110033",
  "immutableReferences": {},
  "source": "// SPDX-License-Identifier: MIT\r\n\r\npragma solidity >=0.7.0 <0.9.0;\r\npragma experimental ABIEncoderV2;\r\n\r\nimport \"../patterns/Upgradeable.sol\";\r\n\r\n/// @title WitnetProxy: upgradable delegate-proxy contract. \r\n/// @author The Witnet Foundation.\r\ncontract WitnetProxy {\r\n\r\n    /// Event emitted every time the implementation gets updated.\r\n    event Upgraded(address indexed implementation);  \r\n\r\n    /// Constructor with no params as to ease eventual support of Singleton pattern (i.e. ERC-2470).\r\n    constructor () {}\r\n\r\n    receive() virtual external payable {}\r\n\r\n    /// Payable fallback accepts delegating calls to payable functions.  \r\n    fallback() external payable { /* solhint-disable no-complex-fallback */\r\n        address _implementation = implementation();\r\n        assembly { /* solhint-disable avoid-low-level-calls */\r\n            // Gas optimized delegate call to 'implementation' contract.\r\n            // Note: `msg.data`, `msg.sender` and `msg.value` will be passed over \r\n            //       to actual implementation of `msg.sig` within `implementation` contract.\r\n            let ptr := mload(0x40)\r\n            calldatacopy(ptr, 0, calldatasize())\r\n            let result := delegatecall(gas(), _implementation, ptr, calldatasize(), 0, 0)\r\n            let size := returndatasize()\r\n            returndatacopy(ptr, 0, size)\r\n            switch result\r\n                case 0  { \r\n                    // pass back revert message:\r\n                    revert(ptr, size) \r\n                }\r\n                default {\r\n                  // pass back same data as returned by 'implementation' contract:\r\n                  return(ptr, size) \r\n                }\r\n        }\r\n    }\r\n\r\n    /// Returns proxy's current implementation address.\r\n    function implementation() public view returns (address) {\r\n        return __proxySlot().implementation;\r\n    }\r\n\r\n    /// Upgrades the `implementation` address.\r\n    /// @param _newImplementation New implementation address.\r\n    /// @param _initData Raw data with which new implementation will be initialized.\r\n    /// @return Returns whether new implementation would be further upgradable, or not.\r\n    function upgradeTo(address _newImplementation, bytes memory _initData)\r\n        public returns (bool)\r\n    {\r\n        // New implementation cannot be null:\r\n        require(_newImplementation != address(0), \"WitnetProxy: null implementation\");\r\n\r\n        address _oldImplementation = implementation();\r\n        if (_oldImplementation != address(0)) {\r\n            // New implementation address must differ from current one:\r\n            require(_newImplementation != _oldImplementation, \"WitnetProxy: nothing to upgrade\");\r\n\r\n            // Assert whether current implementation is intrinsically upgradable:\r\n            try Upgradeable(_oldImplementation).isUpgradable() returns (bool _isUpgradable) {\r\n                require(_isUpgradable, \"WitnetProxy: not upgradable\");\r\n            } catch {\r\n                revert(\"WitnetProxy: unable to check upgradability\");\r\n            }\r\n\r\n            // Assert whether current implementation allows `msg.sender` to upgrade the proxy:\r\n            (bool _wasCalled, bytes memory _result) = _oldImplementation.delegatecall(\r\n                abi.encodeWithSignature(\r\n                    \"isUpgradableFrom(address)\",\r\n                    msg.sender\r\n                )\r\n            );\r\n            require(_wasCalled, \"WitnetProxy: not compliant\");\r\n            require(abi.decode(_result, (bool)), \"WitnetProxy: not authorized\");\r\n            require(\r\n                Upgradeable(_oldImplementation).proxiableUUID() == Upgradeable(_newImplementation).proxiableUUID(),\r\n                \"WitnetProxy: proxiableUUIDs mismatch\"\r\n            );\r\n        }\r\n\r\n        // Initialize new implementation within proxy-context storage:\r\n        (bool _wasInitialized,) = _newImplementation.delegatecall(\r\n            abi.encodeWithSignature(\r\n                \"initialize(bytes)\",\r\n                _initData\r\n            )\r\n        );\r\n        require(_wasInitialized, \"WitnetProxy: unable to initialize\");\r\n\r\n        // If all checks and initialization pass, update implementation address:\r\n        __proxySlot().implementation = _newImplementation;\r\n        emit Upgraded(_newImplementation);\r\n\r\n        // Asserts new implementation complies w/ minimal implementation of Upgradeable interface:\r\n        try Upgradeable(_newImplementation).isUpgradable() returns (bool _isUpgradable) {\r\n            return _isUpgradable;\r\n        }\r\n        catch {\r\n            revert (\"WitnetProxy: not compliant\");\r\n        }\r\n    }\r\n\r\n    /// @dev Complying with EIP-1967, retrieves storage struct containing proxy's current implementation address.\r\n    function __proxySlot() private pure returns (Proxiable.ProxiableSlot storage _slot) {\r\n        assembly {\r\n            // bytes32(uint256(keccak256('eip1967.proxy.implementation')) - 1)\r\n            _slot.slot := 0x360894a13ba1a3210667c828492db98dca3e2076cc3735a920a3ca505d382bbc\r\n        }\r\n    }\r\n\r\n}\r\n",
  "sourcePath": "C:\\Users\\guill\\github\\guidiaz\\witnet-solidity-bridge\\contracts\\impls\\WitnetProxy.sol",
  "compiler": {
    "name": "solc",
    "version": "0.8.17+commit.8df45f5f.Emscripten.clang"
  },
  "schemaVersion": "3.4.13",
  "updatedAt": "2023-04-25T18:38:54.596Z",
  "networkType": "ethereum",
  "devdoc": {
    "author": "The Witnet Foundation.",
    "kind": "dev",
    "methods": {
      "upgradeTo(address,bytes)": {
        "params": {
          "_initData": "Raw data with which new implementation will be initialized.",
          "_newImplementation": "New implementation address."
        },
        "returns": {
          "_0": "Returns whether new implementation would be further upgradable, or not."
        }
      }
    },
    "title": "WitnetProxy: upgradable delegate-proxy contract. ",
    "version": 1
  },
  "userdoc": {
    "events": {
      "Upgraded(address)": {
        "notice": "Event emitted every time the implementation gets updated."
      }
    },
    "kind": "user",
    "methods": {
      "constructor": {
        "notice": "Constructor with no params as to ease eventual support of Singleton pattern (i.e. ERC-2470)."
      },
      "implementation()": {
        "notice": "Returns proxy's current implementation address."
      },
      "upgradeTo(address,bytes)": {
        "notice": "Upgrades the `implementation` address."
      }
    },
    "version": 1
  }
}