{
  "contractName": "WitRandomnessV2",
  "abi": [
    {
      "inputs": [
        {
          "internalType": "contract WitnetOracle",
          "name": "_witnet",
          "type": "address"
        },
        {
          "internalType": "address",
          "name": "_operator",
          "type": "address"
        }
      ],
      "stateMutability": "nonpayable",
      "type": "constructor"
    },
    {
      "inputs": [],
      "name": "EmptyBuffer",
      "type": "error"
    },
    {
      "inputs": [
        {
          "internalType": "uint256",
          "name": "index",
          "type": "uint256"
        },
        {
          "internalType": "uint256",
          "name": "range",
          "type": "uint256"
        }
      ],
      "name": "IndexOutOfBounds",
      "type": "error"
    },
    {
      "inputs": [
        {
          "internalType": "uint256",
          "name": "length",
          "type": "uint256"
        }
      ],
      "name": "InvalidLengthEncoding",
      "type": "error"
    },
    {
      "inputs": [
        {
          "internalType": "address",
          "name": "owner",
          "type": "address"
        }
      ],
      "name": "OwnableInvalidOwner",
      "type": "error"
    },
    {
      "inputs": [
        {
          "internalType": "address",
          "name": "account",
          "type": "address"
        }
      ],
      "name": "OwnableUnauthorizedAccount",
      "type": "error"
    },
    {
      "inputs": [
        {
          "internalType": "uint256",
          "name": "read",
          "type": "uint256"
        },
        {
          "internalType": "uint256",
          "name": "expected",
          "type": "uint256"
        }
      ],
      "name": "UnexpectedMajorType",
      "type": "error"
    },
    {
      "inputs": [
        {
          "internalType": "uint256",
          "name": "unexpected",
          "type": "uint256"
        }
      ],
      "name": "UnsupportedMajorType",
      "type": "error"
    },
    {
      "anonymous": false,
      "inputs": [
        {
          "indexed": true,
          "internalType": "address",
          "name": "previousOwner",
          "type": "address"
        },
        {
          "indexed": true,
          "internalType": "address",
          "name": "newOwner",
          "type": "address"
        }
      ],
      "name": "OwnershipTransferStarted",
      "type": "event"
    },
    {
      "anonymous": false,
      "inputs": [
        {
          "indexed": true,
          "internalType": "address",
          "name": "previousOwner",
          "type": "address"
        },
        {
          "indexed": true,
          "internalType": "address",
          "name": "newOwner",
          "type": "address"
        }
      ],
      "name": "OwnershipTransferred",
      "type": "event"
    },
    {
      "anonymous": false,
      "inputs": [
        {
          "indexed": false,
          "internalType": "uint256",
          "name": "blockNumber",
          "type": "uint256"
        },
        {
          "indexed": false,
          "internalType": "uint256",
          "name": "evmTxGasPrice",
          "type": "uint256"
        },
        {
          "indexed": false,
          "internalType": "uint256",
          "name": "evmRandomizeFee",
          "type": "uint256"
        },
        {
          "indexed": false,
          "internalType": "uint256",
          "name": "witnetQueryId",
          "type": "uint256"
        },
        {
          "components": [
            {
              "internalType": "uint8",
              "name": "committeeSize",
              "type": "uint8"
            },
            {
              "internalType": "uint64",
              "name": "witnessingFeeNanoWit",
              "type": "uint64"
            }
          ],
          "indexed": false,
          "internalType": "struct WitnetV2.RadonSLA",
          "name": "witnetQuerySLA",
          "type": "tuple"
        }
      ],
      "name": "Randomizing",
      "type": "event"
    },
    {
      "anonymous": false,
      "inputs": [
        {
          "indexed": false,
          "internalType": "uint256",
          "name": "id",
          "type": "uint256"
        },
        {
          "indexed": false,
          "internalType": "uint256",
          "name": "evmReward",
          "type": "uint256"
        },
        {
          "components": [
            {
              "internalType": "uint8",
              "name": "committeeSize",
              "type": "uint8"
            },
            {
              "internalType": "uint64",
              "name": "witnessingFeeNanoWit",
              "type": "uint64"
            }
          ],
          "indexed": false,
          "internalType": "struct WitnetV2.RadonSLA",
          "name": "witnetSLA",
          "type": "tuple"
        }
      ],
      "name": "WitnetQuery",
      "type": "event"
    },
    {
      "anonymous": false,
      "inputs": [
        {
          "indexed": false,
          "internalType": "uint256",
          "name": "id",
          "type": "uint256"
        },
        {
          "indexed": false,
          "internalType": "uint256",
          "name": "evmGasPrice",
          "type": "uint256"
        }
      ],
      "name": "WitnetQueryResponse",
      "type": "event"
    },
    {
      "anonymous": false,
      "inputs": [
        {
          "indexed": false,
          "internalType": "uint256",
          "name": "id",
          "type": "uint256"
        },
        {
          "indexed": false,
          "internalType": "uint256",
          "name": "evmGasPrice",
          "type": "uint256"
        },
        {
          "indexed": false,
          "internalType": "uint256",
          "name": "evmCallbackGas",
          "type": "uint256"
        }
      ],
      "name": "WitnetQueryResponseDelivered",
      "type": "event"
    },
    {
      "anonymous": false,
      "inputs": [
        {
          "indexed": false,
          "internalType": "uint256",
          "name": "id",
          "type": "uint256"
        },
        {
          "indexed": false,
          "internalType": "bytes",
          "name": "resultCborBytes",
          "type": "bytes"
        },
        {
          "indexed": false,
          "internalType": "uint256",
          "name": "evmGasPrice",
          "type": "uint256"
        },
        {
          "indexed": false,
          "internalType": "uint256",
          "name": "evmCallbackActualGas",
          "type": "uint256"
        },
        {
          "indexed": false,
          "internalType": "string",
          "name": "evmCallbackRevertReason",
          "type": "string"
        }
      ],
      "name": "WitnetQueryResponseDeliveryFailed",
      "type": "event"
    },
    {
      "anonymous": false,
      "inputs": [
        {
          "indexed": false,
          "internalType": "uint256",
          "name": "id",
          "type": "uint256"
        },
        {
          "indexed": false,
          "internalType": "uint256",
          "name": "evmReward",
          "type": "uint256"
        }
      ],
      "name": "WitnetQueryRewardUpgraded",
      "type": "event"
    },
    {
      "stateMutability": "payable",
      "type": "fallback"
    },
    {
      "inputs": [],
      "name": "renounceOwnership",
      "outputs": [],
      "stateMutability": "nonpayable",
      "type": "function"
    },
    {
      "inputs": [],
      "name": "witnetRadHash",
      "outputs": [
        {
          "internalType": "bytes32",
          "name": "",
          "type": "bytes32"
        }
      ],
      "stateMutability": "view",
      "type": "function"
    },
    {
      "stateMutability": "payable",
      "type": "receive"
    },
    {
      "inputs": [],
      "name": "class",
      "outputs": [
        {
          "internalType": "string",
          "name": "",
          "type": "string"
        }
      ],
      "stateMutability": "pure",
      "type": "function"
    },
    {
      "inputs": [],
      "name": "specs",
      "outputs": [
        {
          "internalType": "bytes4",
          "name": "",
          "type": "bytes4"
        }
      ],
      "stateMutability": "pure",
      "type": "function"
    },
    {
      "inputs": [],
      "name": "witnet",
      "outputs": [
        {
          "internalType": "contract WitnetOracle",
          "name": "",
          "type": "address"
        }
      ],
      "stateMutability": "view",
      "type": "function"
    },
    {
      "inputs": [
        {
          "internalType": "uint256",
          "name": "_evmGasPrice",
          "type": "uint256"
        }
      ],
      "name": "estimateRandomizeFee",
      "outputs": [
        {
          "internalType": "uint256",
          "name": "",
          "type": "uint256"
        }
      ],
      "stateMutability": "view",
      "type": "function"
    },
    {
      "inputs": [
        {
          "internalType": "uint256",
          "name": "_blockNumber",
          "type": "uint256"
        }
      ],
      "name": "fetchRandomnessAfter",
      "outputs": [
        {
          "internalType": "bytes32",
          "name": "",
          "type": "bytes32"
        }
      ],
      "stateMutability": "view",
      "type": "function"
    },
    {
      "inputs": [
        {
          "internalType": "uint256",
          "name": "_blockNumber",
          "type": "uint256"
        }
      ],
      "name": "fetchRandomnessAfterProof",
      "outputs": [
        {
          "internalType": "bytes32",
          "name": "_witnetResultRandomness",
          "type": "bytes32"
        },
        {
          "internalType": "uint64",
          "name": "_witnetResultTimestamp",
          "type": "uint64"
        },
        {
          "internalType": "bytes32",
          "name": "_witnetResultTallyHash",
          "type": "bytes32"
        },
        {
          "internalType": "uint256",
          "name": "_witnetResultFinalityBlock",
          "type": "uint256"
        }
      ],
      "stateMutability": "view",
      "type": "function"
    },
    {
      "inputs": [],
      "name": "getLastRandomizeBlock",
      "outputs": [
        {
          "internalType": "uint256",
          "name": "",
          "type": "uint256"
        }
      ],
      "stateMutability": "view",
      "type": "function"
    },
    {
      "inputs": [
        {
          "internalType": "uint256",
          "name": "_blockNumber",
          "type": "uint256"
        }
      ],
      "name": "getRandomizeData",
      "outputs": [
        {
          "internalType": "uint256",
          "name": "_witnetQueryId",
          "type": "uint256"
        },
        {
          "internalType": "uint256",
          "name": "_prevRandomizeBlock",
          "type": "uint256"
        },
        {
          "internalType": "uint256",
          "name": "_nextRandomizeBlock",
          "type": "uint256"
        }
      ],
      "stateMutability": "view",
      "type": "function"
    },
    {
      "inputs": [
        {
          "internalType": "uint256",
          "name": "_blockNumber",
          "type": "uint256"
        }
      ],
      "name": "getRandomizeNextBlock",
      "outputs": [
        {
          "internalType": "uint256",
          "name": "",
          "type": "uint256"
        }
      ],
      "stateMutability": "view",
      "type": "function"
    },
    {
      "inputs": [
        {
          "internalType": "uint256",
          "name": "_blockNumber",
          "type": "uint256"
        }
      ],
      "name": "getRandomizePrevBlock",
      "outputs": [
        {
          "internalType": "uint256",
          "name": "",
          "type": "uint256"
        }
      ],
      "stateMutability": "view",
      "type": "function"
    },
    {
      "inputs": [
        {
          "internalType": "uint256",
          "name": "_blockNumber",
          "type": "uint256"
        }
      ],
      "name": "getRandomizeStatus",
      "outputs": [
        {
          "internalType": "enum WitnetV2.ResponseStatus",
          "name": "",
          "type": "uint8"
        }
      ],
      "stateMutability": "view",
      "type": "function"
    },
    {
      "inputs": [
        {
          "internalType": "uint256",
          "name": "_blockNumber",
          "type": "uint256"
        }
      ],
      "name": "isRandomized",
      "outputs": [
        {
          "internalType": "bool",
          "name": "",
          "type": "bool"
        }
      ],
      "stateMutability": "view",
      "type": "function"
    },
    {
      "inputs": [
        {
          "internalType": "uint32",
          "name": "_range",
          "type": "uint32"
        },
        {
          "internalType": "uint256",
          "name": "_nonce",
          "type": "uint256"
        },
        {
          "internalType": "uint256",
          "name": "_blockNumber",
          "type": "uint256"
        }
      ],
      "name": "random",
      "outputs": [
        {
          "internalType": "uint32",
          "name": "",
          "type": "uint32"
        }
      ],
      "stateMutability": "view",
      "type": "function"
    },
    {
      "inputs": [],
      "name": "randomize",
      "outputs": [
        {
          "internalType": "uint256",
          "name": "_evmRandomizeFee",
          "type": "uint256"
        }
      ],
      "stateMutability": "payable",
      "type": "function"
    },
    {
      "inputs": [],
      "name": "witnetQuerySLA",
      "outputs": [
        {
          "components": [
            {
              "internalType": "uint8",
              "name": "committeeSize",
              "type": "uint8"
            },
            {
              "internalType": "uint64",
              "name": "witnessingFeeNanoWit",
              "type": "uint64"
            }
          ],
          "internalType": "struct WitnetV2.RadonSLA",
          "name": "",
          "type": "tuple"
        }
      ],
      "stateMutability": "view",
      "type": "function"
    },
    {
      "inputs": [],
      "name": "acceptOwnership",
      "outputs": [],
      "stateMutability": "nonpayable",
      "type": "function"
    },
    {
      "inputs": [],
      "name": "baseFeeOverheadPercentage",
      "outputs": [
        {
          "internalType": "uint16",
          "name": "",
          "type": "uint16"
        }
      ],
      "stateMutability": "view",
      "type": "function"
    },
    {
      "inputs": [],
      "name": "owner",
      "outputs": [
        {
          "internalType": "address",
          "name": "",
          "type": "address"
        }
      ],
      "stateMutability": "view",
      "type": "function"
    },
    {
      "inputs": [],
      "name": "pendingOwner",
      "outputs": [
        {
          "internalType": "address",
          "name": "",
          "type": "address"
        }
      ],
      "stateMutability": "view",
      "type": "function"
    },
    {
      "inputs": [
        {
          "internalType": "address",
          "name": "_newOwner",
          "type": "address"
        }
      ],
      "name": "transferOwnership",
      "outputs": [],
      "stateMutability": "nonpayable",
      "type": "function"
    },
    {
      "inputs": [
        {
          "internalType": "uint16",
          "name": "_baseFeeOverheadPercentage",
          "type": "uint16"
        }
      ],
      "name": "settleBaseFeeOverheadPercentage",
      "outputs": [],
      "stateMutability": "nonpayable",
      "type": "function"
    },
    {
      "inputs": [
        {
          "components": [
            {
              "internalType": "uint8",
              "name": "committeeSize",
              "type": "uint8"
            },
            {
              "internalType": "uint64",
              "name": "witnessingFeeNanoWit",
              "type": "uint64"
            }
          ],
          "internalType": "struct WitnetV2.RadonSLA",
          "name": "_witnetQuerySLA",
          "type": "tuple"
        }
      ],
      "name": "settleWitnetQuerySLA",
      "outputs": [],
      "stateMutability": "nonpayable",
      "type": "function"
    }
  ],
  "bytecode": "0x60c060405234801561001057600080fd5b5060405161306838038061306883398101604081905261002f916106de565b81816001600160a01b03811661006057604051631e4fbdf760e01b8152600060048201526024015b60405180910390fd5b610069816105b3565b5063baeca88b60e01b6001600160e01b031916816001600160a01b031663adb7c3f76040518163ffffffff1660e01b8152600401602060405180830381865afa1580156100ba573d6000803e3d6000fd5b505050506040513d601f19601f820116820180604052508101906100de9190610718565b6001600160e01b031916146101435760405162461bcd60e51b815260206004820152602560248201527f5573696e675769746e65743a20756e636f6d706c69616e74205769746e65744f6044820152647261636c6560d81b6064820152608401610057565b6001600160a01b0390811660805260408051808201909152600a8152630bebc20060209091015260028054640bebc2000a6001600160481b03199091161790556003805461ffff19166021179055610257908316158061021e575063baeca88b60e01b6001600160e01b031916836001600160a01b031663adb7c3f76040518163ffffffff1660e01b8152600401602060405180830381865afa1580156101ee573d6000803e3d6000fd5b505050506040513d601f19601f820116820180604052508101906102129190610718565b6001600160e01b031916145b60408051808201909152601881527f756e636f6d706c69616e74205769746e65744f7261636c65000000000000000060208201526105cf565b60006102616105e1565b6001600160a01b0316637b1039996040518163ffffffff1660e01b8152600401602060405180830381865afa15801561029e573d6000803e3d6000fd5b505050506040513d601f19601f820116820180604052508101906102c29190610749565b60408051600180825281830190925291925060009190602080830190803683375050604080516000808252602082019092529293506001600160a01b03851692639eb3ab1f925060029161032c565b6103196106a2565b8152602001906001900390816103115790505b506040518363ffffffff1660e01b815260040161034a9291906107e2565b6020604051808303816000875af1158015610369573d6000803e3d6000fd5b505050506040513d601f19601f8201168201806040525081019061038d91906108c5565b816000815181106103a0576103a06108de565b60200260200101818152505060606000836001600160a01b0316637f412e2360405180604001604052806002600b8111156103dd576103dd61077c565b8152602001858152506040518263ffffffff1660e01b815260040161040291906108f4565b6020604051808303816000875af1158015610421573d6000803e3d6000fd5b505050506040513d601f19601f8201168201806040525081019061044591906108c5565b90506000846001600160a01b0316637f412e236040518060400160405280600b808111156104755761047561077c565b8152602001868152506040518263ffffffff1660e01b815260040161049a91906108f4565b6020604051808303816000875af11580156104b9573d6000803e3d6000fd5b505050506040513d601f19601f820116820180604052508101906104dd91906108c5565b9050846001600160a01b031663a4a7cecd858484602089516001600160401b0381111561050c5761050c610766565b60405190808252806020026020018201604052801561053f57816020015b606081526020019060019003908161052a5790505b506040518663ffffffff1660e01b815260040161056095949392919061099b565b6020604051808303816000875af115801561057f573d6000803e3d6000fd5b505050506040513d601f19601f820116820180604052508101906105a391906108c5565b60a05250610ae095505050505050565b600180546001600160a01b03191690556105cc816105f1565b50565b816105dd576105dd81610641565b5050565b60006105ec60805190565b905090565b600080546001600160a01b038381166001600160a01b0319831681178455604051919092169283917f8be0079c531659141344cd1fd0a4f28419497f9722a3daafe3b4186f6b6457e09190a35050565b6040805180820190915260128152712bb4ba3732ba2930b73237b6b732b9b9ab1960711b60208201528160405160200161067c929190610a90565b60408051601f198184030181529082905262461bcd60e51b825261005791600401610acd565b60405180604001604052806002905b60608152602001906001900390816106b15790505090565b6001600160a01b03811681146105cc57600080fd5b600080604083850312156106f157600080fd5b82516106fc816106c9565b602084015190925061070d816106c9565b809150509250929050565b60006020828403121561072a57600080fd5b81516001600160e01b03198116811461074257600080fd5b9392505050565b60006020828403121561075b57600080fd5b8151610742816106c9565b634e487b7160e01b600052604160045260246000fd5b634e487b7160e01b600052602160045260246000fd5b60005b838110156107ad578181015183820152602001610795565b50506000910152565b600081518084526107ce816020860160208601610792565b601f01601f19169290920160200192915050565b6000600584106107f4576107f461077c565b838252602060a08184015260008060a0850152604060c06040860152600060c086015260e0850160e0606087015280875180835261010092508288019150828160051b890101925085890160005b8281101561089b5789850360ff19018452815185878101895b60028110156108865788820383526108748285516107b6565b938c0193928c0192915060010161085b565b50965050509287019290870190600101610842565b50505050858103608087015260018152600160ff1b60208201526040810198975050505050505050565b6000602082840312156108d757600080fd5b5051919050565b634e487b7160e01b600052603260045260246000fd5b60006020808352606083018451600c81106109115761091161077c565b828501528482015160408086018190528151928390526080600584901b8701810193928501929087019060005b8181101561098d57888603607f1901835284518051600a81106109635761096361077c565b875287015187870185905261097a858801826107b6565b965050938601939186019160010161093e565b509398975050505050505050565b60a0808252865190820181905260009060209060c0840190828a01845b828110156109d4578151845292840192908401906001016109b8565b505050878285015286604085015261ffff86166060850152838103608085015280855180835283830191506005848260051b85010185890160005b84811015610a7d57601f198784038101875282518051808652908a01908a86019080881b87018c0160005b82811015610a665785898303018452610a548286516107b6565b948e0194938e01939150600101610a3a565b50998c019996505050928901925050600101610a0f565b50909d9c50505050505050505050505050565b60008351610aa2818460208801610792565b6101d160f51b9083019081528351610ac1816002840160208801610792565b01600201949350505050565b60208152600061074260208301846107b6565b60805160a05161252b610b3d600039600081816102d20152610a84015260008181610288015281816107dc0152818161088301528181610a5401528181610c7701528181610e2e015281816112550152611309015261252b6000f3fe60806040526004361061014f5760003560e01c80639bc86fec116100b6578063c0248bf11161006f578063c0248bf11461051f578063d2bc459b1461053f578063de0958ac1461055f578063e30c39781461057f578063eb92b29b14610594578063f2fde38b146105b75761018c565b80639bc86fec14610411578063a3252f6814610441578063a60ee2681461047c578063adb7c3f71461049c578063b8d38c96146104be578063bff852fa146104de5761018c565b806376fa9d201161010857806376fa9d201461031f57806379ba50971461034c57806382b1c174146103615780638da5cb5b146103815780638f2616841461039f5780639353badd146103b45761018c565b806317f45487146101f757806324cbbfc11461024457806346d1d21a14610279578063613e9978146102c0578063699b328a14610302578063715018a61461030a5761018c565b3661018c5761018a604051806040016040528060158152602001741b9bc81d1c985b9cd9995c9cc81858d8d95c1d1959605a1b8152506105d7565b005b61018a61019d60003560f81c610641565b6101ae60ff60003560f01c16610641565b6101bf60ff60003560e81c16610641565b6101d060ff60003560e01c16610641565b6040516020016101e39493929190611e0c565b6040516020818303038152906040526105d7565b34801561020357600080fd5b50610217610212366004611e8b565b610733565b604080519485526001600160401b0390931660208501529183015260608201526080015b60405180910390f35b34801561025057600080fd5b5061026461025f366004611eb6565b6109e6565b60405163ffffffff909116815260200161023b565b34801561028557600080fd5b507f00000000000000000000000000000000000000000000000000000000000000005b6040516001600160a01b03909116815260200161023b565b3480156102cc57600080fd5b506102f47f000000000000000000000000000000000000000000000000000000000000000081565b60405190815260200161023b565b6102f4610a3b565b34801561031657600080fd5b5061018a610bec565b34801561032b57600080fd5b5061033f61033a366004611e8b565b610c00565b60405161023b9190611f01565b34801561035857600080fd5b5061018a610d53565b34801561036d57600080fd5b506102f461037c366004611e8b565b610d5b565b34801561038d57600080fd5b506000546001600160a01b03166102a8565b3480156103ab57600080fd5b506102f4610d96565b3480156103c057600080fd5b5060408051808201825260008082526020918201528151808301835260025460ff81168083526001600160401b0361010090920482169284019283528451908152915116918101919091520161023b565b34801561041d57600080fd5b5061043161042c366004611e8b565b610da6565b604051901515815260200161023b565b34801561044d57600080fd5b5061046161045c366004611e8b565b610dcb565b6040805193845260208401929092529082015260600161023b565b34801561048857600080fd5b506102f4610497366004611e8b565b610e03565b3480156104a857600080fd5b5060405163124f910d60e01b815260200161023b565b3480156104ca57600080fd5b5061018a6104d9366004611f29565b610ec9565b3480156104ea57600080fd5b5060408051808201825260128152712bb4ba3732ba2930b73237b6b732b9b9ab1960711b6020820152905161023b9190611f4d565b34801561052b57600080fd5b506102f461053a366004611e8b565b610ee9565b34801561054b57600080fd5b5061018a61055a366004611f80565b610f37565b34801561056b57600080fd5b506102f461057a366004611e8b565b610f86565b34801561058b57600080fd5b506102a8610fdf565b3480156105a057600080fd5b5060035460405161ffff909116815260200161023b565b3480156105c357600080fd5b5061018a6105d2366004611fa7565b610ff3565b6040805180820190915260128152712bb4ba3732ba2930b73237b6b732b9b9ab1960711b602082015281604051602001610612929190611fc4565b60408051601f198184030181529082905262461bcd60e51b825261063891600401611f4d565b60405180910390fd5b604080516002808252818301909252606091600091906020820181803683370190505090506000610673601085612043565b61067e906030612065565b9050600061068d60108661207e565b610698906030612065565b905060398260ff1611156106b4576106b1600783612065565b91505b60398160ff1611156106ce576106cb600782612065565b90505b8160f81b836000815181106106e5576106e56120a0565b60200101906001600160f81b031916908160001a9053508060f81b83600181518110610713576107136120a0565b60200101906001600160f81b031916908160001a90535091949350505050565b600080600080610741611007565b6000868152600191909101602052604081205490036107665761076385610f86565b94505b6000610770611007565b600101600087815260200190815260200160002090506000816000015490506107c381600014156040518060400160405280600e81526020016d1b9bdd081c985b991bdb5a5e995960921b81525061102b565b60405163234fe6e360e01b8152600481018290526000907f00000000000000000000000000000000000000000000000000000000000000006001600160a01b03169063234fe6e390602401602060405180830381865afa15801561082b573d6000803e3d6000fd5b505050506040513d601f19601f8201168201806040525081019061084f91906120b6565b9050600281600581111561086557610865611eeb565b0361093d57604051637b0c90d960e11b8152600481018390526000907f00000000000000000000000000000000000000000000000000000000000000006001600160a01b03169063f61921b290602401600060405180830381865afa1580156108d2573d6000803e3d6000fd5b505050506040513d6000823e601f3d908101601f191682016040526108fa9190810190612191565b9050806040015163ffffffff1696508060600151955080602001516001600160401b03169450610935610930826080015161103d565b61105b565b9750506109db565b600381600581111561095157610951611eeb565b036109a957600283015460408051808201909152601081526f6661756c74792072616e646f6d697a6560801b602082015261098f908215159061102b565b61099881610733565b9750975097509750505050506109df565b6109db6040518060400160405280601181526020017070656e64696e672072616e646f6d697a6560781b8152506105d7565b5050505b9193509193565b6000610a2c8484336109f786610d5b565b604080516001600160a01b03909316602084015282015260600160405160208183030381529060405280519060200120611090565b90505b9392505050565b905090565b600043610a46611007565b541015610ba95734905060007f00000000000000000000000000000000000000000000000000000000000000006001600160a01b0316633dc2b7a2837f000000000000000000000000000000000000000000000000000000000000000060026040518463ffffffff1660e01b8152600401610ac2929190612240565b60206040518083038185885af1158015610ae0573d6000803e3d6000fd5b50505050506040513d601f19601f82011682018060405250810190610b05919061226a565b90506000610b11611007565b436000908152600191909101602052604081208381559150610b31611007565b5460018301819055905043610b44611007565b6000838152600191909101602052604090206002015543610b63611007565b556040517f8cb766b09215126141c41df86fd488fe4745f22f3c995c3ad9aaf4c07195b94690610b9d9043903a9088908890600290612283565b60405180910390a15050505b34811015610be957336108fc610bbf83346122c3565b6040518115909202916000818181858888f19350505050158015610be7573d6000803e3d6000fd5b505b90565b610bf46110ef565b610bfe600061111c565b565b6000610c0a611007565b600083815260019190910160205260408120549003610c2f57610c2c82610f86565b91505b6000610c39611007565b600084815260019190910160205260408120549150819003610c5e5750600092915050565b60405163234fe6e360e01b8152600481018290526000907f00000000000000000000000000000000000000000000000000000000000000006001600160a01b03169063234fe6e390602401602060405180830381865afa158015610cc6573d6000803e3d6000fd5b505050506040513d601f19601f82011682018060405250810190610cea91906120b6565b90506003816005811115610d0057610d00611eeb565b03610a2f576000610d0f611007565b6000868152600191909101602052604090206002015490508015610d3f57610d3681610c00565b95945050505050565b506003949350505050565b505b5050919050565b610bfe611135565b600081610d67836111b0565b604080516020810193909352820152606001604051602081830303815290604052805190602001209050919050565b6000610da0611007565b54919050565b60006002610db383610c00565b6005811115610dc457610dc4611eeb565b1492915050565b600080600080610dd9611007565b60009586526001908101602052604090952080549581015460029091015495969095945092505050565b604051630f7b104360e31b815260048101829052602260248201526000906064906001600160a01b037f00000000000000000000000000000000000000000000000000000000000000001690637bd8821890604401602060405180830381865afa158015610e75573d6000803e3d6000fd5b505050506040513d601f19601f82011682018060405250810190610e99919061226a565b600354610eab9061ffff1660646122d6565b61ffff16610eb991906122f1565b610ec39190612308565b92915050565b610ed16110ef565b6003805461ffff191661ffff92909216919091179055565b6000808211610efa57610efa61231c565b6000610f04611007565b549050808311610ec357610f3283610f1a611007565b60008481526001918201602052604090200154611414565b610a2f565b610f3f6110ef565b610f74610f4b82611447565b6040518060400160405280600b81526020016a696e76616c696420534c4160a81b81525061102b565b806002610f818282612341565b505050565b6000610f90611007565b600083815260019190910160205260408120549003610fc057610fbb82610fb5611007565b546114d4565b610ec3565b610fc8611007565b600092835260010160205250604090206002015490565b6000610a366001546001600160a01b031690565b610ffb6110ef565b61100481611523565b50565b7f643778935c57df947f6944f6a5242a3e91445f6337f4b2ec670c8642153b614f90565b8161103957611039816105d7565b5050565b611045611d80565b600061105083611555565b9050610a2f8161157a565b600081806000015161107f5760405162461bcd60e51b815260040161063890612393565b610a2f61108b846115ae565b6115df565b6000806001600160e01b0383856040516020016110b7929190918252602082015260400190565b60408051601f19818403018152919052805160209091012016905060e06110e463ffffffff8716836122f1565b901c95945050505050565b6000546001600160a01b03163314610bfe5760405163118cdaa760e01b8152336004820152602401610638565b600180546001600160a01b0319169055611004816115ec565b338061113f610fdf565b6001600160a01b0316146111a75760405162461bcd60e51b815260206004820152602960248201527f4f776e61626c6532537465703a2063616c6c6572206973206e6f7420746865206044820152683732bb9037bbb732b960b91b6064820152608401610638565b6110048161111c565b60006111ba611007565b6000838152600191909101602052604081205490036111df576111dc82610f86565b91505b60006111e9611007565b6001016000848152602001908152602001600020905060008160000154905061123c81600014156040518060400160405280600e81526020016d1b9bdd081c985b991bdb5a5e995960921b81525061102b565b60405163234fe6e360e01b8152600481018290526000907f00000000000000000000000000000000000000000000000000000000000000006001600160a01b03169063234fe6e390602401602060405180830381865afa1580156112a4573d6000803e3d6000fd5b505050506040513d601f19601f820116820180604052508101906112c891906120b6565b905060028160058111156112de576112de611eeb565b0361137d576040516311a7b16760e31b815260048101839052610d3690610930906001600160a01b037f00000000000000000000000000000000000000000000000000000000000000001690638d3d8b3890602401600060405180830381865afa158015611350573d6000803e3d6000fd5b505050506040513d6000823e601f3d908101601f1916820160405261137891908101906123e5565b61103d565b600381600581111561139157611391611eeb565b036113e257600283015460408051808201909152601081526f6661756c74792072616e646f6d697a6560801b60208201526113cf908215159061102b565b6113d8816111b0565b9695505050505050565b610d4a6040518060400160405280601181526020017070656e64696e672072616e646f6d697a6560781b8152506105d7565b600081831161144157610f3283611429611007565b60008581526001918201602052604090200154611414565b50919050565b60008061145a6040840160208501612421565b6001600160401b031611801561147f5750600061147a602084018461243e565b60ff16115b801561149b5750607f611495602084018461243e565b60ff1611155b8015610ec357506404a817c8006114b86040840160208501612421565b6114c390606461245b565b6001600160401b0316101592915050565b60008183101561150257610f32836114ea611007565b600085815260019182016020526040902001546114d4565b61150a611007565b6000928352600101602052506040902060020154919050565b61152b6110ef565b6001600160a01b0381166111a757604051631e4fbdf760e01b815260006004820152602401610638565b61155d611da1565b6040805180820190915282815260006020820152610a2f8161163c565b611582611d80565b5060a0810151604080518082019091526001600160401b03909116602714158152602081019190915290565b60608180600001516115d25760405162461bcd60e51b815260040161063890612393565b610a2f836020015161175c565b6000610ec38260206118a5565b600080546001600160a01b038381166001600160a01b0319831681178455604051919092169283917f8be0079c531659141344cd1fd0a4f28419497f9722a3daafe3b4186f6b6457e09190a35050565b611644611da1565b8151518290600003611669576040516309036d4760e21b815260040160405180910390fd5b600060ff816001600160401b038160015b80156116ec576116898961191d565b9550816116958161247e565b6007600589901c169650601f8816955092505060051985016116e45760208901516116c08a8661197f565b9350808a602001516116d291906122c3565b6116dc9084612497565b92505061167a565b50600061167a565b600760ff861611156117165760405163bd2ac87960e01b815260ff86166004820152602401610638565b506040805160c08101825298895260ff95861660208a015293851693880193909352921660608601526001600160401b0390811660808601521660a08401525090919050565b60608160028060ff16826040015160ff161461179c57604080830151905161800560e51b815260ff91821660048201529082166024820152604401610638565b6117ae8460000151856060015161197f565b6001600160401b03166080850181905263fffffffe19016118845760006117dd85600001518660400151611a47565b905063ffffffff8082161015610d4a5784516118029063ffffffff80841690611af416565b60405160200161181291906124aa565b604051602081830303815290604052935061183585600001518660400151611a47565b905063ffffffff8082161015610d4a578451849061185c9063ffffffff80851690611af416565b60405160200161186d9291906124c6565b604051602081830303815290604052935050610d4c565b6080840151845161189e9163ffffffff90811690611af416565b9250610d4c565b600060208260ff1611156118bb576118bb61231c565b60008260ff168451116118cf5783516118d4565b8260ff165b905060005b8181101561191557806008028582815181106118f7576118f76120a0565b01602001516001600160f81b031916901c92909217916001016118d9565b505092915050565b6000816020015182600001515180821115611955576040516363a056dd60e01b81526004810183905260248101829052604401610638565b83516020850180518083016001015195509081906119728261247e565b8152505050505050919050565b600060188260ff161015611997575060ff8116610ec3565b8160ff166018036119b5576119ab8361191d565b60ff169050610ec3565b8160ff166019036119d4576119c983611bb4565b61ffff169050610ec3565b8160ff16601a036119f5576119e883611c20565b63ffffffff169050610ec3565b8160ff16601b03611a1057611a0983611c7f565b9050610ec3565b8160ff16601f03611a2957506001600160401b03610ec3565b604051636d785b1360e01b815260ff83166004820152602401610638565b600080611a538461191d565b90508060ff1660ff03611a70576001600160401b03915050610ec3565b611a7d8482601f1661197f565b91506001600160401b0380831610611ab357604051636d785b1360e01b81526001600160401b0383166004820152602401610638565b60ff83166007600583901c1614611aed5760405161800560e51b81526007600583901c16600482015260ff84166024820152604401610638565b5092915050565b6060818360200151611b069190612497565b83515180821115611b34576040516363a056dd60e01b81526004810183905260248101829052604401610638565b836001600160401b03811115611b4c57611b4c612001565b6040519080825280601f01601f191660200182016040528015611b76576020820181803683370190505b5092508315611915578451602080870151908183018101908601611b9b81838a611cde565b611ba789896001611d24565b5050505050505092915050565b600081602001516002611bc79190612497565b82515180821115611bf5576040516363a056dd60e01b81526004810183905260248101829052604401610638565b8351602085018051600281840181015196509091611c138284612497565b9052509395945050505050565b600081602001516004611c339190612497565b82515180821115611c61576040516363a056dd60e01b81526004810183905260248101829052604401610638565b8351602085018051600481840181015196509091611c138284612497565b600081602001516008611c929190612497565b82515180821115611cc0576040516363a056dd60e01b81526004810183905260248101829052604401610638565b8351602085018051600881840181015196509091611c138284612497565b5b60208110611cfe578151835260209283019290910190601f1901611cdf565b8015610f81578151835160208390036101000a6000190180199092169116178352505050565b60008284600001515180821115611d58576040516363a056dd60e01b81526004810183905260248101829052604401610638565b8315611d70576020860151611d6d9086612497565b94505b5050505060209190910181905290565b6040518060400160405280600015158152602001611d9c611da1565b905290565b604080516101008101909152606060c08201908152600060e08301528190815260006020820181905260408201819052606082018190526080820181905260a09091015290565b60005b83811015611e03578181015183820152602001611deb565b50506000910152565b720dcdee840d2dae0d8cadacadce8cac8744060f606b1b815260008551611e3a816013850160208a01611de8565b855190830190611e51816013840160208a01611de8565b8551910190611e67816013840160208901611de8565b8451910190611e7d816013840160208801611de8565b016013019695505050505050565b600060208284031215611e9d57600080fd5b5035919050565b63ffffffff8116811461100457600080fd5b600080600060608486031215611ecb57600080fd5b8335611ed681611ea4565b95602085013595506040909401359392505050565b634e487b7160e01b600052602160045260246000fd5b6020810160068310611f2357634e487b7160e01b600052602160045260246000fd5b91905290565b600060208284031215611f3b57600080fd5b813561ffff81168114610a2f57600080fd5b6020815260008251806020840152611f6c816040850160208701611de8565b601f01601f19169190910160400192915050565b60006040828403121561144157600080fd5b6001600160a01b038116811461100457600080fd5b600060208284031215611fb957600080fd5b8135610a2f81611f92565b60008351611fd6818460208801611de8565b6101d160f51b9083019081528351611ff5816002840160208801611de8565b01600201949350505050565b634e487b7160e01b600052604160045260246000fd5b634e487b7160e01b600052601260045260246000fd5b634e487b7160e01b600052601160045260246000fd5b600060ff83168061205657612056612017565b8060ff84160491505092915050565b60ff8181168382160190811115610ec357610ec361202d565b600060ff83168061209157612091612017565b8060ff84160691505092915050565b634e487b7160e01b600052603260045260246000fd5b6000602082840312156120c857600080fd5b815160068110610a2f57600080fd5b60405160a081016001600160401b03811182821017156120f9576120f9612001565b60405290565b6001600160401b038116811461100457600080fd5b600082601f83011261212557600080fd5b81516001600160401b038082111561213f5761213f612001565b604051601f8301601f19908116603f0116810190828211818310171561216757612167612001565b8160405283815286602085880101111561218057600080fd5b6113d8846020830160208901611de8565b6000602082840312156121a357600080fd5b81516001600160401b03808211156121ba57600080fd5b9083019060a082860312156121ce57600080fd5b6121d66120d7565b82516121e181611f92565b815260208301516121f1816120ff565b6020820152604083015161220481611ea4565b60408201526060838101519082015260808301518281111561222557600080fd5b61223187828601612114565b60808301525095945050505050565b82815260608101610a2f60208301845460ff8116825260081c6001600160401b0316602090910152565b60006020828403121561227c57600080fd5b5051919050565b600060c0820190508682528560208301528460408301528360608301526113d860808301845460ff8116825260081c6001600160401b0316602090910152565b81810381811115610ec357610ec361202d565b61ffff818116838216019080821115611aed57611aed61202d565b8082028115828204841417610ec357610ec361202d565b60008261231757612317612017565b500490565b634e487b7160e01b600052600160045260246000fd5b60ff8116811461100457600080fd5b813561234c81612332565b60ff8116905081548160ff198216178355602084013561236b816120ff565b68ffffffffffffffff008160081b168368ffffffffffffffffff198416171784555050505050565b60208082526032908201527f5769746e65743a20747269656420746f206465636f64652076616c756520667260408201527137b69032b93937b932b2103932b9bab63a1760711b606082015260800190565b6000602082840312156123f757600080fd5b81516001600160401b0381111561240d57600080fd5b61241984828501612114565b949350505050565b60006020828403121561243357600080fd5b8135610a2f816120ff565b60006020828403121561245057600080fd5b8135610a2f81612332565b6001600160401b038181168382160280821691908281146119155761191561202d565b6000600182016124905761249061202d565b5060010190565b80820180821115610ec357610ec361202d565b600082516124bc818460208701611de8565b9190910192915050565b600083516124d8818460208801611de8565b8351908301906124ec818360208801611de8565b0194935050505056fea2646970667358221220a7d132818b11585f7a3bfec2ecaa814d67803886db4209237c7caf9aaacd671564736f6c63430008190033",
  "immutableReferences": {
    "1016": [
      {
        "length": 32,
        "start": 648
      },
      {
        "length": 32,
        "start": 2012
      },
      {
        "length": 32,
        "start": 2179
      },
      {
        "length": 32,
        "start": 2644
      },
      {
        "length": 32,
        "start": 3191
      },
      {
        "length": 32,
        "start": 3630
      },
      {
        "length": 32,
        "start": 4693
      },
      {
        "length": 32,
        "start": 4873
      }
    ],
    "2037": [
      {
        "length": 32,
        "start": 722
      },
      {
        "length": 32,
        "start": 2692
      }
    ]
  },
  "source": "// SPDX-License-Identifier: MIT\r\n\r\npragma solidity >=0.8.0 <0.9.0;\r\n\r\nimport \"../WitnetRandomness.sol\";\r\nimport \"../apps/UsingWitnet.sol\";\r\nimport \"../interfaces/IWitnetRandomnessAdmin.sol\";\r\nimport \"../patterns/Ownable2Step.sol\";\r\n\r\n/// @title WitnetRandomnessV2: Unmalleable and provably-fair randomness generation based on the Witnet Oracle v2.*.\r\n/// @author The Witnet Foundation.\r\ncontract WitnetRandomnessV2\r\n    is\r\n        Ownable2Step,\r\n        UsingWitnet,\r\n        WitnetRandomness,\r\n        IWitnetRandomnessAdmin\r\n{\r\n    using Witnet for bytes;\r\n    using Witnet for Witnet.Result;\r\n    using WitnetV2 for WitnetV2.RadonSLA;\r\n\r\n    struct Randomize {\r\n        uint256 witnetQueryId;\r\n        uint256 prevBlock;\r\n        uint256 nextBlock;\r\n    }\r\n\r\n    struct Storage {\r\n        uint256 lastRandomizeBlock;\r\n        mapping (uint256 => Randomize) randomize_;\r\n    }\r\n\r\n    /// @notice Unique identifier of the RNG data request used on the Witnet Oracle blockchain for solving randomness.\r\n    /// @dev Can be used to track all randomness requests solved so far on the Witnet Oracle blockchain.\r\n    bytes32 immutable public override witnetRadHash;\r\n\r\n    constructor(\r\n            WitnetOracle _witnet,\r\n            address _operator\r\n        )\r\n        Ownable(_operator)\r\n        UsingWitnet(_witnet)\r\n    {\r\n        _require(\r\n            address(_witnet) == address(0)\r\n                || _witnet.specs() == type(IWitnetOracle).interfaceId,\r\n            \"uncompliant WitnetOracle\"\r\n        );\r\n        WitnetRequestBytecodes _registry = witnet().registry();\r\n        {\r\n            // Build own Witnet Randomness Request:\r\n            bytes32[] memory _retrievals = new bytes32[](1);\r\n            _retrievals[0] = _registry.verifyRadonRetrieval(\r\n                Witnet.RadonDataRequestMethods.RNG,\r\n                \"\", // no request url\r\n                \"\", // no request body\r\n                new string[2][](0), // no request headers\r\n                hex\"80\" // no request Radon script\r\n            );\r\n            Witnet.RadonFilter[] memory _filters;\r\n            bytes32 _aggregator = _registry.verifyRadonReducer(Witnet.RadonReducer({\r\n                opcode: Witnet.RadonReducerOpcodes.Mode,\r\n                filters: _filters // no filters\r\n            }));\r\n            bytes32 _tally = _registry.verifyRadonReducer(Witnet.RadonReducer({\r\n                opcode: Witnet.RadonReducerOpcodes.ConcatenateAndHash,\r\n                filters: _filters // no filters\r\n            }));\r\n            witnetRadHash = _registry.verifyRadonRequest(\r\n                _retrievals,\r\n                _aggregator,\r\n                _tally,\r\n                32, // 256 bits of pure entropy ;-)\r\n                new string[][](_retrievals.length)\r\n            );\r\n        }\r\n    }\r\n\r\n    receive() virtual external payable {\r\n        _revert(\"no transfers accepted\");\r\n    }\r\n\r\n    fallback() virtual external payable { \r\n        _revert(string(abi.encodePacked(\r\n            \"not implemented: 0x\",\r\n            Witnet.toHexString(uint8(bytes1(msg.sig))),\r\n            Witnet.toHexString(uint8(bytes1(msg.sig << 8))),\r\n            Witnet.toHexString(uint8(bytes1(msg.sig << 16))),\r\n            Witnet.toHexString(uint8(bytes1(msg.sig << 24)))\r\n        )));\r\n    }\r\n\r\n    function class() virtual override public pure returns (string memory) {\r\n        return type(WitnetRandomnessV2).name;\r\n    }\r\n\r\n    function specs() virtual override external pure returns (bytes4) {\r\n        return type(WitnetRandomness).interfaceId;\r\n    }\r\n\r\n    function witnet() override (IWitnetRandomness, UsingWitnet)\r\n        public view returns (WitnetOracle)\r\n    {\r\n        return UsingWitnet.witnet();\r\n    }\r\n\r\n    \r\n    /// ===============================================================================================================\r\n    /// --- 'IWitnetRandomness' implementation ------------------------------------------------------------------------\r\n\r\n    /// Returns amount of wei required to be paid as a fee when requesting randomization with a \r\n    /// transaction gas price as the one given.\r\n    function estimateRandomizeFee(uint256 _evmGasPrice)\r\n        public view\r\n        virtual override\r\n        returns (uint256)\r\n    {\r\n        return (\r\n            (100 + __witnetBaseFeeOverheadPercentage)\r\n                * __witnet.estimateBaseFee(\r\n                    _evmGasPrice, \r\n                    uint16(34)\r\n                ) \r\n        ) / 100;\r\n    }\r\n\r\n    /// @notice Retrieves the result of keccak256-hashing the given block number with the randomness value \r\n    /// @notice generated by the Witnet Oracle blockchain in response to the first non-errored randomize request solved \r\n    /// @notice after such block number.\r\n    /// @dev Reverts if:\r\n    /// @dev   i.   no `randomize()` was requested on neither the given block, nor afterwards.\r\n    /// @dev   ii.  the first non-errored `randomize()` request found on or after the given block is not solved yet.\r\n    /// @dev   iii. all `randomize()` requests that took place on or after the given block were solved with errors.\r\n    /// @param _blockNumber Block number from which the search will start\r\n    function fetchRandomnessAfter(uint256 _blockNumber)\r\n        public view\r\n        virtual override\r\n        returns (bytes32)\r\n    {\r\n        return keccak256(\r\n            abi.encode(\r\n                _blockNumber,\r\n                _fetchRandomnessAfter(_blockNumber)\r\n            )\r\n        );\r\n    }\r\n    \r\n    function _fetchRandomnessAfter(uint256 _blockNumber)\r\n        virtual internal view \r\n        returns (bytes32)\r\n    {\r\n        if (__storage().randomize_[_blockNumber].witnetQueryId == 0) {\r\n            _blockNumber = getRandomizeNextBlock(_blockNumber);\r\n        }\r\n\r\n        Randomize storage __randomize = __storage().randomize_[_blockNumber];\r\n        uint256 _witnetQueryId = __randomize.witnetQueryId;\r\n        _require(\r\n            _witnetQueryId != 0, \r\n            \"not randomized\"\r\n        );\r\n        \r\n        WitnetV2.ResponseStatus _status = __witnet.getQueryResponseStatus(_witnetQueryId);\r\n        if (_status == WitnetV2.ResponseStatus.Ready) {\r\n            return (\r\n                __witnet.getQueryResultCborBytes(_witnetQueryId)\r\n                    .toWitnetResult()\r\n                    .asBytes32()\r\n            );\r\n        } else if (_status == WitnetV2.ResponseStatus.Error) {\r\n            uint256 _nextRandomizeBlock = __randomize.nextBlock;\r\n            _require(\r\n                _nextRandomizeBlock != 0, \r\n                \"faulty randomize\"\r\n            );\r\n            return _fetchRandomnessAfter(_nextRandomizeBlock);\r\n        \r\n        } else {\r\n            _revert(\"pending randomize\");\r\n        }\r\n    }\r\n\r\n    /// @notice Retrieves the actual random value, unique hash and timestamp of the witnessing commit/reveal act that took\r\n    /// @notice place in the Witnet Oracle blockchain in response to the first non-errored randomize request\r\n    /// @notice solved after the given block number.\r\n    /// @dev Reverts if:\r\n    /// @dev   i.   no `randomize()` was requested on neither the given block, nor afterwards.\r\n    /// @dev   ii.  the first non-errored `randomize()` request found on or after the given block is not solved yet.\r\n    /// @dev   iii. all `randomize()` requests that took place on or after the given block were solved with errors.\r\n    /// @param _blockNumber Block number from which the search will start.\r\n    /// @return _witnetResultRandomness Random value provided by the Witnet blockchain and used for solving randomness after given block.\r\n    /// @return _witnetResultTimestamp Timestamp at which the randomness value was generated by the Witnet blockchain.\r\n    /// @return _witnetResultTallyHash Hash of the witnessing commit/reveal act that took place on the Witnet blockchain.\r\n    /// @return _witnetResultFinalityBlock EVM block number from which the provided randomness can be considered to be final.\r\n    function fetchRandomnessAfterProof(uint256 _blockNumber) \r\n        virtual override\r\n        public view \r\n        returns (\r\n            bytes32 _witnetResultRandomness,\r\n            uint64  _witnetResultTimestamp,\r\n            bytes32 _witnetResultTallyHash,\r\n            uint256 _witnetResultFinalityBlock\r\n        )\r\n    {\r\n        if (__storage().randomize_[_blockNumber].witnetQueryId == 0) {\r\n            _blockNumber = getRandomizeNextBlock(_blockNumber);\r\n        }\r\n\r\n        Randomize storage __randomize = __storage().randomize_[_blockNumber];\r\n        uint256 _witnetQueryId = __randomize.witnetQueryId;\r\n        _require(\r\n            _witnetQueryId != 0, \r\n            \"not randomized\"\r\n        );\r\n        \r\n        WitnetV2.ResponseStatus _status = __witnet.getQueryResponseStatus(_witnetQueryId);\r\n        if (_status == WitnetV2.ResponseStatus.Ready) {\r\n            WitnetV2.Response memory _witnetQueryResponse = __witnet.getQueryResponse(_witnetQueryId);\r\n            _witnetResultTimestamp = _witnetQueryResponse.resultTimestamp;\r\n            _witnetResultTallyHash = _witnetQueryResponse.resultTallyHash;\r\n            _witnetResultFinalityBlock = _witnetQueryResponse.finality;\r\n            _witnetResultRandomness = _witnetQueryResponse.resultCborBytes.toWitnetResult().asBytes32();\r\n\r\n        } else if (_status == WitnetV2.ResponseStatus.Error) {\r\n            uint256 _nextRandomizeBlock = __randomize.nextBlock;\r\n            _require(\r\n                _nextRandomizeBlock != 0, \r\n                \"faulty randomize\"\r\n            );\r\n            return fetchRandomnessAfterProof(_nextRandomizeBlock);\r\n        \r\n        } else {\r\n            _revert(\"pending randomize\");\r\n        }\r\n    }\r\n\r\n    /// @notice Returns last block number on which a randomize was requested.\r\n    function getLastRandomizeBlock()\r\n        virtual override\r\n        external view\r\n        returns (uint256)\r\n    {\r\n        return __storage().lastRandomizeBlock;\r\n    }\r\n\r\n    /// @notice Retrieves metadata related to the randomize request that got posted to the \r\n    /// @notice Witnet Oracle contract on the given block number.\r\n    /// @dev Returns zero values if no randomize request was actually posted on the given block.\r\n    /// @return _witnetQueryId Identifier of the underlying Witnet query created on the given block number. \r\n    /// @return _prevRandomizeBlock Block number in which a randomize request got posted just before this one. 0 if none.\r\n    /// @return _nextRandomizeBlock Block number in which a randomize request got posted just after this one, 0 if none.\r\n    function getRandomizeData(uint256 _blockNumber)\r\n        external view\r\n        virtual override\r\n        returns (\r\n            uint256 _witnetQueryId,\r\n            uint256 _prevRandomizeBlock,\r\n            uint256 _nextRandomizeBlock\r\n        )\r\n    {\r\n        Randomize storage __randomize = __storage().randomize_[_blockNumber];\r\n        _witnetQueryId = __randomize.witnetQueryId;\r\n        _prevRandomizeBlock = __randomize.prevBlock;\r\n        _nextRandomizeBlock = __randomize.nextBlock;\r\n    }\r\n\r\n    /// @notice Returns the number of the next block in which a randomize request was posted after the given one. \r\n    /// @param _blockNumber Block number from which the search will start.\r\n    /// @return Number of the first block found after the given one, or `0` otherwise.\r\n    function getRandomizeNextBlock(uint256 _blockNumber)\r\n        public view\r\n        virtual override\r\n        returns (uint256)\r\n    {\r\n        return ((__storage().randomize_[_blockNumber].witnetQueryId != 0)\r\n            ? __storage().randomize_[_blockNumber].nextBlock\r\n            // start search from the latest block\r\n            : _searchNextBlock(_blockNumber, __storage().lastRandomizeBlock)\r\n        );\r\n    }\r\n\r\n    /// @notice Returns the number of the previous block in which a randomize request was posted before the given one.\r\n    /// @param _blockNumber Block number from which the search will start. Cannot be zero.\r\n    /// @return First block found before the given one, or `0` otherwise.\r\n    function getRandomizePrevBlock(uint256 _blockNumber)\r\n        public view\r\n        virtual override\r\n        returns (uint256)\r\n    {\r\n        assert(_blockNumber > 0);\r\n        uint256 _latest = __storage().lastRandomizeBlock;\r\n        return ((_blockNumber > _latest)\r\n            ? _latest\r\n            // start search from the latest block\r\n            : _searchPrevBlock(_blockNumber, __storage().randomize_[_latest].prevBlock)\r\n        );\r\n    }\r\n\r\n    /// @notice Returns status of the first non-errored randomize request posted on or after the given block number.\r\n    /// @dev Possible values:\r\n    /// @dev - 0 -> Void: no randomize request was actually posted on or after the given block number.\r\n    /// @dev - 1 -> Awaiting: a randomize request was found but it's not yet solved by the Witnet blockchain.\r\n    /// @dev - 2 -> Ready: a successfull randomize value was reported and ready to be read.\r\n    /// @dev - 3 -> Error: all randomize requests after the given block were solved with errors.\r\n    /// @dev - 4 -> Finalizing: a randomize resolution has been reported from the Witnet blockchain, but it's not yet final.  \r\n    function getRandomizeStatus(uint256 _blockNumber)\r\n        virtual override\r\n        public view \r\n        returns (WitnetV2.ResponseStatus)\r\n    {\r\n        if (__storage().randomize_[_blockNumber].witnetQueryId == 0) {\r\n            _blockNumber = getRandomizeNextBlock(_blockNumber);\r\n        }\r\n        uint256 _witnetQueryId = __storage().randomize_[_blockNumber].witnetQueryId;\r\n        if (_witnetQueryId == 0) {\r\n            return WitnetV2.ResponseStatus.Void;\r\n        \r\n        } else {\r\n            WitnetV2.ResponseStatus _status = __witnet.getQueryResponseStatus(_witnetQueryId);\r\n            if (_status == WitnetV2.ResponseStatus.Error) {\r\n                uint256 _nextRandomizeBlock = __storage().randomize_[_blockNumber].nextBlock;\r\n                if (_nextRandomizeBlock != 0) {\r\n                    return getRandomizeStatus(_nextRandomizeBlock);\r\n                } else {\r\n                    return WitnetV2.ResponseStatus.Error;\r\n                }\r\n            } else {\r\n                return _status;\r\n            }\r\n        }\r\n    }\r\n\r\n    /// @notice Returns `true` only if a successfull resolution from the Witnet blockchain is found for the first \r\n    /// @notice non-errored randomize request posted on or after the given block number.\r\n    function isRandomized(uint256 _blockNumber)\r\n        public view\r\n        virtual override\r\n        returns (bool)\r\n    {\r\n        return (\r\n            getRandomizeStatus(_blockNumber) == WitnetV2.ResponseStatus.Ready\r\n        );\r\n    }\r\n\r\n    /// @notice Generates a pseudo-random number uniformly distributed within the range [0 .. _range), by using \r\n    /// @notice the given `nonce` and the randomness returned by `getRandomnessAfter(blockNumber)`. \r\n    /// @dev Fails under same conditions as `getRandomnessAfter(uint256)` does.\r\n    /// @param _range Range within which the uniformly-distributed random number will be generated.\r\n    /// @param _nonce Nonce value enabling multiple random numbers from the same randomness value.\r\n    /// @param _blockNumber Block number from which the search for the first randomize request solved aftewards will start.\r\n    function random(uint32 _range, uint256 _nonce, uint256 _blockNumber)\r\n        external view \r\n        virtual override\r\n        returns (uint32)\r\n    {\r\n        return WitnetV2.randomUniformUint32(\r\n            _range,\r\n            _nonce,\r\n            keccak256(\r\n                abi.encode(\r\n                    msg.sender,\r\n                    fetchRandomnessAfter(_blockNumber)\r\n                )\r\n            )\r\n        );\r\n    }\r\n\r\n    /// @notice Requests the Witnet oracle to generate an EVM-agnostic and trustless source of randomness. \r\n    /// @dev Only one randomness request per block will be actually posted to the Witnet Oracle. \r\n    /// @return _evmRandomizeFee Funds actually paid as randomize fee.\r\n    function randomize()\r\n        external payable\r\n        virtual override\r\n        returns (uint256 _evmRandomizeFee)\r\n    {\r\n        if (__storage().lastRandomizeBlock < block.number) {\r\n            _evmRandomizeFee = msg.value;\r\n            // Post the Witnet Randomness request:\r\n            uint _witnetQueryId = __witnet.postRequest{\r\n                value: _evmRandomizeFee\r\n            }(\r\n                witnetRadHash,\r\n                __witnetDefaultSLA  \r\n            );\r\n            // Keep Randomize data in storage:\r\n            Randomize storage __randomize = __storage().randomize_[block.number];\r\n            __randomize.witnetQueryId = _witnetQueryId;\r\n            // Update block links:\r\n            uint256 _prevBlock = __storage().lastRandomizeBlock;\r\n            __randomize.prevBlock = _prevBlock;\r\n            __storage().randomize_[_prevBlock].nextBlock = block.number;\r\n            __storage().lastRandomizeBlock = block.number;\r\n            // Throw event:\r\n            emit Randomizing(\r\n                block.number,\r\n                tx.gasprice,\r\n                _evmRandomizeFee,\r\n                _witnetQueryId,\r\n                __witnetDefaultSLA\r\n            );\r\n        }\r\n        // Transfer back unused funds:\r\n        if (_evmRandomizeFee < msg.value) {\r\n            payable(msg.sender).transfer(msg.value - _evmRandomizeFee);\r\n        }\r\n    }\r\n\r\n    /// @notice Returns the SLA parameters required for the Witnet Oracle blockchain to fulfill \r\n    /// @notice when solving randomness requests:\r\n    /// @notice - number of witnessing nodes contributing to randomness generation\r\n    /// @notice - reward in $nanoWIT received by every contributing node in the Witnet blockchain\r\n    function witnetQuerySLA() \r\n        virtual override\r\n        external view\r\n        returns (WitnetV2.RadonSLA memory)\r\n    {\r\n        return __witnetDefaultSLA;\r\n    }\r\n\r\n\r\n    /// ===============================================================================================================\r\n    /// --- 'IWitnetRandomnessAdmin' implementation -------------------------------------------------------------------\r\n\r\n    function acceptOwnership()\r\n        virtual override (IWitnetRandomnessAdmin, Ownable2Step)\r\n        public\r\n    {\r\n        Ownable2Step.acceptOwnership();\r\n    }\r\n\r\n    function baseFeeOverheadPercentage()\r\n        virtual override\r\n        external view \r\n        returns (uint16)\r\n    {\r\n        return __witnetBaseFeeOverheadPercentage;\r\n    }\r\n\r\n    function owner()\r\n        virtual override (IWitnetRandomnessAdmin, Ownable)\r\n        public view \r\n        returns (address)\r\n    {\r\n        return Ownable.owner();\r\n    }\r\n\r\n    function pendingOwner() \r\n        virtual override (IWitnetRandomnessAdmin, Ownable2Step)\r\n        public view\r\n        returns (address)\r\n    {\r\n        return Ownable2Step.pendingOwner();\r\n    }\r\n    \r\n    function transferOwnership(address _newOwner)\r\n        virtual override (IWitnetRandomnessAdmin, Ownable2Step)\r\n        public \r\n        onlyOwner\r\n    {\r\n        Ownable.transferOwnership(_newOwner);\r\n    }\r\n\r\n    function settleBaseFeeOverheadPercentage(uint16 _baseFeeOverheadPercentage)\r\n        virtual override\r\n        external\r\n        onlyOwner\r\n    {\r\n        __witnetBaseFeeOverheadPercentage = _baseFeeOverheadPercentage;\r\n    }\r\n\r\n    function settleWitnetQuerySLA(WitnetV2.RadonSLA calldata _witnetQuerySLA)\r\n        virtual override\r\n        external\r\n        onlyOwner\r\n    {\r\n        _require(\r\n            _witnetQuerySLA.isValid(),\r\n            \"invalid SLA\"\r\n        );\r\n        __witnetDefaultSLA = _witnetQuerySLA;\r\n    }\r\n\r\n\r\n    // ================================================================================================================\r\n    // --- Internal methods -------------------------------------------------------------------------------------------\r\n\r\n    function _require(\r\n            bool _condition, \r\n            string memory _message\r\n        )\r\n        internal pure\r\n    {\r\n        if (!_condition) {\r\n            _revert(_message);\r\n        }\r\n    }\r\n\r\n    function _revert(string memory _message)\r\n        internal pure\r\n    {\r\n        revert(\r\n            string(abi.encodePacked(\r\n                class(),\r\n                \": \",\r\n                _message\r\n            ))\r\n        );\r\n    }\r\n\r\n    /// @dev Recursively searches for the number of the first block after the given one in which a Witnet \r\n    /// @dev randomness request was posted. Returns 0 if none found.\r\n    function _searchNextBlock(uint256 _target, uint256 _latest) internal view returns (uint256) {\r\n        return ((_target >= _latest) \r\n            ? __storage().randomize_[_latest].nextBlock\r\n            : _searchNextBlock(_target, __storage().randomize_[_latest].prevBlock)\r\n        );\r\n    }\r\n\r\n    /// @dev Recursively searches for the number of the first block before the given one in which a Witnet \r\n    /// @dev randomness request was posted. Returns 0 if none found.\r\n    function _searchPrevBlock(uint256 _target, uint256 _latest) internal view returns (uint256) {\r\n        return ((_target > _latest)\r\n            ? _latest\r\n            : _searchPrevBlock(_target, __storage().randomize_[_latest].prevBlock)\r\n        );\r\n    }\r\n\r\n    bytes32 private constant _STORAGE_SLOT = \r\n        // keccak256(\"io.witnet.apps.randomness.v20\")\r\n        0x643778935c57df947f6944f6a5242a3e91445f6337f4b2ec670c8642153b614f;\r\n\r\n    function __storage() internal pure returns (Storage storage _ptr) {\r\n        assembly {\r\n            _ptr.slot := _STORAGE_SLOT\r\n        }\r\n    }\r\n}\r\n",
  "compiler": {
    "name": "solc",
    "version": "0.8.25+commit.b61c2a91.Emscripten.clang"
  },
  "schemaVersion": "3.4.16",
  "updatedAt": "2024-10-23T18:57:33.375Z",
  "networkType": "ethereum",
  "devdoc": {
    "author": "The Witnet Foundation.",
    "errors": {
      "OwnableInvalidOwner(address)": [
        {
          "details": "The owner is not a valid owner account. (eg. `address(0)`)"
        }
      ],
      "OwnableUnauthorizedAccount(address)": [
        {
          "details": "The caller account is not authorized to perform an operation."
        }
      ]
    },
    "kind": "dev",
    "methods": {
      "fetchRandomnessAfter(uint256)": {
        "details": "Reverts if:i.   no `randomize()` was requested on neither the given block, nor afterwards.ii.  the first non-errored `randomize()` request found on or after the given block is not solved yet.iii. all `randomize()` requests that took place on or after the given block were solved with errors.",
        "params": {
          "_blockNumber": "Block number from which the search will start"
        }
      },
      "fetchRandomnessAfterProof(uint256)": {
        "details": "Reverts if:i.   no `randomize()` was requested on neither the given block, nor afterwards.ii.  the first non-errored `randomize()` request found on or after the given block is not solved yet.iii. all `randomize()` requests that took place on or after the given block were solved with errors.",
        "params": {
          "_blockNumber": "Block number from which the search will start."
        },
        "returns": {
          "_witnetResultFinalityBlock": "EVM block number from which the provided randomness can be considered to be final.",
          "_witnetResultRandomness": "Random value provided by the Witnet blockchain and used for solving randomness after given block.",
          "_witnetResultTallyHash": "Hash of the witnessing commit/reveal act that took place on the Witnet blockchain.",
          "_witnetResultTimestamp": "Timestamp at which the randomness value was generated by the Witnet blockchain."
        }
      },
      "getRandomizeData(uint256)": {
        "details": "Returns zero values if no randomize request was actually posted on the given block.",
        "returns": {
          "_nextRandomizeBlock": "Block number in which a randomize request got posted just after this one, 0 if none.",
          "_prevRandomizeBlock": "Block number in which a randomize request got posted just before this one. 0 if none.",
          "_witnetQueryId": "Identifier of the underlying Witnet query created on the given block number. "
        }
      },
      "getRandomizeNextBlock(uint256)": {
        "params": {
          "_blockNumber": "Block number from which the search will start."
        },
        "returns": {
          "_0": "Number of the first block found after the given one, or `0` otherwise."
        }
      },
      "getRandomizePrevBlock(uint256)": {
        "params": {
          "_blockNumber": "Block number from which the search will start. Cannot be zero."
        },
        "returns": {
          "_0": "First block found before the given one, or `0` otherwise."
        }
      },
      "getRandomizeStatus(uint256)": {
        "details": "Possible values:- 0 -> Void: no randomize request was actually posted on or after the given block number.- 1 -> Awaiting: a randomize request was found but it's not yet solved by the Witnet blockchain.- 2 -> Ready: a successfull randomize value was reported and ready to be read.- 3 -> Error: all randomize requests after the given block were solved with errors.- 4 -> Finalizing: a randomize resolution has been reported from the Witnet blockchain, but it's not yet final.  "
      },
      "random(uint32,uint256,uint256)": {
        "details": "Fails under same conditions as `getRandomnessAfter(uint256)` does.",
        "params": {
          "_blockNumber": "Block number from which the search for the first randomize request solved aftewards will start.",
          "_nonce": "Nonce value enabling multiple random numbers from the same randomness value.",
          "_range": "Range within which the uniformly-distributed random number will be generated."
        }
      },
      "randomize()": {
        "details": "Only one randomness request per block will be actually posted to the Witnet Oracle. ",
        "returns": {
          "_evmRandomizeFee": "Funds actually paid as randomize fee."
        }
      },
      "renounceOwnership()": {
        "details": "Leaves the contract without owner. It will not be possible to call `onlyOwner` functions. Can only be called by the current owner. NOTE: Renouncing ownership will leave the contract without an owner, thereby disabling any functionality that is only available to the owner."
      }
    },
    "stateVariables": {
      "witnetRadHash": {
        "details": "Can be used to track all randomness requests solved so far on the Witnet Oracle blockchain."
      }
    },
    "title": "WitnetRandomnessV2: Unmalleable and provably-fair randomness generation based on the Witnet Oracle v2.*.",
    "version": 1
  },
  "userdoc": {
    "events": {
      "WitnetQuery(uint256,uint256,(uint8,uint64))": {
        "notice": "Emitted every time a new query containing some verified data request is posted to the WRB."
      },
      "WitnetQueryResponse(uint256,uint256)": {
        "notice": "Emitted when a query with no callback gets reported into the WRB."
      },
      "WitnetQueryResponseDelivered(uint256,uint256,uint256)": {
        "notice": "Emitted when a query with a callback gets successfully reported into the WRB."
      },
      "WitnetQueryResponseDeliveryFailed(uint256,bytes,uint256,uint256,string)": {
        "notice": "Emitted when a query with a callback cannot get reported into the WRB."
      },
      "WitnetQueryRewardUpgraded(uint256,uint256)": {
        "notice": "Emitted when the reward of some not-yet reported query is upgraded."
      }
    },
    "kind": "user",
    "methods": {
      "acceptOwnership()": {
        "notice": "=============================================================================================================== --- 'IWitnetRandomnessAdmin' implementation -------------------------------------------------------------------"
      },
      "estimateRandomizeFee(uint256)": {
        "notice": "Returns amount of wei required to be paid as a fee when requesting randomization with a  transaction gas price as the one given."
      },
      "fetchRandomnessAfter(uint256)": {
        "notice": "Retrieves the result of keccak256-hashing the given block number with the randomness value generated by the Witnet Oracle blockchain in response to the first non-errored randomize request solved after such block number."
      },
      "fetchRandomnessAfterProof(uint256)": {
        "notice": "Retrieves the actual random value, unique hash and timestamp of the witnessing commit/reveal act that tookplace in the Witnet Oracle blockchain in response to the first non-errored randomize requestsolved after the given block number."
      },
      "getLastRandomizeBlock()": {
        "notice": "Returns last block number on which a randomize was requested."
      },
      "getRandomizeData(uint256)": {
        "notice": "Retrieves metadata related to the randomize request that got posted to the Witnet Oracle contract on the given block number."
      },
      "getRandomizeNextBlock(uint256)": {
        "notice": "Returns the number of the next block in which a randomize request was posted after the given one. "
      },
      "getRandomizePrevBlock(uint256)": {
        "notice": "Returns the number of the previous block in which a randomize request was posted before the given one."
      },
      "getRandomizeStatus(uint256)": {
        "notice": "Returns status of the first non-errored randomize request posted on or after the given block number."
      },
      "isRandomized(uint256)": {
        "notice": "Returns `true` only if a successfull resolution from the Witnet blockchain is found for the first non-errored randomize request posted on or after the given block number."
      },
      "random(uint32,uint256,uint256)": {
        "notice": "Generates a pseudo-random number uniformly distributed within the range [0 .. _range), by using the given `nonce` and the randomness returned by `getRandomnessAfter(blockNumber)`. "
      },
      "randomize()": {
        "notice": "Requests the Witnet oracle to generate an EVM-agnostic and trustless source of randomness. "
      },
      "witnetQuerySLA()": {
        "notice": "Returns the SLA parameters required for the Witnet Oracle blockchain to fulfill when solving randomness requests:- number of witnessing nodes contributing to randomness generation- reward in $nanoWIT received by every contributing node in the Witnet blockchain"
      },
      "witnetRadHash()": {
        "notice": "Unique identifier of the RNG data request used on the Witnet Oracle blockchain for solving randomness."
      }
    },
    "version": 1
  }
}