{
    "contractName": "WitnetDeployerConfluxCore",
    "abi": [
        {
            "inputs": [
                {
                    "internalType": "bytes",
                    "name": "_initCode",
                    "type": "bytes"
                },
                {
                    "internalType": "bytes32",
                    "name": "_salt",
                    "type": "bytes32"
                }
            ],
            "name": "deploy",
            "outputs": [
                {
                    "internalType": "address",
                    "name": "_deployed",
                    "type": "address"
                }
            ],
            "stateMutability": "nonpayable",
            "type": "function"
        },
        {
            "inputs": [
                {
                    "internalType": "bytes",
                    "name": "_initCode",
                    "type": "bytes"
                },
                {
                    "internalType": "bytes32",
                    "name": "_salt",
                    "type": "bytes32"
                }
            ],
            "name": "determineAddr",
            "outputs": [
                {
                    "internalType": "address",
                    "name": "",
                    "type": "address"
                }
            ],
            "stateMutability": "view",
            "type": "function"
        },
        {
            "inputs": [
                {
                    "internalType": "bytes32",
                    "name": "_salt",
                    "type": "bytes32"
                }
            ],
            "name": "determineProxyAddr",
            "outputs": [
                {
                    "internalType": "address",
                    "name": "",
                    "type": "address"
                }
            ],
            "stateMutability": "view",
            "type": "function"
        },
        {
            "inputs": [
                {
                    "internalType": "bytes32",
                    "name": "_proxySalt",
                    "type": "bytes32"
                },
                {
                    "internalType": "address",
                    "name": "_firstImplementation",
                    "type": "address"
                },
                {
                    "internalType": "bytes",
                    "name": "_initData",
                    "type": "bytes"
                }
            ],
            "name": "proxify",
            "outputs": [
                {
                    "internalType": "contract WitnetProxy",
                    "name": "",
                    "type": "address"
                }
            ],
            "stateMutability": "nonpayable",
            "type": "function"
        }
    ],
    "bytecode": "0x6080604052348015600f57600080fd5b50610f628061001f6000396000f3fe608060405234801561001057600080fd5b506004361061004c5760003560e01c80634998f038146100515780634af63f02146100805780635ba489e714610093578063d3933c29146100a6575b600080fd5b61006461005f366004610341565b6100b9565b6040516001600160a01b03909116815260200160405180910390f35b61006461008e3660046103fd565b6100ed565b6100646100a1366004610442565b61017e565b6100646100b43660046103fd565b6102c9565b60006100e7604051806020016100ce90610334565b601f1982820381018352601f90910116604052836102c9565b92915050565b60006100f983836102c9565b9050806001600160a01b03163b6000036100e757818351602085016000f590506001600160a01b0381166100e75760405162461bcd60e51b815260206004820152602160248201527f5769746e65744465706c6f7965723a206465706c6f796d656e74206661696c656044820152601960fa1b60648201526084015b60405180910390fd5b60008061018a856100b9565b9050806001600160a01b03163b600003610265576101ca604051806020016101b190610334565b601f1982820381018352601f90910116604052866100ed565b50806001600160a01b0316636fbc15e98533866040516020016101ee9291906104a7565b6040516020818303038152906040526040518363ffffffff1660e01b815260040161021a9291906104a7565b6020604051808303816000875af1158015610239573d6000803e3d6000fd5b505050506040513d601f19601f8201168201806040525081019061025d9190610506565b5090506102c2565b60405162461bcd60e51b815260206004820152602c60248201527f5769746e65744465706c6f796572436f6e666c7578436f72653a20616c72656160448201526b191e481c1c9bde1a599a595960a21b6064820152608401610175565b9392505050565b8151602092830120604080516001600160f81b0319818601523060601b6bffffffffffffffffffffffff191660218201526035810193909352605580840192909252805180840390920182526075909201909152805191012060016001609c1b03166001609f1b1790565b610a048061052983390190565b60006020828403121561035357600080fd5b5035919050565b634e487b7160e01b600052604160045260246000fd5b600082601f83011261038157600080fd5b813567ffffffffffffffff8082111561039c5761039c61035a565b604051601f8301601f19908116603f011681019082821181831017156103c4576103c461035a565b816040528381528660208588010111156103dd57600080fd5b836020870160208301376000602085830101528094505050505092915050565b6000806040838503121561041057600080fd5b823567ffffffffffffffff81111561042757600080fd5b61043385828601610370565b95602094909401359450505050565b60008060006060848603121561045757600080fd5b8335925060208401356001600160a01b038116811461047557600080fd5b9150604084013567ffffffffffffffff81111561049157600080fd5b61049d86828701610370565b9150509250925092565b60018060a01b03831681526000602060406020840152835180604085015260005b818110156104e4578581018301518582016060015282016104c8565b506000606082860101526060601f19601f830116850101925050509392505050565b60006020828403121561051857600080fd5b815180151581146102c257600080fdfe6080604052348015600f57600080fd5b506109e58061001f6000396000f3fe60806040526004361061002d5760003560e01c80635c60da1b146100655780636fbc15e91461009757610034565b3661003457005b600061003e6100c7565b905060405136600082376000803683855af43d806000843e818015610061578184f35b8184fd5b34801561007157600080fd5b5061007a6100c7565b6040516001600160a01b0390911681526020015b60405180910390f35b3480156100a357600080fd5b506100b76100b2366004610791565b6100f5565b604051901515815260200161008e565b7f360894a13ba1a3210667c828492db98dca3e2076cc3735a920a3ca505d382bbc546001600160a01b031690565b60006001600160a01b0383166101525760405162461bcd60e51b815260206004820181905260248201527f5769746e657450726f78793a206e756c6c20696d706c656d656e746174696f6e60448201526064015b60405180910390fd5b600061015c6100c7565b90506001600160a01b0381161561050857806001600160a01b0316846001600160a01b0316036101ce5760405162461bcd60e51b815260206004820152601f60248201527f5769746e657450726f78793a206e6f7468696e6720746f2075706772616465006044820152606401610149565b806001600160a01b0316635479d9406040518163ffffffff1660e01b8152600401602060405180830381865afa925050508015610228575060408051601f3d908101601f1916820190925261022591810190610830565b60015b6102875760405162461bcd60e51b815260206004820152602a60248201527f5769746e657450726f78793a20756e61626c6520746f20636865636b207570676044820152697261646162696c69747960b01b6064820152608401610149565b806102d45760405162461bcd60e51b815260206004820152601b60248201527f5769746e657450726f78793a206e6f742075706772616461626c6500000000006044820152606401610149565b5060405133602482015260009081906001600160a01b0384169060440160408051601f198184030181529181526020820180516001600160e01b03166335ac4b0560e11b17905251610326919061087d565b600060405180830381855af49150503d8060008114610361576040519150601f19603f3d011682016040523d82523d6000602084013e610366565b606091505b5091509150816103885760405162461bcd60e51b815260040161014990610899565b8080602001905181019061039c9190610830565b6103e85760405162461bcd60e51b815260206004820152601b60248201527f5769746e657450726f78793a206e6f7420617574686f72697a656400000000006044820152606401610149565b856001600160a01b03166352d1902d6040518163ffffffff1660e01b8152600401602060405180830381865afa158015610426573d6000803e3d6000fd5b505050506040513d601f19601f8201168201806040525081019061044a91906108e0565b836001600160a01b03166352d1902d6040518163ffffffff1660e01b8152600401602060405180830381865afa158015610488573d6000803e3d6000fd5b505050506040513d601f19601f820116820180604052508101906104ac91906108e0565b146105055760405162461bcd60e51b8152602060048201526024808201527f5769746e657450726f78793a2070726f786961626c655555494473206d69736d6044820152630c2e8c6d60e31b6064820152608401610149565b50505b600080856001600160a01b0316856040516024016105269190610925565b60408051601f198184030181529181526020820180516001600160e01b031663439fab9160e01b1790525161055b919061087d565b600060405180830381855af49150503d8060008114610596576040519150601f19603f3d011682016040523d82523d6000602084013e61059b565b606091505b509150915081610635576044815110156106025760405162461bcd60e51b815260206004820152602260248201527f5769746e657450726f78793a20696e697469616c697a6174696f6e206661696c604482015261195960f21b6064820152608401610149565b6004810190508080602001905181019061061c9190610938565b60405162461bcd60e51b81526004016101499190610925565b7f360894a13ba1a3210667c828492db98dca3e2076cc3735a920a3ca505d382bbc80546001600160a01b0319166001600160a01b0388169081179091556040517fbc7cd75a20ee27fd9adebab32041f755214dbc6bffa90cc0225b39da2e5c2d3b90600090a2856001600160a01b0316635479d9406040518163ffffffff1660e01b8152600401602060405180830381865afa9250505080156106f5575060408051601f3d908101601f191682019092526106f291810190610830565b60015b6107115760405162461bcd60e51b815260040161014990610899565b935061071c92505050565b92915050565b634e487b7160e01b600052604160045260246000fd5b604051601f8201601f1916810167ffffffffffffffff8111828210171561076157610761610722565b604052919050565b600067ffffffffffffffff82111561078357610783610722565b50601f01601f191660200190565b600080604083850312156107a457600080fd5b82356001600160a01b03811681146107bb57600080fd5b9150602083013567ffffffffffffffff8111156107d757600080fd5b8301601f810185136107e857600080fd5b80356107fb6107f682610769565b610738565b81815286602083850101111561081057600080fd5b816020840160208301376000602083830101528093505050509250929050565b60006020828403121561084257600080fd5b8151801515811461085257600080fd5b9392505050565b60005b8381101561087457818101518382015260200161085c565b50506000910152565b6000825161088f818460208701610859565b9190910192915050565b60208082526027908201527f5769746e657450726f78793a20756e636f6d706c69616e7420696d706c656d65604082015266373a30ba34b7b760c91b606082015260800190565b6000602082840312156108f257600080fd5b5051919050565b60008151808452610911816020860160208601610859565b601f01601f19169290920160200192915050565b60208152600061085260208301846108f9565b60006020828403121561094a57600080fd5b815167ffffffffffffffff81111561096157600080fd5b8201601f8101841361097257600080fd5b80516109806107f682610769565b81815285602083850101111561099557600080fd5b6109a6826020830160208601610859565b9594505050505056fea2646970667358221220ba4d61ba6dc6b10826f1b2f21a7fb1965aee5031bae62952c0d5d7b7c16674ab64736f6c63430008190033a26469706673582212200b7d983a8f8afdda5f4575fde8d9163c7ce80cac32696cf093bd7c8e5e81e28264736f6c63430008190033",
    "immutableReferences": {},
    "source": "// SPDX-License-Identifier: MIT\r\n\r\npragma solidity >=0.8.0 <0.9.0;\r\n\r\nimport \"./WitnetDeployer.sol\";\r\n\r\n/// @notice WitnetDeployerConfluxCore contract used both as CREATE2 factory (EIP-1014) for Witnet artifacts, \r\n/// @notice and CREATE3 factory (EIP-3171) for Witnet proxies, on the Conflux Core Ecosystem.\r\n/// @author Guillermo Daz <guillermo@otherplane.com>\r\n\r\ncontract WitnetDeployerConfluxCore is WitnetDeployer {\r\n\r\n    /// @notice Determine counter-factual address of the contract that would be deployed by the given `_initCode` and a `_salt`.\r\n    /// @param _initCode Creation code, including construction logic and input parameters.\r\n    /// @param _salt Arbitrary value to modify resulting address.\r\n    /// @return Deterministic contract address.\r\n    function determineAddr(bytes memory _initCode, bytes32 _salt)\r\n        virtual override\r\n        public view\r\n        returns (address)\r\n    {\r\n        return address(\r\n            (uint160(uint(keccak256(\r\n                abi.encodePacked(\r\n                    bytes1(0xff),\r\n                    address(this),\r\n                    _salt,\r\n                    keccak256(_initCode)\r\n                )\r\n            ))) & uint160(0x0fffFFFFFfFfffFfFfFFffFffFffFFfffFfFFFFf)\r\n            ) | uint160(0x8000000000000000000000000000000000000000)\r\n        );\r\n    }\r\n\r\n    function determineProxyAddr(bytes32 _salt) \r\n        virtual override\r\n        public view\r\n        returns (address)\r\n    {\r\n        return determineAddr(type(WitnetProxy).creationCode, _salt);\r\n    }\r\n\r\n    function proxify(bytes32 _proxySalt, address _firstImplementation, bytes memory _initData)\r\n        virtual override external \r\n        returns (WitnetProxy)\r\n    {\r\n        address _proxyAddr = determineProxyAddr(_proxySalt);\r\n        if (_proxyAddr.code.length == 0) {\r\n            // deploy the WitnetProxy\r\n            deploy(type(WitnetProxy).creationCode, _proxySalt);\r\n            // settle first implementation address,\r\n            WitnetProxy(payable(_proxyAddr)).upgradeTo(\r\n                _firstImplementation, \r\n                // and initialize it, providing\r\n                abi.encode(\r\n                    // the owner (i.e. the caller of this function)\r\n                    msg.sender,\r\n                    // and some (optional) initialization data\r\n                     _initData\r\n                )\r\n            );\r\n            return WitnetProxy(payable(_proxyAddr));\r\n        } else {\r\n            revert(\"WitnetDeployerConfluxCore: already proxified\");\r\n        }\r\n    }\r\n\r\n}",
    "sourcePath": "C:\\Users\\guill\\github\\guidiaz\\witnet-solidity-bridge\\contracts\\core\\WitnetDeployerConfluxCore.sol",
    "compiler": {
        "name": "solc",
        "version": "0.8.25+commit.b61c2a91.Emscripten.clang"
    },
    "schemaVersion": "3.4.16",
    "updatedAt": "2024-10-20T09:42:12.835Z",
    "devdoc": {
        "author": "Guillermo Daz <guillermo@otherplane.com>",
        "kind": "dev",
        "methods": {
            "deploy(bytes,bytes32)": {
                "details": "The address of deployed address will be determined by both the `_initCode` and the `_salt`, but not the addressnor the nonce of the caller (i.e. see EIP-1014). ",
                "params": {
                    "_initCode": "Creation code, including construction logic and input parameters.",
                    "_salt": "Arbitrary value to modify resulting address."
                },
                "returns": {
                    "_deployed": "Just deployed contract address."
                }
            },
            "determineAddr(bytes,bytes32)": {
                "params": {
                    "_initCode": "Creation code, including construction logic and input parameters.",
                    "_salt": "Arbitrary value to modify resulting address."
                },
                "returns": {
                    "_0": "Deterministic contract address."
                }
            }
        },
        "version": 1
    },
    "userdoc": {
        "kind": "user",
        "methods": {
            "deploy(bytes,bytes32)": {
                "notice": "Use given `_initCode` and `_salt` to deploy a contract into a deterministic address. "
            },
            "determineAddr(bytes,bytes32)": {
                "notice": "Determine counter-factual address of the contract that would be deployed by the given `_initCode` and a `_salt`."
            }
        },
        "notice": "WitnetDeployerConfluxCore contract used both as CREATE2 factory (EIP-1014) for Witnet artifacts, and CREATE3 factory (EIP-3171) for Witnet proxies, on the Conflux Core Ecosystem.",
        "version": 1
    }
}