{
    "contractName": "WitnetProxy",
    "abi": [
        {
            "inputs": [],
            "stateMutability": "nonpayable",
            "type": "constructor"
        },
        {
            "anonymous": false,
            "inputs": [
                {
                    "indexed": true,
                    "internalType": "address",
                    "name": "implementation",
                    "type": "address"
                }
            ],
            "name": "Upgraded",
            "type": "event"
        },
        {
            "stateMutability": "payable",
            "type": "fallback"
        },
        {
            "stateMutability": "payable",
            "type": "receive"
        },
        {
            "inputs": [],
            "name": "implementation",
            "outputs": [
                {
                    "internalType": "address",
                    "name": "",
                    "type": "address"
                }
            ],
            "stateMutability": "view",
            "type": "function"
        },
        {
            "inputs": [
                {
                    "internalType": "address",
                    "name": "_newImplementation",
                    "type": "address"
                },
                {
                    "internalType": "bytes",
                    "name": "_initData",
                    "type": "bytes"
                }
            ],
            "name": "upgradeTo",
            "outputs": [
                {
                    "internalType": "bool",
                    "name": "",
                    "type": "bool"
                }
            ],
            "stateMutability": "nonpayable",
            "type": "function"
        }
    ],
    "bytecode": "0x6080604052348015600f57600080fd5b506109e58061001f6000396000f3fe60806040526004361061002d5760003560e01c80635c60da1b146100655780636fbc15e91461009757610034565b3661003457005b600061003e6100c7565b905060405136600082376000803683855af43d806000843e818015610061578184f35b8184fd5b34801561007157600080fd5b5061007a6100c7565b6040516001600160a01b0390911681526020015b60405180910390f35b3480156100a357600080fd5b506100b76100b2366004610791565b6100f5565b604051901515815260200161008e565b7f360894a13ba1a3210667c828492db98dca3e2076cc3735a920a3ca505d382bbc546001600160a01b031690565b60006001600160a01b0383166101525760405162461bcd60e51b815260206004820181905260248201527f5769746e657450726f78793a206e756c6c20696d706c656d656e746174696f6e60448201526064015b60405180910390fd5b600061015c6100c7565b90506001600160a01b0381161561050857806001600160a01b0316846001600160a01b0316036101ce5760405162461bcd60e51b815260206004820152601f60248201527f5769746e657450726f78793a206e6f7468696e6720746f2075706772616465006044820152606401610149565b806001600160a01b0316635479d9406040518163ffffffff1660e01b8152600401602060405180830381865afa925050508015610228575060408051601f3d908101601f1916820190925261022591810190610830565b60015b6102875760405162461bcd60e51b815260206004820152602a60248201527f5769746e657450726f78793a20756e61626c6520746f20636865636b207570676044820152697261646162696c69747960b01b6064820152608401610149565b806102d45760405162461bcd60e51b815260206004820152601b60248201527f5769746e657450726f78793a206e6f742075706772616461626c6500000000006044820152606401610149565b5060405133602482015260009081906001600160a01b0384169060440160408051601f198184030181529181526020820180516001600160e01b03166335ac4b0560e11b17905251610326919061087d565b600060405180830381855af49150503d8060008114610361576040519150601f19603f3d011682016040523d82523d6000602084013e610366565b606091505b5091509150816103885760405162461bcd60e51b815260040161014990610899565b8080602001905181019061039c9190610830565b6103e85760405162461bcd60e51b815260206004820152601b60248201527f5769746e657450726f78793a206e6f7420617574686f72697a656400000000006044820152606401610149565b856001600160a01b03166352d1902d6040518163ffffffff1660e01b8152600401602060405180830381865afa158015610426573d6000803e3d6000fd5b505050506040513d601f19601f8201168201806040525081019061044a91906108e0565b836001600160a01b03166352d1902d6040518163ffffffff1660e01b8152600401602060405180830381865afa158015610488573d6000803e3d6000fd5b505050506040513d601f19601f820116820180604052508101906104ac91906108e0565b146105055760405162461bcd60e51b8152602060048201526024808201527f5769746e657450726f78793a2070726f786961626c655555494473206d69736d6044820152630c2e8c6d60e31b6064820152608401610149565b50505b600080856001600160a01b0316856040516024016105269190610925565b60408051601f198184030181529181526020820180516001600160e01b031663439fab9160e01b1790525161055b919061087d565b600060405180830381855af49150503d8060008114610596576040519150601f19603f3d011682016040523d82523d6000602084013e61059b565b606091505b509150915081610635576044815110156106025760405162461bcd60e51b815260206004820152602260248201527f5769746e657450726f78793a20696e697469616c697a6174696f6e206661696c604482015261195960f21b6064820152608401610149565b6004810190508080602001905181019061061c9190610938565b60405162461bcd60e51b81526004016101499190610925565b7f360894a13ba1a3210667c828492db98dca3e2076cc3735a920a3ca505d382bbc80546001600160a01b0319166001600160a01b0388169081179091556040517fbc7cd75a20ee27fd9adebab32041f755214dbc6bffa90cc0225b39da2e5c2d3b90600090a2856001600160a01b0316635479d9406040518163ffffffff1660e01b8152600401602060405180830381865afa9250505080156106f5575060408051601f3d908101601f191682019092526106f291810190610830565b60015b6107115760405162461bcd60e51b815260040161014990610899565b935061071c92505050565b92915050565b634e487b7160e01b600052604160045260246000fd5b604051601f8201601f1916810167ffffffffffffffff8111828210171561076157610761610722565b604052919050565b600067ffffffffffffffff82111561078357610783610722565b50601f01601f191660200190565b600080604083850312156107a457600080fd5b82356001600160a01b03811681146107bb57600080fd5b9150602083013567ffffffffffffffff8111156107d757600080fd5b8301601f810185136107e857600080fd5b80356107fb6107f682610769565b610738565b81815286602083850101111561081057600080fd5b816020840160208301376000602083830101528093505050509250929050565b60006020828403121561084257600080fd5b8151801515811461085257600080fd5b9392505050565b60005b8381101561087457818101518382015260200161085c565b50506000910152565b6000825161088f818460208701610859565b9190910192915050565b60208082526027908201527f5769746e657450726f78793a20756e636f6d706c69616e7420696d706c656d65604082015266373a30ba34b7b760c91b606082015260800190565b6000602082840312156108f257600080fd5b5051919050565b60008151808452610911816020860160208601610859565b601f01601f19169290920160200192915050565b60208152600061085260208301846108f9565b60006020828403121561094a57600080fd5b815167ffffffffffffffff81111561096157600080fd5b8201601f8101841361097257600080fd5b80516109806107f682610769565b81815285602083850101111561099557600080fd5b6109a6826020830160208601610859565b9594505050505056fea2646970667358221220ba4d61ba6dc6b10826f1b2f21a7fb1965aee5031bae62952c0d5d7b7c16674ab64736f6c63430008190033",
    "immutableReferences": {},
    "source": "// SPDX-License-Identifier: MIT\r\n\r\npragma solidity >=0.7.0 <0.9.0;\r\npragma experimental ABIEncoderV2;\r\n\r\nimport \"../patterns/Upgradeable.sol\";\r\n\r\n/// @title WitnetProxy: upgradable delegate-proxy contract. \r\n/// @author Guillermo Daz <guillermo@otherplane.com>\r\ncontract WitnetProxy {\r\n\r\n    /// Event emitted every time the implementation gets updated.\r\n    event Upgraded(address indexed implementation);  \r\n\r\n    /// Constructor with no params as to ease eventual support of Singleton pattern (i.e. ERC-2470).\r\n    constructor () {}\r\n\r\n    receive() virtual external payable {}\r\n\r\n    /// Payable fallback accepts delegating calls to payable functions.  \r\n    fallback() external payable { /* solhint-disable no-complex-fallback */\r\n        address _implementation = implementation();\r\n        assembly { /* solhint-disable avoid-low-level-calls */\r\n            // Gas optimized delegate call to 'implementation' contract.\r\n            // Note: `msg.data`, `msg.sender` and `msg.value` will be passed over \r\n            //       to actual implementation of `msg.sig` within `implementation` contract.\r\n            let ptr := mload(0x40)\r\n            calldatacopy(ptr, 0, calldatasize())\r\n            let result := delegatecall(gas(), _implementation, ptr, calldatasize(), 0, 0)\r\n            let size := returndatasize()\r\n            returndatacopy(ptr, 0, size)\r\n            switch result\r\n                case 0  { \r\n                    // pass back revert message:\r\n                    revert(ptr, size) \r\n                }\r\n                default {\r\n                  // pass back same data as returned by 'implementation' contract:\r\n                  return(ptr, size) \r\n                }\r\n        }\r\n    }\r\n\r\n    /// Returns proxy's current implementation address.\r\n    function implementation() public view returns (address) {\r\n        return __proxySlot().implementation;\r\n    }\r\n\r\n    /// Upgrades the `implementation` address.\r\n    /// @param _newImplementation New implementation address.\r\n    /// @param _initData Raw data with which new implementation will be initialized.\r\n    /// @return Returns whether new implementation would be further upgradable, or not.\r\n    function upgradeTo(address _newImplementation, bytes memory _initData)\r\n        public returns (bool)\r\n    {\r\n        // New implementation cannot be null:\r\n        require(_newImplementation != address(0), \"WitnetProxy: null implementation\");\r\n\r\n        address _oldImplementation = implementation();\r\n        if (_oldImplementation != address(0)) {\r\n            // New implementation address must differ from current one:\r\n            require(_newImplementation != _oldImplementation, \"WitnetProxy: nothing to upgrade\");\r\n\r\n            // Assert whether current implementation is intrinsically upgradable:\r\n            try Upgradeable(_oldImplementation).isUpgradable() returns (bool _isUpgradable) {\r\n                require(_isUpgradable, \"WitnetProxy: not upgradable\");\r\n            } catch {\r\n                revert(\"WitnetProxy: unable to check upgradability\");\r\n            }\r\n\r\n            // Assert whether current implementation allows `msg.sender` to upgrade the proxy:\r\n            (bool _wasCalled, bytes memory _result) = _oldImplementation.delegatecall(\r\n                abi.encodeWithSignature(\r\n                    \"isUpgradableFrom(address)\",\r\n                    msg.sender\r\n                )\r\n            );\r\n            require(_wasCalled, \"WitnetProxy: uncompliant implementation\");\r\n            require(abi.decode(_result, (bool)), \"WitnetProxy: not authorized\");\r\n            require(\r\n                Upgradeable(_oldImplementation).proxiableUUID() == Upgradeable(_newImplementation).proxiableUUID(),\r\n                \"WitnetProxy: proxiableUUIDs mismatch\"\r\n            );\r\n        }\r\n\r\n        // Initialize new implementation within proxy-context storage:\r\n        (bool _wasInitialized, bytes memory _returnData) = _newImplementation.delegatecall(\r\n            abi.encodeWithSignature(\r\n                \"initialize(bytes)\",\r\n                _initData\r\n            )\r\n        );\r\n        if (!_wasInitialized) {\r\n            if (_returnData.length < 68) {\r\n                revert(\"WitnetProxy: initialization failed\");\r\n            } else {\r\n                assembly {\r\n                    _returnData := add(_returnData, 0x04)\r\n                }\r\n                revert(abi.decode(_returnData, (string)));\r\n            }\r\n        }\r\n\r\n        // If all checks and initialization pass, update implementation address:\r\n        __proxySlot().implementation = _newImplementation;\r\n    \r\n        emit Upgraded(_newImplementation);\r\n\r\n        // Asserts new implementation complies w/ minimal implementation of Upgradeable interface:\r\n        try Upgradeable(_newImplementation).isUpgradable() returns (bool _isUpgradable) {\r\n            return _isUpgradable;\r\n        }\r\n        catch {\r\n            revert (\"WitnetProxy: uncompliant implementation\");\r\n        }\r\n    }\r\n\r\n    /// @dev Complying with EIP-1967, retrieves storage struct containing proxy's current implementation address.\r\n    function __proxySlot() private pure returns (Proxiable.ProxiableSlot storage _slot) {\r\n        assembly {\r\n            // bytes32(uint256(keccak256('eip1967.proxy.implementation')) - 1)\r\n            _slot.slot := 0x360894a13ba1a3210667c828492db98dca3e2076cc3735a920a3ca505d382bbc\r\n        }\r\n    }\r\n\r\n}\r\n",
    "compiler": {
        "name": "solc",
        "version": "0.8.25+commit.b61c2a91.Emscripten.clang"
    },
    "schemaVersion": "3.4.16",
    "updatedAt": "2024-10-20T09:42:12.841Z",
    "devdoc": {
        "author": "Guillermo Daz <guillermo@otherplane.com>",
        "kind": "dev",
        "methods": {
            "upgradeTo(address,bytes)": {
                "params": {
                    "_initData": "Raw data with which new implementation will be initialized.",
                    "_newImplementation": "New implementation address."
                },
                "returns": {
                    "_0": "Returns whether new implementation would be further upgradable, or not."
                }
            }
        },
        "title": "WitnetProxy: upgradable delegate-proxy contract. ",
        "version": 1
    },
    "userdoc": {
        "events": {
            "Upgraded(address)": {
                "notice": "Event emitted every time the implementation gets updated."
            }
        },
        "kind": "user",
        "methods": {
            "constructor": {
                "notice": "Constructor with no params as to ease eventual support of Singleton pattern (i.e. ERC-2470)."
            },
            "implementation()": {
                "notice": "Returns proxy's current implementation address."
            },
            "upgradeTo(address,bytes)": {
                "notice": "Upgrades the `implementation` address."
            }
        },
        "version": 1
    }
}